{"address":"0x734D7B230F55c76F5871665c17029aB8D508aBdb","bytecode":"0x60a06040523060805234801561001457600080fd5b50608051613b8861004c60003960008181610893015281816108d3015281816109a4015281816109e40152610a770152613b886000f3fe60806040526004361061021a5760003560e01c806370a0823111610123578063a9059cbb116100ab578063d4c7842b1161006f578063d4c7842b14610617578063db74559b14610637578063dd62ed3e14610665578063ea4bbaf414610685578063f2fde38b146106b357600080fd5b8063a9059cbb1461056d578063a90f8e9a1461058d578063cd6dc687146105c4578063ce557031146105e4578063ceea758b146105f757600080fd5b80638da5cb5b116100f25780638da5cb5b146104da5780638ebfc796146104f857806395d89b4114610518578063a230c5241461052d578063a457c2d71461054d57600080fd5b806370a0823114610441578063715018a6146104775780638456cb591461048c5780638ce74426146104a157600080fd5b806339509351116101a657806352d1902d1161017557806352d1902d146103b35780635c975abb146103c85780635da48a9c146103e05780635f8f40e81461040057806366ee7c061461041357600080fd5b8063395093511461033a578063398daa851461035a5780633f4ba83a1461038b5780634f1ef286146103a057600080fd5b806319d00c36116101ed57806319d00c36146102b057806319f4ba29146102c757806323b872dd146102de578063313ce567146102fe5780633659cfe61461031a57600080fd5b806305eaab4b1461021f57806306fdde0314610236578063095ea7b31461026157806318160ddd14610291575b600080fd5b34801561022b57600080fd5b506102346106d3565b005b34801561024257600080fd5b5061024b6107b9565b604051610258919061341e565b60405180910390f35b34801561026d57600080fd5b5061028161027c366004613466565b61084b565b6040519015158152602001610258565b34801561029d57600080fd5b506035545b604051908152602001610258565b3480156102bc57600080fd5b506102a26101635481565b3480156102d357600080fd5b506102a26101645481565b3480156102ea57600080fd5b506102816102f9366004613492565b610865565b34801561030a57600080fd5b5060405160128152602001610258565b34801561032657600080fd5b506102346103353660046134d3565b610889565b34801561034657600080fd5b50610281610355366004613466565b610968565b34801561036657600080fd5b506102816103753660046134d3565b6101686020526000908152604090205460ff1681565b34801561039757600080fd5b5061023461098a565b6102346103ae366004613506565b61099a565b3480156103bf57600080fd5b506102a2610a6a565b3480156103d457600080fd5b5060fb5460ff16610281565b3480156103ec57600080fd5b506102346103fb3660046135ca565b610b1d565b61023461040e3660046135f1565b610d15565b34801561041f57600080fd5b506102a261042e3660046134d3565b6101676020526000908152604090205481565b34801561044d57600080fd5b506102a261045c3660046134d3565b6001600160a01b031660009081526033602052604090205490565b34801561048357600080fd5b50610234610ebd565b34801561049857600080fd5b50610234610ecf565b3480156104ad57600080fd5b5061015f546104c2906001600160a01b031681565b6040516001600160a01b039091168152602001610258565b3480156104e657600080fd5b5060c9546001600160a01b03166104c2565b34801561050457600080fd5b5061023461051336600461360e565b610edf565b34801561052457600080fd5b5061024b610f13565b34801561053957600080fd5b506102816105483660046134d3565b610f22565b34801561055957600080fd5b50610281610568366004613466565b610f43565b34801561057957600080fd5b50610281610588366004613466565b610fbe565b34801561059957600080fd5b506104c26105a83660046134d3565b610165602052600090815260409020546001600160a01b031681565b3480156105d057600080fd5b506102346105df366004613466565b610fcc565b6102346105f23660046134d3565b611199565b34801561060357600080fd5b50610234610612366004613647565b6117ce565b34801561062357600080fd5b506102346106323660046136c3565b611a02565b34801561064357600080fd5b506102a26106523660046134d3565b6101666020526000908152604090205481565b34801561067157600080fd5b506102a26106803660046136e5565b611a17565b34801561069157600080fd5b506102a26106a03660046134d3565b6101626020526000908152604090205481565b3480156106bf57600080fd5b506102346106ce3660046134d3565b611a42565b6106db611ab8565b6106e3611b13565b6106ec33611b59565b3360009081526101676020526040902054806107445760405162461bcd60e51b81526020600482015260126024820152714e6f20726577617264732070656e64696e6760701b60448201526064015b60405180910390fd5b3360009081526101676020526040812081905561076982670de0b6b3a7640000613729565b90506107753382611ce9565b60405181815233907ff7665b962a292ef8fb8592c6b49c56b5cd1412fe04af5dd919a71f9a760f1e4f9060200160405180910390a250506107b7600161012d55565b565b6060603680546107c890613740565b80601f01602080910402602001604051908101604052809291908181526020018280546107f490613740565b80156108415780601f1061081657610100808354040283529160200191610841565b820191906000526020600020905b81548152906001019060200180831161082457829003601f168201915b5050505050905090565b600033610859818585611db2565b60019150505b92915050565b600033610873858285611ed6565b61087e858585611f50565b506001949350505050565b6001600160a01b037f00000000000000000000000000000000000000000000000000000000000000001630036108d15760405162461bcd60e51b815260040161073b9061377a565b7f00000000000000000000000000000000000000000000000000000000000000006001600160a01b031661091a600080516020613b0c833981519152546001600160a01b031690565b6001600160a01b0316146109405760405162461bcd60e51b815260040161073b906137c6565b61094981612207565b604080516000808252602082019092526109659183919061220f565b50565b60003361085981858561097b8383611a17565b6109859190613812565b611db2565b61099261237a565b6107b76123d4565b6001600160a01b037f00000000000000000000000000000000000000000000000000000000000000001630036109e25760405162461bcd60e51b815260040161073b9061377a565b7f00000000000000000000000000000000000000000000000000000000000000006001600160a01b0316610a2b600080516020613b0c833981519152546001600160a01b031690565b6001600160a01b031614610a515760405162461bcd60e51b815260040161073b906137c6565b610a5a82612207565b610a668282600161220f565b5050565b6000306001600160a01b037f00000000000000000000000000000000000000000000000000000000000000001614610b0a5760405162461bcd60e51b815260206004820152603860248201527f555550535570677261646561626c653a206d757374206e6f742062652063616c60448201527f6c6564207468726f7567682064656c656761746563616c6c0000000000000000606482015260840161073b565b50600080516020613b0c83398151915290565b610b25611ab8565b610b2d611b13565b33600090815261016060205260409020544311610b5c5760405162461bcd60e51b815260040161073b90613825565b670de0b6b3a7640000811015610ba55760405162461bcd60e51b815260206004820152600e60248201526d4d696e696d756d2031206772616d60901b604482015260640161073b565b33600090815260336020526040902054811115610bfb5760405162461bcd60e51b8152602060048201526014602482015273496e73756666696369656e742062616c616e636560601b604482015260640161073b565b610c053382612426565b61015f546040805163dc7ac66760e01b815290516000926001600160a01b03169163dc7ac6679160048083019260209291908290030181865afa158015610c50573d6000803e3d6000fd5b505050506040513d601f19601f82011682018060405250810190610c749190613868565b90506000670de0b6b3a7640000610c8b8385613729565b610c959190613897565b604080518581526020810183905291925033917fc4ad714cde00d25a732959982743bfc53a7d733b7a4940da58af0944aded5a86910160405180910390a260405183815233907ffd38818f5291bf0bb3a2a48aadc06ba8757865d1dabd804585338aab3009dcb69060200160405180910390a25050610965600161012d55565b610d1d611ab8565b610d25611b13565b610d2e33611b59565b600081610d3e5761016354610d43565b610164545b90506000610d508361255a565b905081341015610d995760405162461bcd60e51b8152602060048201526014602482015273125b9cdd59999a58da595b9d081c185e5b595b9d60621b604482015260640161073b565b336000908152610162602052604090205442811115610dd257610dbc8282613812565b3360009081526101626020526040902055610dee565b610ddc8242613812565b33600090815261016260205260409020555b61015f5460408051637eb9711560e11b81529051610e64926001600160a01b03169163fd72e22a9160048083019260209291908290030181865afa158015610e3a573d6000803e3d6000fd5b505050506040513d601f19601f82011682018060405250810190610e5e91906138ab565b3461257c565b33600081815261016260209081526040918290205482518815158152918201527fc9c4d63f090a12ac3deddf173e6413febf732751906a54a0bf3be48404c65130910160405180910390a2505050610965600161012d55565b610ec561237a565b6107b76000612632565b610ed761237a565b6107b7612684565b610ee761237a565b6001600160a01b0391909116600090815261016860205260409020805460ff1916911515919091179055565b6060603780546107c890613740565b6001600160a01b03811660009081526101626020526040812054421061085f565b60003381610f518286611a17565b905083811015610fb15760405162461bcd60e51b815260206004820152602560248201527f45524332303a2064656372656173656420616c6c6f77616e63652062656c6f77604482015264207a65726f60d81b606482015260840161073b565b61087e8286868403611db2565b600033610859818585611f50565b600054610100900460ff1615808015610fec5750600054600160ff909116105b806110065750303b158015611006575060005460ff166001145b6110695760405162461bcd60e51b815260206004820152602e60248201527f496e697469616c697a61626c653a20636f6e747261637420697320616c72656160448201526d191e481a5b9a5d1a585b1a5e995960921b606482015260840161073b565b6000805460ff19166001179055801561108c576000805461ff0019166101001790555b6110d96040518060400160405280601081526020016f23b0b4b0a9b832b0b59029b4b63b32b960811b8152506040518060400160405280600381526020016247535360e81b8152506126c1565b6110e16126f2565b6110e9612721565b6110f1612750565b6110f961277f565b61015f80546001600160a01b0319166001600160a01b03851617905561016382905561112682600a613729565b610164556001600160a01b038316600090815261016860205260409020805460ff191660011790558015611194576000805461ff0019169055604051600181527f7f26b83ff96e1f2b6a682f133852f6798a09c465da95921460cefb38474024989060200160405180910390a15b505050565b6111a1611ab8565b6111a9611b13565b61015f54604080516316fd755360e21b815290516004926001600160a01b031691635bf5d54c918185019160209190819003860181865afa1580156111f2573d6000803e3d6000fd5b505050506040513d601f19601f8201168201806040525081019061121691906138de565b6005811115611227576112276138c8565b036112885760405162461bcd60e51b815260206004820152602b60248201527f50726f746f636f6c20696e20524544207374616765202d20707572636861736560448201526a1cc81cdd5cdc195b99195960aa1b606482015260840161073b565b33600090815261016160205260409020546112a2906127a6565b6112e75760405162461bcd60e51b8152602060048201526016602482015275506c656173652077616974203630207365636f6e647360501b604482015260640161073b565b3360009081526101616020908152604080832042905561015f54815163dc7ac66760e01b815291516001600160a01b039091169263dc7ac66792600480820193918290030181865afa158015611341573d6000803e3d6000fd5b505050506040513d601f19601f820116820180604052508101906113659190613868565b9050600081116113b75760405162461bcd60e51b815260206004820152601960248201527f53696c766572206f7261636c6520756e617661696c61626c6500000000000000604482015260640161073b565b61015f5460408051631364f05960e11b815290516000926001600160a01b0316916326c9e0b29160048083019260209291908290030181865afa158015611402573d6000803e3d6000fd5b505050506040513d601f19601f820116820180604052508101906114269190613868565b9050600081116114715760405162461bcd60e51b8152602060048201526016602482015275455448206f7261636c6520756e617661696c61626c6560501b604482015260640161073b565b6000670de0b6b3a76400006114868334613729565b6114909190613897565b905061149b816127bc565b6114e75760405162461bcd60e51b815260206004820152601960248201527f4d696e696d756d2070757263686173652069732024312e303000000000000000604482015260640161073b565b3360009081526101606020526040812043905561150482856127d9565b9050600081116115495760405162461bcd60e51b815260206004820152601060248201526f105b5bdd5b9d081d1bdbc81cdb585b1b60821b604482015260640161073b565b61015f5460405163197d63a160e01b81523360048201526000916001600160a01b03169063197d63a190602401602060405180830381865afa158015611593573d6000803e3d6000fd5b505050506040513d601f19601f820116820180604052508101906115b791906138ff565b905080158015611644575061015f54604080516316fd755360e21b815290516000926001600160a01b031691635bf5d54c9160048083019260209291908290030181865afa15801561160d573d6000803e3d6000fd5b505050506040513d601f19601f8201168201806040525081019061163191906138de565b6005811115611642576116426138c8565b145b156116b35761015f60009054906101000a90046001600160a01b03166001600160a01b0316631f0e1dd86040518163ffffffff1660e01b8152600401600060405180830381600087803b15801561169a57600080fd5b505af11580156116ae573d6000803e3d6000fd5b505050505b6001600160a01b038616158015906116d457506001600160a01b0386163314155b80156116f7575033600090815261016560205260409020546001600160a01b0316155b15611726573360009081526101656020526040902080546001600160a01b0319166001600160a01b0388161790555b33600090815261016560205260409020546001600160a01b031615611768573360009081526101656020526040902054611768906001600160a01b03166127ff565b6117723383611ce9565b61177b346128b4565b604080513481526020810184905290810186905233907f69896924bd045ec1a925e13155b24c04d7a2e8503acf93d6a0eff666fa7b93f19060600160405180910390a25050505050610965600161012d55565b6117d6611ab8565b6117de611b13565b3360009081526101606020526040902054431161180d5760405162461bcd60e51b815260040161073b90613825565b670de0b6b3a764000083101561185b5760405162461bcd60e51b81526020600482015260136024820152724d696e696d756d20312066756c6c206772616d60681b604482015260640161073b565b336000908152603360205260409020548311156118ad5760405162461bcd60e51b815260206004820152601060248201526f496e73756666696369656e742047535360801b604482015260640161073b565b61015f54604080516316fd755360e21b815290516004926001600160a01b031691635bf5d54c918185019160209190819003860181865afa1580156118f6573d6000803e3d6000fd5b505050506040513d601f19601f8201168201806040525081019061191a91906138de565b600581111561192b5761192b6138c8565b036119715760405162461bcd60e51b8152602060048201526016602482015275155b985d985a5b18589b1948191d5c9a5b99c814915160521b604482015260640161073b565b61197b3384612426565b336001600160a01b03167fe94d4fe051c4c582c4589bc07b68fe07bbec08a4dd1038d06a3eb0ff696b1fbd848484426040516119ba949392919061391c565b60405180910390a260405183815233907ffd38818f5291bf0bb3a2a48aadc06ba8757865d1dabd804585338aab3009dcb69060200160405180910390a2611194600161012d55565b611a0a61237a565b6101639190915561016455565b6001600160a01b03918216600090815260346020908152604080832093909416825291909152205490565b611a4a61237a565b6001600160a01b038116611aaf5760405162461bcd60e51b815260206004820152602660248201527f4f776e61626c653a206e6577206f776e657220697320746865207a65726f206160448201526564647265737360d01b606482015260840161073b565b61096581612632565b600261012d5403611b0b5760405162461bcd60e51b815260206004820152601f60248201527f5265656e7472616e637947756172643a207265656e7472616e742063616c6c00604482015260640161073b565b600261012d55565b60fb5460ff16156107b75760405162461bcd60e51b815260206004820152601060248201526f14185d5cd8589b194e881c185d5cd95960821b604482015260640161073b565b61015f5460405163197d63a160e01b81526001600160a01b0383811660048301529091169063197d63a190602401602060405180830381865afa158015611ba4573d6000803e3d6000fd5b505050506040513d601f19601f82011682018060405250810190611bc891906138ff565b8015611c3e575061015f54604051630e13982560e11b81526001600160a01b03838116600483015290911690631c27304a90602401602060405180830381865afa158015611c1a573d6000803e3d6000fd5b505050506040513d601f19601f82011682018060405250810190611c3e91906138ff565b156109655761015f54604051634b1a2df560e01b81526001600160a01b03838116600483015290911690634b1a2df590602401600060405180830381600087803b158015611c8b57600080fd5b505af1158015611c9f573d6000803e3d6000fd5b50505050806001600160a01b03167f83733b0d2948a27b24891a5d91f84cdabb49ae1ae62417c3594c1a0ea6d4593c42604051611cde91815260200190565b60405180910390a250565b6001600160a01b038216611d3f5760405162461bcd60e51b815260206004820152601f60248201527f45524332303a206d696e7420746f20746865207a65726f206164647265737300604482015260640161073b565b8060356000828254611d519190613812565b90915550506001600160a01b0382166000818152603360209081526040808320805486019055518481527fddf252ad1be2c89b69c2b068fc378daa952ba7f163c4a11628f55a4df523b3ef910160405180910390a35050565b600161012d55565b6001600160a01b038316611e145760405162461bcd60e51b8152602060048201526024808201527f45524332303a20617070726f76652066726f6d20746865207a65726f206164646044820152637265737360e01b606482015260840161073b565b6001600160a01b038216611e755760405162461bcd60e51b815260206004820152602260248201527f45524332303a20617070726f766520746f20746865207a65726f206164647265604482015261737360f01b606482015260840161073b565b6001600160a01b0383811660008181526034602090815260408083209487168084529482529182902085905590518481527f8c5be1e5ebec7d5bd14f71427d1e84f3dd0314c0f7b2291e5b200ac8c7c3b925910160405180910390a3505050565b6000611ee28484611a17565b90506000198114611f4a5781811015611f3d5760405162461bcd60e51b815260206004820152601d60248201527f45524332303a20696e73756666696369656e7420616c6c6f77616e6365000000604482015260640161073b565b611f4a8484848403611db2565b50505050565b6001600160a01b0383161580611f6d57506001600160a01b038216155b80611f9157506001600160a01b0383166000908152610168602052604090205460ff165b80611fb557506001600160a01b0382166000908152610168602052604090205460ff165b15611fc557611194838383612ed5565b6706f05b59d3b200008110156120165760405162461bcd60e51b81526020600482015260166024820152752132b637bb9036b4b734b6bab6903a3930b739b332b960511b604482015260640161073b565b600061202184610f22565b9050600061202e84610f22565b9050600082801561203c5750815b156120f85761204c846002613080565b9050600061205b600283613897565b90506120678782612426565b6120f28761015f60009054906101000a90046001600160a01b03166001600160a01b031663d9bdc5636040518163ffffffff1660e01b8152600401602060405180830381865afa1580156120bf573d6000803e3d6000fd5b505050506040513d601f19601f820116820180604052508101906120e391906138ab565b6120ed848661395c565b612ed5565b506121f0565b6121038460c8613080565b90506000612112600283613897565b90506121968761015f60009054906101000a90046001600160a01b03166001600160a01b031663fd72e22a6040518163ffffffff1660e01b8152600401602060405180830381865afa15801561216c573d6000803e3d6000fd5b505050506040513d601f19601f8201168201806040525081019061219091906138ab565b83612ed5565b6121ee8761015f60009054906101000a90046001600160a01b03166001600160a01b031663d9bdc5636040518163ffffffff1660e01b8152600401602060405180830381865afa1580156120bf573d6000803e3d6000fd5b505b6121ff86866120ed848861395c565b505050505050565b61096561237a565b7f4910fdfa16fed3260ed0e7147f7cc6da11a60208b5b9406d12a635614ffd91435460ff1615612242576111948361308f565b826001600160a01b03166352d1902d6040518163ffffffff1660e01b8152600401602060405180830381865afa92505050801561229c575060408051601f3d908101601f1916820190925261229991810190613868565b60015b6122ff5760405162461bcd60e51b815260206004820152602e60248201527f45524331393637557067726164653a206e657720696d706c656d656e7461746960448201526d6f6e206973206e6f74205555505360901b606482015260840161073b565b600080516020613b0c833981519152811461236e5760405162461bcd60e51b815260206004820152602960248201527f45524331393637557067726164653a20756e737570706f727465642070726f786044820152681a58589b195555525160ba1b606482015260840161073b565b5061119483838361312b565b60c9546001600160a01b031633146107b75760405162461bcd60e51b815260206004820181905260248201527f4f776e61626c653a2063616c6c6572206973206e6f7420746865206f776e6572604482015260640161073b565b6123dc613150565b60fb805460ff191690557f5db9ee0a495bf2e6ff9c91a7834c1ba4fdd244a5e8aa4e537bd38aeae4b073aa335b6040516001600160a01b03909116815260200160405180910390a1565b6001600160a01b0382166124865760405162461bcd60e51b815260206004820152602160248201527f45524332303a206275726e2066726f6d20746865207a65726f206164647265736044820152607360f81b606482015260840161073b565b6001600160a01b038216600090815260336020526040902054818110156124fa5760405162461bcd60e51b815260206004820152602260248201527f45524332303a206275726e20616d6f756e7420657863656564732062616c616e604482015261636560f01b606482015260840161073b565b6001600160a01b03831660008181526033602090815260408083208686039055603580548790039055518581529192917fddf252ad1be2c89b69c2b068fc378daa952ba7f163c4a11628f55a4df523b3ef910160405180910390a3505050565b60008161256a5762278d00612570565b6301e133805b63ffffffff1692915050565b80158061259057506001600160a01b038216155b15612599575050565b6000826001600160a01b03168260405160006040518083038185875af1925050503d80600081146125e6576040519150601f19603f3d011682016040523d82523d6000602084013e6125eb565b606091505b50509050806111945760405162461bcd60e51b8152602060048201526013602482015272115512081d1c985b9cd9995c8819985a5b1959606a1b604482015260640161073b565b60c980546001600160a01b038381166001600160a01b0319831681179093556040519116919082907f8be0079c531659141344cd1fd0a4f28419497f9722a3daafe3b4186f6b6457e090600090a35050565b61268c611b13565b60fb805460ff191660011790557f62e78cea01bee320cd4e420270b5ea74000d11b0c9f74754ebdbfc544b05a2586124093390565b600054610100900460ff166126e85760405162461bcd60e51b815260040161073b9061396f565b610a668282613199565b600054610100900460ff166127195760405162461bcd60e51b815260040161073b9061396f565b6107b76131d9565b600054610100900460ff166127485760405162461bcd60e51b815260040161073b9061396f565b6107b7613209565b600054610100900460ff166127775760405162461bcd60e51b815260040161073b9061396f565b6107b761323c565b600054610100900460ff166107b75760405162461bcd60e51b815260040161073b9061396f565b60006127b3603c83613812565b42101592915050565b60006127d06064662386f26fc10000613729565b90911015919050565b6000816127ee84670de0b6b3a7640000613729565b6127f89190613897565b9392505050565b6001600160a01b038116600090815261016660205260408120805491612824836139ba565b909155505060405133906001600160a01b038316907ff61ccbe316daff56654abed758191f9a4dcac526d43747a50a2d545c0ca64d8290600090a36001600160a01b0381166000908152610166602052604090205461288290613263565b15610965576001600160a01b0381166000908152610167602052604081208054916128ac836139ba565b919050555050565b61015f54604080516316fd755360e21b815290516000926001600160a01b031691635bf5d54c9160048083019260209291908290030181865afa1580156128ff573d6000803e3d6000fd5b505050506040513d601f19601f8201168201806040525081019061292391906138de565b90506002816005811115612939576129396138c8565b14612c6357600061294b836064613080565b9050600061295a846001613080565b9050600061296a85612207613080565b9050600061297a866104a4613080565b90506000818361298a8688613812565b6129949190613812565b61299e9190613812565b9050868110156129bf576129b2818861395c565b6129bc9084613812565b92505b61015f546040805163a23d3c3560e01b81529051612a35926001600160a01b03169163a23d3c359160048083019260209291908290030181865afa158015612a0b573d6000803e3d6000fd5b505050506040513d601f19601f82011682018060405250810190612a2f91906138ab565b8661257c565b600080612a43600587613897565b905060005b6005811015612b745761015f54604051632567bbad60e11b8152600481018390526000916001600160a01b031690634acf775a90602401602060405180830381865afa158015612a9c573d6000803e3d6000fd5b505050506040513d601f19601f82011682018060405250810190612ac091906138ab565b61015f54604051630e13982560e11b81526001600160a01b038084166004830152929350911690631c27304a90602401602060405180830381865afa158015612b0d573d6000803e3d6000fd5b505050506040513d601f19601f82011682018060405250810190612b3191906138ff565b8015612b4f575060018a6005811115612b4c57612b4c6138c8565b14155b15612b6b57612b5e818461257c565b612b688385613812565b93505b50600101612a48565b50612b7f828761395c565b612b899086613812565b9450612be261015f60009054906101000a90046001600160a01b03166001600160a01b031663d9bdc5636040518163ffffffff1660e01b8152600401602060405180830381865afa158015612a0b573d6000803e3d6000fd5b61015f5460408051637eb9711560e11b81529051612c58926001600160a01b03169163fd72e22a9160048083019260209291908290030181865afa158015612c2e573d6000803e3d6000fd5b505050506040513d601f19601f82011682018060405250810190612c5291906138ab565b8561257c565b505050505050505050565b61015f546040805163dc7ac66760e01b815290516000926001600160a01b03169163a6a8613091839163dc7ac6679160048083019260209291908290030181865afa158015612cb6573d6000803e3d6000fd5b505050506040513d601f19601f82011682018060405250810190612cda9190613868565b6040518263ffffffff1660e01b8152600401612cf891815260200190565b602060405180830381865afa158015612d15573d6000803e3d6000fd5b505050506040513d601f19601f82011682018060405250810190612d399190613868565b90506000818411612d4b576000612d55565b612d55828561395c565b90508015612e895760006064612d6c602884613729565b612d769190613897565b9050612df961015f60009054906101000a90046001600160a01b03166001600160a01b031663a23d3c356040518163ffffffff1660e01b8152600401602060405180830381865afa158015612dcf573d6000803e3d6000fd5b505050506040513d601f19601f82011682018060405250810190612df391906138ab565b8261257c565b61015f546040805163d9bdc56360e01b81529051612e83926001600160a01b03169163d9bdc5639160048083019260209291908290030181865afa158015612e45573d6000803e3d6000fd5b505050506040513d601f19601f82011682018060405250810190612e6991906138ab565b82612e748587613812565b612e7e919061395c565b61257c565b50611f4a565b61015f546040805163d9bdc56360e01b81529051611f4a926001600160a01b03169163d9bdc5639160048083019260209291908290030181865afa158015612c2e573d6000803e3d6000fd5b6001600160a01b038316612f395760405162461bcd60e51b815260206004820152602560248201527f45524332303a207472616e736665722066726f6d20746865207a65726f206164604482015264647265737360d81b606482015260840161073b565b6001600160a01b038216612f9b5760405162461bcd60e51b815260206004820152602360248201527f45524332303a207472616e7366657220746f20746865207a65726f206164647260448201526265737360e81b606482015260840161073b565b6001600160a01b038316600090815260336020526040902054818110156130135760405162461bcd60e51b815260206004820152602660248201527f45524332303a207472616e7366657220616d6f756e7420657863656564732062604482015265616c616e636560d01b606482015260840161073b565b6001600160a01b0380851660008181526033602052604080822086860390559286168082529083902080548601905591517fddf252ad1be2c89b69c2b068fc378daa952ba7f163c4a11628f55a4df523b3ef906130739086815260200190565b60405180910390a3611f4a565b60006127106127ee8385613729565b6001600160a01b0381163b6130fc5760405162461bcd60e51b815260206004820152602d60248201527f455243313936373a206e657720696d706c656d656e746174696f6e206973206e60448201526c1bdd08184818dbdb9d1c9858dd609a1b606482015260840161073b565b600080516020613b0c83398151915280546001600160a01b0319166001600160a01b0392909216919091179055565b61313483613277565b6000825111806131415750805b1561119457611f4a83836132b7565b60fb5460ff166107b75760405162461bcd60e51b815260206004820152601460248201527314185d5cd8589b194e881b9bdd081c185d5cd95960621b604482015260640161073b565b600054610100900460ff166131c05760405162461bcd60e51b815260040161073b9061396f565b60366131cc8382613a1b565b5060376111948282613a1b565b600054610100900460ff166132005760405162461bcd60e51b815260040161073b9061396f565b6107b733612632565b600054610100900460ff166132305760405162461bcd60e51b815260040161073b9061396f565b60fb805460ff19169055565b600054610100900460ff16611daa5760405162461bcd60e51b815260040161073b9061396f565b6000613270600a83613adb565b1592915050565b6132808161308f565b6040516001600160a01b038216907fbc7cd75a20ee27fd9adebab32041f755214dbc6bffa90cc0225b39da2e5c2d3b90600090a250565b60606127f88383604051806060016040528060278152602001613b2c602791396060600080856001600160a01b0316856040516132f49190613aef565b600060405180830381855af49150503d806000811461332f576040519150601f19603f3d011682016040523d82523d6000602084013e613334565b606091505b50915091506133458683838761334f565b9695505050505050565b606083156133be5782516000036133b7576001600160a01b0385163b6133b75760405162461bcd60e51b815260206004820152601d60248201527f416464726573733a2063616c6c20746f206e6f6e2d636f6e7472616374000000604482015260640161073b565b50816133c8565b6133c883836133d0565b949350505050565b8151156133e05781518083602001fd5b8060405162461bcd60e51b815260040161073b919061341e565b60005b838110156134155781810151838201526020016133fd565b50506000910152565b602081526000825180602084015261343d8160408501602087016133fa565b601f01601f19169190910160400192915050565b6001600160a01b038116811461096557600080fd5b6000806040838503121561347957600080fd5b823561348481613451565b946020939093013593505050565b6000806000606084860312156134a757600080fd5b83356134b281613451565b925060208401356134c281613451565b929592945050506040919091013590565b6000602082840312156134e557600080fd5b81356127f881613451565b634e487b7160e01b600052604160045260246000fd5b6000806040838503121561351957600080fd5b823561352481613451565b9150602083013567ffffffffffffffff8082111561354157600080fd5b818501915085601f83011261355557600080fd5b813581811115613567576135676134f0565b604051601f8201601f19908116603f0116810190838211818310171561358f5761358f6134f0565b816040528281528860208487010111156135a857600080fd5b8260208601602083013760006020848301015280955050505050509250929050565b6000602082840312156135dc57600080fd5b5035919050565b801515811461096557600080fd5b60006020828403121561360357600080fd5b81356127f8816135e3565b6000806040838503121561362157600080fd5b823561362c81613451565b9150602083013561363c816135e3565b809150509250929050565b60008060006040848603121561365c57600080fd5b83359250602084013567ffffffffffffffff8082111561367b57600080fd5b818601915086601f83011261368f57600080fd5b81358181111561369e57600080fd5b8760208285010111156136b057600080fd5b6020830194508093505050509250925092565b600080604083850312156136d657600080fd5b50508035926020909101359150565b600080604083850312156136f857600080fd5b823561370381613451565b9150602083013561363c81613451565b634e487b7160e01b600052601160045260246000fd5b808202811582820484141761085f5761085f613713565b600181811c9082168061375457607f821691505b60208210810361377457634e487b7160e01b600052602260045260246000fd5b50919050565b6020808252602c908201527f46756e6374696f6e206d7573742062652063616c6c6564207468726f7567682060408201526b19195b1959d85d1958d85b1b60a21b606082015260800190565b6020808252602c908201527f46756e6374696f6e206d7573742062652063616c6c6564207468726f7567682060408201526b6163746976652070726f787960a01b606082015260800190565b8082018082111561085f5761085f613713565b60208082526023908201527f43616e6e6f742062757920616e642072656465656d20696e2073616d6520626c6040820152626f636b60e81b606082015260800190565b60006020828403121561387a57600080fd5b5051919050565b634e487b7160e01b600052601260045260246000fd5b6000826138a6576138a6613881565b500490565b6000602082840312156138bd57600080fd5b81516127f881613451565b634e487b7160e01b600052602160045260246000fd5b6000602082840312156138f057600080fd5b8151600681106127f857600080fd5b60006020828403121561391157600080fd5b81516127f8816135e3565b848152606060208201528260608201528284608083013760006080848301015260006080601f19601f860116830101905082604083015295945050505050565b8181038181111561085f5761085f613713565b6020808252602b908201527f496e697469616c697a61626c653a20636f6e7472616374206973206e6f74206960408201526a6e697469616c697a696e6760a81b606082015260800190565b6000600182016139cc576139cc613713565b5060010190565b601f821115611194576000816000526020600020601f850160051c810160208610156139fc5750805b601f850160051c820191505b818110156121ff57828155600101613a08565b815167ffffffffffffffff811115613a3557613a356134f0565b613a4981613a438454613740565b846139d3565b602080601f831160018114613a7e5760008415613a665750858301515b600019600386901b1c1916600185901b1785556121ff565b600085815260208120601f198616915b82811015613aad57888601518255948401946001909101908401613a8e565b5085821015613acb5787850151600019600388901b60f8161c191681555b5050505050600190811b01905550565b600082613aea57613aea613881565b500690565b60008251613b018184602087016133fa565b919091019291505056fe360894a13ba1a3210667c828492db98dca3e2076cc3735a920a3ca505d382bbc416464726573733a206c6f772d6c6576656c2064656c65676174652063616c6c206661696c6564a26469706673582212209c78c3b37b364244edbbd8308e31de2c101bf647aecbee830934ee1fba0b5cd464736f6c63430008180033","abi":[{"anonymous":false,"inputs":[{"indexed":false,"internalType":"address","name":"previousAdmin","type":"address"},{"indexed":false,"internalType":"address","name":"newAdmin","type":"address"}],"name":"AdminChanged","type":"event"},{"anonymous":false,"inputs":[{"indexed":true,"internalType":"address","name":"owner","type":"address"},{"indexed":true,"internalType":"address","name":"spender","type":"address"},{"indexed":false,"internalType":"uint256","name":"value","type":"uint256"}],"name":"Approval","type":"event"},{"anonymous":false,"inputs":[{"indexed":true,"internalType":"address","name":"beacon","type":"address"}],"name":"BeaconUpgraded","type":"event"},{"anonymous":false,"inputs":[{"indexed":true,"internalType":"address","name":"redeemer","type":"address"},{"indexed":false,"internalType":"uint256","name":"gssAmount","type":"uint256"},{"indexed":false,"internalType":"uint256","name":"usdcValue","type":"uint256"}],"name":"CashRedemption","type":"event"},{"anonymous":false,"inputs":[{"indexed":false,"internalType":"uint8","name":"version","type":"uint8"}],"name":"Initialized","type":"event"},{"anonymous":false,"inputs":[{"indexed":true,"internalType":"address","name":"member","type":"address"},{"indexed":false,"internalType":"bool","name":"annual","type":"bool"},{"indexed":false,"internalType":"uint256","name":"expiry","type":"uint256"}],"name":"MembershipPurchased","type":"event"},{"anonymous":false,"inputs":[{"indexed":true,"internalType":"address","name":"previousOwner","type":"address"},{"indexed":true,"internalType":"address","name":"newOwner","type":"address"}],"name":"OwnershipTransferred","type":"event"},{"anonymous":false,"inputs":[{"indexed":false,"internalType":"address","name":"account","type":"address"}],"name":"Paused","type":"event"},{"anonymous":false,"inputs":[{"indexed":true,"internalType":"address","name":"requester","type":"address"},{"indexed":false,"internalType":"uint256","name":"gssAmount","type":"uint256"},{"indexed":false,"internalType":"string","name":"deliveryInfo","type":"string"},{"indexed":false,"internalType":"uint256","name":"timestamp","type":"uint256"}],"name":"PhysicalDeliveryRequested","type":"event"},{"anonymous":false,"inputs":[{"indexed":true,"internalType":"address","name":"pioneer","type":"address"},{"indexed":false,"internalType":"uint256","name":"timestamp","type":"uint256"}],"name":"PioneerTransitionedToMember","type":"event"},{"anonymous":false,"inputs":[{"indexed":true,"internalType":"address","name":"referrer","type":"address"},{"indexed":true,"internalType":"address","name":"buyer","type":"address"}],"name":"ReferralRecorded","type":"event"},{"anonymous":false,"inputs":[{"indexed":true,"internalType":"address","name":"referrer","type":"address"},{"indexed":false,"internalType":"uint256","name":"gssAmount","type":"uint256"}],"name":"ReferralRewardEarned","type":"event"},{"anonymous":false,"inputs":[{"indexed":true,"internalType":"address","name":"buyer","type":"address"},{"indexed":false,"internalType":"uint256","name":"weiSent","type":"uint256"},{"indexed":false,"internalType":"uint256","name":"gramsMinted","type":"uint256"},{"indexed":false,"internalType":"uint256","name":"silverPriceUSD","type":"uint256"}],"name":"SilverPurchased","type":"event"},{"anonymous":false,"inputs":[{"indexed":true,"internalType":"address","name":"from","type":"address"},{"indexed":false,"internalType":"uint256","name":"amount","type":"uint256"}],"name":"TokensBurned","type":"event"},{"anonymous":false,"inputs":[{"indexed":true,"internalType":"address","name":"from","type":"address"},{"indexed":true,"internalType":"address","name":"to","type":"address"},{"indexed":false,"internalType":"uint256","name":"value","type":"uint256"}],"name":"Transfer","type":"event"},{"anonymous":false,"inputs":[{"indexed":false,"internalType":"address","name":"account","type":"address"}],"name":"Unpaused","type":"event"},{"anonymous":false,"inputs":[{"indexed":true,"internalType":"address","name":"implementation","type":"address"}],"name":"Upgraded","type":"event"},{"inputs":[{"internalType":"address","name":"owner","type":"address"},{"internalType":"address","name":"spender","type":"address"}],"name":"allowance","outputs":[{"internalType":"uint256","name":"","type":"uint256"}],"stateMutability":"view","type":"function"},{"inputs":[],"name":"annualMembershipPrice","outputs":[{"internalType":"uint256","name":"","type":"uint256"}],"stateMutability":"view","type":"function"},{"inputs":[{"internalType":"address","name":"spender","type":"address"},{"internalType":"uint256","name":"amount","type":"uint256"}],"name":"approve","outputs":[{"internalType":"bool","name":"","type":"bool"}],"stateMutability":"nonpayable","type":"function"},{"inputs":[{"internalType":"address","name":"account","type":"address"}],"name":"balanceOf","outputs":[{"internalType":"uint256","name":"","type":"uint256"}],"stateMutability":"view","type":"function"},{"inputs":[],"name":"claimReferralRewards","outputs":[],"stateMutability":"nonpayable","type":"function"},{"inputs":[],"name":"decimals","outputs":[{"internalType":"uint8","name":"","type":"uint8"}],"stateMutability":"view","type":"function"},{"inputs":[{"internalType":"address","name":"spender","type":"address"},{"internalType":"uint256","name":"subtractedValue","type":"uint256"}],"name":"decreaseAllowance","outputs":[{"internalType":"bool","name":"","type":"bool"}],"stateMutability":"nonpayable","type":"function"},{"inputs":[{"internalType":"address","name":"","type":"address"}],"name":"feeExempt","outputs":[{"internalType":"bool","name":"","type":"bool"}],"stateMutability":"view","type":"function"},{"inputs":[{"internalType":"address","name":"spender","type":"address"},{"internalType":"uint256","name":"addedValue","type":"uint256"}],"name":"increaseAllowance","outputs":[{"internalType":"bool","name":"","type":"bool"}],"stateMutability":"nonpayable","type":"function"},{"inputs":[{"internalType":"address","name":"_protocol","type":"address"},{"internalType":"uint256","name":"_monthlyMembershipWei","type":"uint256"}],"name":"initialize","outputs":[],"stateMutability":"nonpayable","type":"function"},{"inputs":[{"internalType":"address","name":"user","type":"address"}],"name":"isMember","outputs":[{"internalType":"bool","name":"","type":"bool"}],"stateMutability":"view","type":"function"},{"inputs":[{"internalType":"address","name":"","type":"address"}],"name":"membershipExpiry","outputs":[{"internalType":"uint256","name":"","type":"uint256"}],"stateMutability":"view","type":"function"},{"inputs":[],"name":"monthlyMembershipPrice","outputs":[{"internalType":"uint256","name":"","type":"uint256"}],"stateMutability":"view","type":"function"},{"inputs":[],"name":"name","outputs":[{"internalType":"string","name":"","type":"string"}],"stateMutability":"view","type":"function"},{"inputs":[],"name":"owner","outputs":[{"internalType":"address","name":"","type":"address"}],"stateMutability":"view","type":"function"},{"inputs":[],"name":"pause","outputs":[],"stateMutability":"nonpayable","type":"function"},{"inputs":[],"name":"paused","outputs":[{"internalType":"bool","name":"","type":"bool"}],"stateMutability":"view","type":"function"},{"inputs":[],"name":"protocol","outputs":[{"internalType":"contract IGaiaSpeakProtocolSilver","name":"","type":"address"}],"stateMutability":"view","type":"function"},{"inputs":[],"name":"proxiableUUID","outputs":[{"internalType":"bytes32","name":"","type":"bytes32"}],"stateMutability":"view","type":"function"},{"inputs":[{"internalType":"bool","name":"annual","type":"bool"}],"name":"purchaseMembership","outputs":[],"stateMutability":"payable","type":"function"},{"inputs":[{"internalType":"address","name":"referrer","type":"address"}],"name":"purchaseTokens","outputs":[],"stateMutability":"payable","type":"function"},{"inputs":[{"internalType":"uint256","name":"gssAmount","type":"uint256"}],"name":"redeemForUSDC","outputs":[],"stateMutability":"nonpayable","type":"function"},{"inputs":[{"internalType":"address","name":"","type":"address"}],"name":"referralCount","outputs":[{"internalType":"uint256","name":"","type":"uint256"}],"stateMutability":"view","type":"function"},{"inputs":[{"internalType":"address","name":"","type":"address"}],"name":"referralRewardsPending","outputs":[{"internalType":"uint256","name":"","type":"uint256"}],"stateMutability":"view","type":"function"},{"inputs":[{"internalType":"address","name":"","type":"address"}],"name":"referredBy","outputs":[{"internalType":"address","name":"","type":"address"}],"stateMutability":"view","type":"function"},{"inputs":[],"name":"renounceOwnership","outputs":[],"stateMutability":"nonpayable","type":"function"},{"inputs":[{"internalType":"uint256","name":"gssAmount","type":"uint256"},{"internalType":"string","name":"deliveryInfo","type":"string"}],"name":"requestPhysicalDelivery","outputs":[],"stateMutability":"nonpayable","type":"function"},{"inputs":[{"internalType":"address","name":"addr","type":"address"},{"internalType":"bool","name":"exempt","type":"bool"}],"name":"setFeeExempt","outputs":[],"stateMutability":"nonpayable","type":"function"},{"inputs":[{"internalType":"uint256","name":"monthly","type":"uint256"},{"internalType":"uint256","name":"annual","type":"uint256"}],"name":"setMembershipPrices","outputs":[],"stateMutability":"nonpayable","type":"function"},{"inputs":[],"name":"symbol","outputs":[{"internalType":"string","name":"","type":"string"}],"stateMutability":"view","type":"function"},{"inputs":[],"name":"totalSupply","outputs":[{"internalType":"uint256","name":"","type":"uint256"}],"stateMutability":"view","type":"function"},{"inputs":[{"internalType":"address","name":"to","type":"address"},{"internalType":"uint256","name":"amount","type":"uint256"}],"name":"transfer","outputs":[{"internalType":"bool","name":"","type":"bool"}],"stateMutability":"nonpayable","type":"function"},{"inputs":[{"internalType":"address","name":"from","type":"address"},{"internalType":"address","name":"to","type":"address"},{"internalType":"uint256","name":"amount","type":"uint256"}],"name":"transferFrom","outputs":[{"internalType":"bool","name":"","type":"bool"}],"stateMutability":"nonpayable","type":"function"},{"inputs":[{"internalType":"address","name":"newOwner","type":"address"}],"name":"transferOwnership","outputs":[],"stateMutability":"nonpayable","type":"function"},{"inputs":[],"name":"unpause","outputs":[],"stateMutability":"nonpayable","type":"function"},{"inputs":[{"internalType":"address","name":"newImplementation","type":"address"}],"name":"upgradeTo","outputs":[],"stateMutability":"nonpayable","type":"function"},{"inputs":[{"internalType":"address","name":"newImplementation","type":"address"},{"internalType":"bytes","name":"data","type":"bytes"}],"name":"upgradeToAndCall","outputs":[],"stateMutability":"payable","type":"function"}]}