{"address":"0x3fBf119523b2B16cD82C994502CFC8905AccFDCd","bytecode":"0x60a06040523060805234801561001457600080fd5b50608051615f0f6200004d600039600081816117bf015281816117ff01528181611cdb01528181611d1b01526126ff0152615f0f6000f3fe6080604052600436106102e45760003560e01c806375cb1bd111610190578063b88d4fde116100dc578063de74e57b11610095578063e985e9c51161006f578063e985e9c5146109b2578063f2fde38b146109fb578063fa3c30a814610a1b578063fcce488314610a4957600080fd5b8063de74e57b14610911578063e0e8bd971461096b578063e3a96cbd1461098057600080fd5b8063b88d4fde1461084f578063c87b56dd1461086f578063cb917b9c1461088f578063d03cea6d146108af578063d5d1e436146108d0578063d9bdc563146108f057600080fd5b8063a22cb46511610149578063a76a2fcb11610123578063a76a2fcb146107bd578063a78e13d4146107de578063ab858056146107fe578063add150bc1461081e57600080fd5b8063a22cb46514610767578063a2309ff814610787578063a23d3c351461079c57600080fd5b806375cb1bd1146106b257806378c639c4146106d25780638da5cb5b146106f257806395d89b41146107115780639cfff014146107265780639fd4ae4d1461074757600080fd5b80633659cfe61161024f57806352d1902d116102085780635cbdf28e116101e25780635cbdf28e146105dd5780636352211e1461065d57806370a082311461067d578063715018a61461069d57600080fd5b806352d1902d1461056f578063564a565d146105925780635c975abb146105c557600080fd5b80633659cfe6146104c757806336f691c4146104e75780633f4ba83a1461050757806342842e0e1461051c5780634f1ef2861461053c57806351ed82881461054f57600080fd5b806313a6c05f116102a157806313a6c05f146103eb5780631459457a1461042657806318af61be146104465780631d91dba91461046757806323b872dd146104875780632840662d146104a757600080fd5b806301ffc9a7146102e957806306fdde031461031e578063071bb94314610340578063081812fc14610362578063095ea7b31461039a578063107a274a146103ba575b600080fd5b3480156102f557600080fd5b506103096103043660046150b8565b610a82565b60405190151581526020015b60405180910390f35b34801561032a57600080fd5b50610333610a93565b6040516103159190615125565b34801561034c57600080fd5b5061036061035b366004615138565b610b25565b005b34801561036e57600080fd5b5061038261037d366004615138565b610e25565b6040516001600160a01b039091168152602001610315565b3480156103a657600080fd5b506103606103b536600461516d565b610e4c565b3480156103c657600080fd5b506103da6103d5366004615138565b610f61565b6040516103159594939291906151c1565b3480156103f757600080fd5b5061040b610406366004615138565b61101e565b60408051938452602084019290925290820152606001610315565b34801561043257600080fd5b506103606104413660046151f8565b61104a565b34801561045257600080fd5b506101c754610382906001600160a01b031681565b34801561047357600080fd5b5061036061048236600461526b565b6113d0565b34801561049357600080fd5b506103606104a23660046152a2565b61147d565b3480156104b357600080fd5b506103606104c2366004615327565b6114ae565b3480156104d357600080fd5b506103606104e2366004615383565b6117b5565b3480156104f357600080fd5b5061036061050236600461539e565b611891565b34801561051357600080fd5b50610360611ca4565b34801561052857600080fd5b506103606105373660046152a2565b611cb6565b61036061054a36600461548d565b611cd1565b34801561055b57600080fd5b5061036061056a366004615138565b611da1565b34801561057b57600080fd5b506105846126f2565b604051908152602001610315565b34801561059e57600080fd5b506105b26105ad366004615138565b6127a5565b60405161031597969594939291906154eb565b3480156105d157600080fd5b5060fb5460ff16610309565b3480156105e957600080fd5b5061064a6105f8366004615138565b6101cb602052600090815260409020805460018201546002830154600384015460048501546005909501546001600160a01b03948516959490931693919260ff91821692918082169161010090041687565b6040516103159796959493929190615550565b34801561066957600080fd5b50610382610678366004615138565b612907565b34801561068957600080fd5b50610584610698366004615383565b612967565b3480156106a957600080fd5b506103606129ed565b3480156106be57600080fd5b506103606106cd36600461559c565b6129ff565b3480156106de57600080fd5b506105846106ed3660046155ee565b612b88565b3480156106fe57600080fd5b5061012d546001600160a01b0316610382565b34801561071d57600080fd5b50610333612fce565b34801561073257600080fd5b506101c554610382906001600160a01b031681565b34801561075357600080fd5b5061036061076236600461564b565b612fdd565b34801561077357600080fd5b5061036061078236600461526b565b613364565b34801561079357600080fd5b5061058461336f565b3480156107a857600080fd5b506101c654610382906001600160a01b031681565b3480156107c957600080fd5b506101c354610382906001600160a01b031681565b3480156107ea57600080fd5b506105846107f9366004615677565b613386565b34801561080a57600080fd5b50610360610819366004615327565b613547565b34801561082a57600080fd5b50610309610839366004615383565b6101ce6020526000908152604090205460ff1681565b34801561085b57600080fd5b5061036061086a3660046156b9565b61383a565b34801561087b57600080fd5b5061033361088a366004615138565b61386c565b34801561089b57600080fd5b506103606108aa366004615138565b613877565b3480156108bb57600080fd5b506101c454610382906001600160a01b031681565b3480156108dc57600080fd5b506103606108eb366004615383565b61399a565b3480156108fc57600080fd5b506101c854610382906001600160a01b031681565b34801561091d57600080fd5b506103da61092c366004615138565b6101ca6020526000908152604090208054600182015460028301546003909301546001600160a01b0390921692909160ff808316926101009004169085565b34801561097757600080fd5b50610360613a43565b34801561098c57600080fd5b506109a061099b366004615138565b613bc4565b60405161031596959493929190615721565b3480156109be57600080fd5b506103096109cd36600461577f565b6001600160a01b039182166000908152606a6020908152604080832093909416825291909152205460ff1690565b348015610a0757600080fd5b50610360610a16366004615383565b613db1565b348015610a2757600080fd5b50610584610a36366004615383565b6101cd6020526000908152604090205481565b348015610a5557600080fd5b50610309610a64366004615138565b60009081526101ca6020526040902060020154610100900460ff1690565b6000610a8d82613e27565b92915050565b606060658054610aa2906157b2565b80601f0160208091040260200160405190810160405280929190818152602001828054610ace906157b2565b8015610b1b5780601f10610af057610100808354040283529160200191610b1b565b820191906000526020600020905b815481529060010190602001808311610afe57829003601f168201915b5050505050905090565b610b2d613e4c565b610b35613ea5565b60008181526101cc602090815260408083206101cb9092529091206002600383015460ff166004811115610b6b57610b6b615197565b14610bd45760405162461bcd60e51b815260206004820152602e60248201527f43616e206f6e6c792061707065616c2061207265736f6c7574696f6e20696e2060448201526d313abcb2b913b9903330bb37bab960911b60648201526084015b60405180910390fd5b6003820154610100900460ff1615610c255760405162461bcd60e51b8152602060048201526014602482015273105c1c19585b08185b1c9958591e48199a5b195960621b6044820152606401610bcb565b60018101546001600160a01b03163314610c965760405162461bcd60e51b815260206004820152602c60248201527f4f6e6c7920746865206f726967696e616c2063726561746f722063616e20666960448201526b1b1948185b88185c1c19585b60a21b6064820152608401610bcb565b60006001600383015460ff166001811115610cb357610cb3615197565b14610cca576101c4546001600160a01b0316610cd8565b6101c5546001600160a01b03165b6040516323b872dd60e01b81523360048201523060248201526706f05b59d3b2000060448201529091506001600160a01b038216906323b872dd906064016020604051808303816000875af1158015610d35573d6000803e3d6000fd5b505050506040513d601f19601f82011682018060405250810190610d5991906157ec565b610dbf5760405162461bcd60e51b815260206004820152603160248201527f41707065616c20666565207472616e73666572206661696c6564202d2063686560448201527018dac81d1bdad95b88185c1c1c9bdd985b607a1b6064820152608401610bcb565b60038301805442600486015561ffff1916610104179055604080516706f05b59d3b2000081529051339186917fbfdd126aa68997c487fe8561c1cc0a22983ae083ff4ef28bb6530750f64803dc9181900360200190a3505050610e22600160c955565b50565b6000610e3082613ef2565b506000908152606960205260409020546001600160a01b031690565b6000610e5782612907565b9050806001600160a01b0316836001600160a01b031603610ec45760405162461bcd60e51b815260206004820152602160248201527f4552433732313a20617070726f76616c20746f2063757272656e74206f776e656044820152603960f91b6064820152608401610bcb565b336001600160a01b0382161480610ee05750610ee081336109cd565b610f525760405162461bcd60e51b815260206004820152603d60248201527f4552433732313a20617070726f76652063616c6c6572206973206e6f7420746f60448201527f6b656e206f776e6572206f7220617070726f76656420666f7220616c6c0000006064820152608401610bcb565b610f5c8383613f51565b505050565b60008181526101ca60209081526040808320815160a08101835281546001600160a01b03168152600180830154948201949094526002820154859485948594859485949093919284019160ff90911690811115610fc057610fc0615197565b6001811115610fd157610fd1615197565b81526002820154610100900460ff161515602080830191909152600390920154604091820152825191830151908301516060840151608090940151929b919a509850919650945092505050565b600080600061102c84613fbf565b925061103784613fda565b915061104284613fda565b929491935050565b600054610100900460ff161580801561106a5750600054600160ff909116105b806110845750303b158015611084575060005460ff166001145b6110e75760405162461bcd60e51b815260206004820152602e60248201527f496e697469616c697a61626c653a20636f6e747261637420697320616c72656160448201526d191e481a5b9a5d1a585b1a5e995960921b6064820152608401610bcb565b6000805460ff19166001179055801561110a576000805461ff0019166101001790555b61115a6040518060400160405280601181526020017011d85a5854dc19585ac810dbdb9d195b9d607a1b8152506040518060400160405280600581526020016411d4d3919560da1b815250613feb565b61116261401c565b61116a614043565b611172614072565b61117a6140a1565b61118261401c565b6001600160a01b0386166111d15760405162461bcd60e51b815260206004820152601660248201527516995c9bc81859191c995cdcce881c1c9bdd1bd8dbdb60521b6044820152606401610bcb565b6001600160a01b0385166112275760405162461bcd60e51b815260206004820152601860248201527f5a65726f20616464726573733a20676f6c6420746f6b656e00000000000000006044820152606401610bcb565b6001600160a01b0384166112755760405162461bcd60e51b81526020600482015260156024820152742d32b9379030b2323932b9b99d103337bab73232b960591b6044820152606401610bcb565b6001600160a01b0383166112cb5760405162461bcd60e51b815260206004820152601a60248201527f5a65726f20616464726573733a20676f6c6420726573657276650000000000006044820152606401610bcb565b6001600160a01b0382166113215760405162461bcd60e51b815260206004820152601c60248201527f5a65726f20616464726573733a2073696c7665722072657365727665000000006044820152606401610bcb565b6101c380546001600160a01b03199081166001600160a01b03898116919091179092556101c4805482168884161790556101c6805482168784161790556101c7805482168684161790556101c8805490911691841691909117905560016101c95580156113c8576000805461ff0019169055604051600181527f7f26b83ff96e1f2b6a682f133852f6798a09c465da95921460cefb38474024989060200160405180910390a15b505050505050565b6113d86140d0565b6001600160a01b03821661141d5760405162461bcd60e51b815260206004820152600c60248201526b5a65726f206164647265737360a01b6044820152606401610bcb565b6001600160a01b03821660008181526101ce6020908152604091829020805460ff191685151590811790915591519182527f4f0d405966389fffcab3db6b73b085fcb3e053164ce37766fd6b5bd57f848aa6910160405180910390a25050565b611487338261412b565b6114a35760405162461bcd60e51b8152600401610bcb90615809565b610f5c8383836141a9565b6114b66140d0565b6114be613e4c565b60008481526101cc602090815260408083206101cb9092529091206001600383015460ff1660048111156114f4576114f4615197565b146115415760405162461bcd60e51b815260206004820152601e60248201527f4e6f206f70656e206469737075746520666f72207468697320746f6b656e00006044820152606401610bcb565b8261158a5760405162461bcd60e51b815260206004820152601960248201527814995cdbdb1d5d1a5bdb881b9bdd195cc81c995c5d5a5c9959603a1b6044820152606401610bcb565b841561172c5760006001600383015460ff1660018111156115ad576115ad615197565b146115c4576101c4546001600160a01b03166115d2565b6101c5546001600160a01b03165b905060006115e38360020154613fbf565b6040516370a0823160e01b81523060048201529091506000906001600160a01b038416906370a0823190602401602060405180830381865afa15801561162d573d6000803e3d6000fd5b505050506040513d601f19601f820116820180604052508101906116519190615856565b905081811061171557835460405163a9059cbb60e01b81526001600160a01b039182166004820152602481018490529084169063a9059cbb906044016020604051808303816000875af11580156116ac573d6000803e3d6000fd5b505050506040513d601f19601f820116820180604052508101906116d091906157ec565b6117155760405162461bcd60e51b81526020600482015260166024820152751499599d5b99081d1c985b9cd9995c8819985a5b195960521b6044820152606401610bcb565b50505060038201805460ff1916600217905561173d565b6003828101805460ff191690911790555b6005820161174c8486836158b7565b5060058101805461ff001916610100179055600382015460405187917fc204352fad7e46251e09ce83e05533737044b65128eb8926aac1969fbe2be2679161179b9160ff1690889088906159a1565b60405180910390a250506117af600160c955565b50505050565b6001600160a01b037f00000000000000000000000000000000000000000000000000000000000000001630036117fd5760405162461bcd60e51b8152600401610bcb906159cb565b7f00000000000000000000000000000000000000000000000000000000000000006001600160a01b0316611846600080516020615e93833981519152546001600160a01b031690565b6001600160a01b03161461186c5760405162461bcd60e51b8152600401610bcb90615a17565b6118758161430d565b60408051600080825260208201909252610e2291839190614315565b611899613e4c565b6118a1613ea5565b60008381526101cb6020526040902080546001600160a01b03166119075760405162461bcd60e51b815260206004820152601d60248201527f4e6f2073616c65207265636f726420666f72207468697320746f6b656e0000006044820152606401610bcb565b80546001600160a01b0316331461196a5760405162461bcd60e51b815260206004820152602160248201527f4f6e6c79207468652062757965722063616e206f70656e2061206469737075746044820152606560f81b6064820152608401610bcb565b600581015460ff16156119b85760405162461bcd60e51b8152602060048201526016602482015275111a5cdc1d5d1948185b1c9958591e481bdc195b995960521b6044820152606401610bcb565b6005810154610100900460ff1615611a0a5760405162461bcd60e51b815260206004820152601560248201527414d85b1948185b1c9958591e481c995cdbdb1d9959605a1b6044820152606401610bcb565b611a178160040154614480565b611a7d5760405162461bcd60e51b815260206004820152603160248201527f446973707574652077696e646f772068617320636c6f73656420283720646179604482015270732061667465722070757263686173652960781b6064820152608401610bcb565b81611aca5760405162461bcd60e51b815260206004820152601e60248201527f4469737075746520726561736f6e2063616e6e6f7420626520656d70747900006044820152606401610bcb565b6101f4821115611b1c5760405162461bcd60e51b815260206004820152601f60248201527f526561736f6e20746f6f206c6f6e6720286d61782035303020636861727329006044820152606401610bcb565b60058101805460ff191660011790556040805160e08101825233815281516020601f860181900481028201810190935284815290918083019190869086908190840183828082843760009201919091525050509082525042602082015260400160018152600060208083018290526040808401839052805180830182528381526060909401939093528782526101cc8152919020825181546001600160a01b0319166001600160a01b03909116178155908201516001820190611bdf9082615a63565b5060408201516002820155606082015160038201805460ff19166001836004811115611c0d57611c0d615197565b021790555060808201516003820180549115156101000261ff001990921691909117905560a0820151600482015560c08201516005820190611c4f9082615a63565b50905050336001600160a01b0316847f9ba592891920c93074eb53d5a05f624599949799402552946403a669e040dccc858542604051611c9193929190615b23565b60405180910390a350610f5c600160c955565b611cac6140d0565b611cb4614498565b565b610f5c8383836040518060200160405280600081525061383a565b6001600160a01b037f0000000000000000000000000000000000000000000000000000000000000000163003611d195760405162461bcd60e51b8152600401610bcb906159cb565b7f00000000000000000000000000000000000000000000000000000000000000006001600160a01b0316611d62600080516020615e93833981519152546001600160a01b031690565b6001600160a01b031614611d885760405162461bcd60e51b8152600401610bcb90615a17565b611d918261430d565b611d9d82826001614315565b5050565b611da9613e4c565b611db1613ea5565b6101c360009054906101000a90046001600160a01b03166001600160a01b0316635c975abb6040518163ffffffff1660e01b8152600401602060405180830381865afa158015611e05573d6000803e3d6000fd5b505050506040513d601f19601f82011682018060405250810190611e2991906157ec565b15611e465760405162461bcd60e51b8152600401610bcb90615b47565b6101c354604080516316fd755360e21b815290516004926001600160a01b031691635bf5d54c918185019160209190819003860181865afa158015611e8f573d6000803e3d6000fd5b505050506040513d601f19601f82011682018060405250810190611eb39190615b73565b6005811115611ec457611ec4615197565b03611ee15760405162461bcd60e51b8152600401610bcb90615b94565b60008181526101ca60205260409020600201548190610100900460ff16611f4a5760405162461bcd60e51b815260206004820152601a60248201527f4e4654206973206e6f74206c697374656420666f722073616c650000000000006044820152606401610bcb565b60008281526101ca60209081526040808320815160a08101835281546001600160a01b031681526001808301549482019490945260028201549093919284019160ff90911690811115611f9f57611f9f615197565b6001811115611fb057611fb0615197565b81526002820154610100900460ff161515602082015260039091015460409091015290506000611fdf84612907565b90506001600160a01b03811633036120395760405162461bcd60e51b815260206004820152601760248201527f43616e6e6f742062757920796f7572206f776e204e46540000000000000000006044820152606401610bcb565b60008481526101cc602052604081206003015460ff16600481111561206057612060615197565b14806120925750600260008581526101cc602052604090206003015460ff16600481111561209057612090615197565b145b806120c35750600360008581526101cc602052604090206003015460ff1660048111156120c1576120c1615197565b145b61211b5760405162461bcd60e51b8152602060048201526024808201527f4e46542068617320616e20756e7265736f6c76656420616374697665206469736044820152637075746560e01b6064820152608401610bcb565b60008060018460400151600181111561213657612136615197565b036121b0576101c5546001600160a01b03166121945760405162461bcd60e51b815260206004820152601b60248201527f53696c76657220746f6b656e206e6f7420636f6e6669677572656400000000006044820152606401610bcb565b50506101c5546101c8546001600160a01b0391821691166121c8565b50506101c4546101c7546001600160a01b0391821691165b602084015160006121d882613fbf565b905060006121e583613fda565b905060006121f284613fda565b905083816122008486615bfb565b61220a9190615bfb565b1461221757612217615c0e565b6040516323b872dd60e01b8152336004820152306024820152604481018590526001600160a01b038716906323b872dd906064016020604051808303816000875af115801561226a573d6000803e3d6000fd5b505050506040513d601f19601f8201168201806040525081019061228e91906157ec565b6122f45760405162461bcd60e51b815260206004820152603160248201527f546f6b656e207472616e736665722066726f6d206275796572206661696c6564604482015270080b4818da1958dac8185c1c1c9bdd985b607a1b6064820152608401610bcb565b60008a81526101ca60205260409020600201805461ff001916905561231a87338c6141a9565b875160405163a9059cbb60e01b81526001600160a01b039182166004820152602481018590529087169063a9059cbb906044016020604051808303816000875af115801561236c573d6000803e3d6000fd5b505050506040513d601f19601f8201168201806040525081019061239091906157ec565b6123d55760405162461bcd60e51b815260206004820152601660248201527510dc99585d1bdc881c185e5b595b9d0819985a5b195960521b6044820152606401610bcb565b6101c65460405163a9059cbb60e01b81526001600160a01b039182166004820152602481018490529087169063a9059cbb906044016020604051808303816000875af1158015612429573d6000803e3d6000fd5b505050506040513d601f19601f8201168201806040525081019061244d91906157ec565b6124925760405162461bcd60e51b8152602060048201526016602482015275119bdd5b99195c881c185e5b595b9d0819985a5b195960521b6044820152606401610bcb565b60405163a9059cbb60e01b81526001600160a01b0386811660048301526024820183905287169063a9059cbb906044016020604051808303816000875af11580156124e1573d6000803e3d6000fd5b505050506040513d601f19601f8201168201806040525081019061250591906157ec565b61254a5760405162461bcd60e51b815260206004820152601660248201527514995cd95c9d99481c185e5b595b9d0819985a5b195960521b6044820152606401610bcb565b6040805160e08101825233815289516001600160a01b03166020820152808201869052908901516060820190600181111561258757612587615197565b8152426020808301919091526000604080840182905260609384018290528e82526101cb835290819020845181546001600160a01b039182166001600160a01b031991821617835593860151600183810180549290931691909516179055908401516002820155918301516003830180549192909160ff191690838181111561261257612612615197565b02179055506080820151600482015560a08201516005909101805460c09093015115156101000261ff00199215159290921661ffff199093169290921717905587516001600160a01b031660009081526101cd60205260408120805485929061267c908490615bfb565b9250508190555087600001516001600160a01b0316336001600160a01b03168b7fbebc0c10aa196863e905f076f0e17dc4fe44a1aaf864de0b0d8996cfa0185185878c604001518888886040516126d7959493929190615c24565b60405180910390a4505050505050505050610e22600160c955565b6000306001600160a01b037f000000000000000000000000000000000000000000000000000000000000000016146127925760405162461bcd60e51b815260206004820152603860248201527f555550535570677261646561626c653a206d757374206e6f742062652063616c60448201527f6c6564207468726f7567682064656c656761746563616c6c00000000000000006064820152608401610bcb565b50600080516020615e9383398151915290565b6101cc60205260009081526040902080546001820180546001600160a01b0390921692916127d2906157b2565b80601f01602080910402602001604051908101604052809291908181526020018280546127fe906157b2565b801561284b5780601f106128205761010080835404028352916020019161284b565b820191906000526020600020905b81548152906001019060200180831161282e57829003601f168201915b505050506002830154600384015460048501546005860180549596939560ff8085169650610100909404909316939192612884906157b2565b80601f01602080910402602001604051908101604052809291908181526020018280546128b0906157b2565b80156128fd5780601f106128d2576101008083540402835291602001916128fd565b820191906000526020600020905b8154815290600101906020018083116128e057829003601f168201915b5050505050905087565b6000818152606760205260408120546001600160a01b031680610a8d5760405162461bcd60e51b8152602060048201526018602482015277115490cdcc8c4e881a5b9d985b1a59081d1bdad95b88125160421b6044820152606401610bcb565b60006001600160a01b0382166129d15760405162461bcd60e51b815260206004820152602960248201527f4552433732313a2061646472657373207a65726f206973206e6f7420612076616044820152683634b21037bbb732b960b91b6064820152608401610bcb565b506001600160a01b031660009081526068602052604090205490565b6129f56140d0565b611cb460006144ea565b612a076140d0565b6001600160a01b038316612a555760405162461bcd60e51b81526020600482015260156024820152742d32b9379030b2323932b9b99d103337bab73232b960591b6044820152606401610bcb565b6001600160a01b038216612aab5760405162461bcd60e51b815260206004820152601a60248201527f5a65726f20616464726573733a20676f6c6420726573657276650000000000006044820152606401610bcb565b6001600160a01b038116612b015760405162461bcd60e51b815260206004820152601c60248201527f5a65726f20616464726573733a2073696c7665722072657365727665000000006044820152606401610bcb565b6101c680546001600160a01b038581166001600160a01b031992831681179093556101c7805486831690841681179091556101c88054928616929093168217909255604080519384526020840192909252908201527f2d4c6aa48812a0ea09474a961613c1a3ae652d39a1580cb1ac46ff277e6d385d9060600160405180910390a1505050565b6000612b92613e4c565b612b9a613ea5565b6101c360009054906101000a90046001600160a01b03166001600160a01b0316635c975abb6040518163ffffffff1660e01b8152600401602060405180830381865afa158015612bee573d6000803e3d6000fd5b505050506040513d601f19601f82011682018060405250810190612c1291906157ec565b15612c2f5760405162461bcd60e51b8152600401610bcb90615b47565b6101c354604080516316fd755360e21b815290516004926001600160a01b031691635bf5d54c918185019160209190819003860181865afa158015612c78573d6000803e3d6000fd5b505050506040513d601f19601f82011682018060405250810190612c9c9190615b73565b6005811115612cad57612cad615197565b03612cca5760405162461bcd60e51b8152600401610bcb90615b94565b83612d175760405162461bcd60e51b815260206004820152601c60248201527f4d65746164617461205552492063616e6e6f7420626520656d707479000000006044820152606401610bcb565b612d288366038d7ea4c68000111590565b612d7e5760405162461bcd60e51b815260206004820152602160248201527f50726963652062656c6f77206d696e696d756d2028302e30303120746f6b656e6044820152602960f81b6064820152608401610bcb565b6001826001811115612d9257612d92615197565b03612e0b576101c5546001600160a01b0316612e0b5760405162461bcd60e51b815260206004820152603260248201527f53696c76657220746f6b656e206e6f742079657420636f6e66696775726564206044820152712d2075736520474f4c44206c697374696e6760701b6064820152608401610bcb565b6101c98054906000612e1c83615c54565b919050559050612e2c338261453d565b612e6c8186868080601f01602080910402602001604051908101604052809392919081815260200183838082843760009201919091525061455792505050565b6040518060a00160405280336001600160a01b03168152602001848152602001836001811115612e9e57612e9e615197565b8152600160208083018290524260409384015260008581526101ca8252839020845181546001600160a01b0319166001600160a01b039091161781559084015181830155918301516002830180549192909160ff1916908381811115612f0657612f06615197565b021790555060608201516002820180549115156101000261ff0019909216919091179055608090910151600390910155604051339082907fcc0edaa41c0995bda18c82b6d92cc4c4c808bec64fe9b77064415d135d102b9090612f70908990899089908990615c6d565b60405180910390a3336001600160a01b0316817f046fec59dfefb3341991b94fead75ead40c649a0327dbb503eee498e9e1bcbed8585604051612fb4929190615c96565b60405180910390a3612fc6600160c955565b949350505050565b606060668054610aa2906157b2565b612fe5613e4c565b612fed613ea5565b6101c360009054906101000a90046001600160a01b03166001600160a01b0316635c975abb6040518163ffffffff1660e01b8152600401602060405180830381865afa158015613041573d6000803e3d6000fd5b505050506040513d601f19601f8201168201806040525081019061306591906157ec565b156130825760405162461bcd60e51b8152600401610bcb90615b47565b823361308d82612907565b6001600160a01b0316146130e35760405162461bcd60e51b815260206004820152601c60248201527f43616c6c657220646f6573206e6f74206f776e2074686973204e4654000000006044820152606401610bcb565b60008481526101ca6020526040902060020154610100900460ff161561314b5760405162461bcd60e51b815260206004820152601d60248201527f416c7265616479206c6973746564202d2064656c6973742066697273740000006044820152606401610bcb565b61315c8366038d7ea4c68000111590565b61319e5760405162461bcd60e51b815260206004820152601360248201527250726963652062656c6f77206d696e696d756d60681b6044820152606401610bcb565b60018260018111156131b2576131b2615197565b03613210576101c5546001600160a01b03166132105760405162461bcd60e51b815260206004820152601b60248201527f53696c76657220746f6b656e206e6f7420636f6e6669677572656400000000006044820152606401610bcb565b60008481526101ca60205260408120546001600160a01b03161561324c5760008581526101ca60205260409020546001600160a01b031661324e565b335b90506040518060a00160405280826001600160a01b0316815260200185815260200184600181111561328257613282615197565b8152600160208083018290524260409384015260008981526101ca8252839020845181546001600160a01b0319166001600160a01b039091161781559084015181830155918301516002830180549192909160ff19169083818111156132ea576132ea615197565b021790555060608201516002820180549115156101000261ff0019909216919091179055608090910151600390910155604051339086907f046fec59dfefb3341991b94fead75ead40c649a0327dbb503eee498e9e1bcbed906133509088908890615c96565b60405180910390a35050610f5c600160c955565b611d9d338383614622565b600060016101c9546133819190615caa565b905090565b6000613390613e4c565b613398613ea5565b6101c360009054906101000a90046001600160a01b03166001600160a01b0316635c975abb6040518163ffffffff1660e01b8152600401602060405180830381865afa1580156133ec573d6000803e3d6000fd5b505050506040513d601f19601f8201168201806040525081019061341091906157ec565b1561342d5760405162461bcd60e51b8152600401610bcb90615b47565b8161347a5760405162461bcd60e51b815260206004820152601c60248201527f4d65746164617461205552492063616e6e6f7420626520656d707479000000006044820152606401610bcb565b6101c9805490600061348b83615c54565b91905055905061349b338261453d565b6134db8184848080601f01602080910402602001604051908101604052809392919081815260200183838082843760009201919091525061455792505050565b60008181526101ca602052604080822080546001600160a01b031916339081179091559051909183917fcc0edaa41c0995bda18c82b6d92cc4c4c808bec64fe9b77064415d135d102b909161353591889188918190615c6d565b60405180910390a3610a8d600160c955565b61354f6140d0565b613557613e4c565b60008481526101cc602090815260408083206101cb9092529091206004600383015460ff16600481111561358d5761358d615197565b146135da5760405162461bcd60e51b815260206004820152601f60248201527f4e6f206163746976652061707065616c20666f72207468697320746f6b656e006044820152606401610bcb565b826136235760405162461bcd60e51b815260206004820152601960248201527814995cdbdb1d5d1a5bdb881b9bdd195cc81c995c5d5a5c9959603a1b6044820152606401610bcb565b60006001600383015460ff16600181111561364057613640615197565b14613657576101c4546001600160a01b0316613665565b6101c5546001600160a01b03165b905060006001600384015460ff16600181111561368457613684615197565b1461369b576101c7546001600160a01b03166136a9565b6101c8546001600160a01b03165b6040516370a0823160e01b81523060048201529091506000906001600160a01b038416906370a0823190602401602060405180830381865afa1580156136f3573d6000803e3d6000fd5b505050506040513d601f19601f820116820180604052508101906137179190615856565b90506706f05b59d3b2000081106137a45760405163a9059cbb60e01b81526001600160a01b0383811660048301526706f05b59d3b20000602483015284169063a9059cbb906044016020604051808303816000875af115801561377e573d6000803e3d6000fd5b505050506040513d601f19601f820116820180604052508101906137a291906157ec565b505b876137b05760026137b3565b60035b60038601805460ff191660018360048111156137d1576137d1615197565b0217905550600585016137e58789836158b7565b5060038501546040518a917fc204352fad7e46251e09ce83e05533737044b65128eb8926aac1969fbe2be267916138239160ff16908b908b906159a1565b60405180910390a250505050506117af600160c955565b613844338361412b565b6138605760405162461bcd60e51b8152600401610bcb90615809565b6117af848484846146f0565b6060610a8d82614723565b61387f613e4c565b803361388a82612907565b6001600160a01b0316146138e05760405162461bcd60e51b815260206004820152601c60248201527f43616c6c657220646f6573206e6f74206f776e2074686973204e4654000000006044820152606401610bcb565b60008281526101ca60205260409020600201548290610100900460ff166139495760405162461bcd60e51b815260206004820152601a60248201527f4e4654206973206e6f74206c697374656420666f722073616c650000000000006044820152606401610bcb565b60008381526101ca6020526040808220600201805461ff001916905551339185917fef1499b350e05776e60cd2ffcac001569a28e9d574e1f3adc1b3ab264f8ccffd9190a35050610e22600160c955565b6139a26140d0565b6001600160a01b0381166139f85760405162461bcd60e51b815260206004820152601a60248201527f5a65726f20616464726573733a2073696c76657220746f6b656e0000000000006044820152606401610bcb565b6101c580546001600160a01b0319166001600160a01b0383169081179091556040517faf62fcea2b41de7b22a39b336a378d645444da4072bf6c453b9d9eb01d2f979090600090a250565b6101c354604051630c68ba2160e01b81523360048201526001600160a01b0390911690630c68ba2190602401602060405180830381865afa158015613a8c573d6000803e3d6000fd5b505050506040513d601f19601f82011682018060405250810190613ab091906157ec565b613afc5760405162461bcd60e51b815260206004820152601860248201527f43616c6c6572206973206e6f74206120677561726469616e00000000000000006044820152606401610bcb565b3360009081526101cf602052604090205460ff1615613b565760405162461bcd60e51b815260206004820152601660248201527511dd585c991a585b88185b1c9958591e481d9bdd195960521b6044820152606401610bcb565b3360009081526101cf60205260408120805460ff191660011790556101d0805460ff1691613b8383615cbd565b82546101009290920a60ff8181021990931691831602179091556101d05460029116109050611cb457613bb461482b565b611cb46101d0805460ff19169055565b60008181526101cc60209081526040808320815160e0810190925280546001600160a01b031682526001810180546060948694859485948894869484019190613c0c906157b2565b80601f0160208091040260200160405190810160405280929190818152602001828054613c38906157b2565b8015613c855780601f10613c5a57610100808354040283529160200191613c85565b820191906000526020600020905b815481529060010190602001808311613c6857829003601f168201915b505050918352505060028201546020820152600382015460409091019060ff166004811115613cb657613cb6615197565b6004811115613cc757613cc7615197565b81526003820154610100900460ff161515602082015260048201546040820152600582018054606090920191613cfc906157b2565b80601f0160208091040260200160405190810160405280929190818152602001828054613d28906157b2565b8015613d755780601f10613d4a57610100808354040283529160200191613d75565b820191906000526020600020905b815481529060010190602001808311613d5857829003601f168201915b5050509190925250508151602083015160408401516060850151608086015160c090960151939e929d50909b5099509297509550909350505050565b613db96140d0565b6001600160a01b038116613e1e5760405162461bcd60e51b815260206004820152602660248201527f4f776e61626c653a206e6577206f776e657220697320746865207a65726f206160448201526564647265737360d01b6064820152608401610bcb565b610e22816144ea565b60006001600160e01b03198216632483248360e11b1480610a8d5750610a8d82614868565b600260c95403613e9e5760405162461bcd60e51b815260206004820152601f60248201527f5265656e7472616e637947756172643a207265656e7472616e742063616c6c006044820152606401610bcb565b600260c955565b60fb5460ff1615611cb45760405162461bcd60e51b815260206004820152601060248201526f14185d5cd8589b194e881c185d5cd95960821b6044820152606401610bcb565b600160c955565b6000818152606760205260409020546001600160a01b0316610e225760405162461bcd60e51b8152602060048201526018602482015277115490cdcc8c4e881a5b9d985b1a59081d1bdad95b88125160421b6044820152606401610bcb565b600081815260696020526040902080546001600160a01b0319166001600160a01b0384169081179091558190613f8682612907565b6001600160a01b03167f8c5be1e5ebec7d5bd14f71427d1e84f3dd0314c0f7b2291e5b200ac8c7c3b92560405160405180910390a45050565b6000612710613fd061177084615cdc565b610a8d9190615cf3565b6000612710613fd06107d084615cdc565b600054610100900460ff166140125760405162461bcd60e51b8152600401610bcb90615d15565b611d9d82826148b8565b600054610100900460ff16611cb45760405162461bcd60e51b8152600401610bcb90615d15565b600054610100900460ff1661406a5760405162461bcd60e51b8152600401610bcb90615d15565b611cb46148f8565b600054610100900460ff166140995760405162461bcd60e51b8152600401610bcb90615d15565b611cb461491f565b600054610100900460ff166140c85760405162461bcd60e51b8152600401610bcb90615d15565b611cb4614952565b61012d546001600160a01b03163314611cb45760405162461bcd60e51b815260206004820181905260248201527f4f776e61626c653a2063616c6c6572206973206e6f7420746865206f776e65726044820152606401610bcb565b60008061413783612907565b9050806001600160a01b0316846001600160a01b0316148061417e57506001600160a01b038082166000908152606a602090815260408083209388168352929052205460ff165b80612fc65750836001600160a01b031661419784610e25565b6001600160a01b031614949350505050565b826001600160a01b03166141bc82612907565b6001600160a01b0316146141e25760405162461bcd60e51b8152600401610bcb90615d60565b6001600160a01b0382166142445760405162461bcd60e51b8152602060048201526024808201527f4552433732313a207472616e7366657220746f20746865207a65726f206164646044820152637265737360e01b6064820152608401610bcb565b826001600160a01b031661425782612907565b6001600160a01b03161461427d5760405162461bcd60e51b8152600401610bcb90615d60565b600081815260696020908152604080832080546001600160a01b03199081169091556001600160a01b0387811680865260688552838620805460001901905590871680865283862080546001019055868652606790945282852080549092168417909155905184937fddf252ad1be2c89b69c2b068fc378daa952ba7f163c4a11628f55a4df523b3ef91a4505050565b610e226140d0565b7f4910fdfa16fed3260ed0e7147f7cc6da11a60208b5b9406d12a635614ffd91435460ff161561434857610f5c83614982565b826001600160a01b03166352d1902d6040518163ffffffff1660e01b8152600401602060405180830381865afa9250505080156143a2575060408051601f3d908101601f1916820190925261439f91810190615856565b60015b6144055760405162461bcd60e51b815260206004820152602e60248201527f45524331393637557067726164653a206e657720696d706c656d656e7461746960448201526d6f6e206973206e6f74205555505360901b6064820152608401610bcb565b600080516020615e9383398151915281146144745760405162461bcd60e51b815260206004820152602960248201527f45524331393637557067726164653a20756e737570706f727465642070726f786044820152681a58589b195555525160ba1b6064820152608401610bcb565b50610f5c838383614a1e565b600061448f62093a8083615bfb565b42111592915050565b6144a0614a43565b60fb805460ff191690557f5db9ee0a495bf2e6ff9c91a7834c1ba4fdd244a5e8aa4e537bd38aeae4b073aa335b6040516001600160a01b03909116815260200160405180910390a1565b61012d80546001600160a01b038381166001600160a01b0319831681179093556040519116919082907f8be0079c531659141344cd1fd0a4f28419497f9722a3daafe3b4186f6b6457e090600090a35050565b611d9d828260405180602001604052806000815250614a8c565b6000828152606760205260409020546001600160a01b03166145d25760405162461bcd60e51b815260206004820152602e60248201527f45524337323155524953746f726167653a2055524920736574206f66206e6f6e60448201526d32bc34b9ba32b73a103a37b5b2b760911b6064820152608401610bcb565b60008281526097602052604090206145ea8282615a63565b506040518281527ff8e1a15aba9398e019f0b49df1a4fde98ee17ae345cb5f6b5e2c27f5033e8ce79060200160405180910390a15050565b816001600160a01b0316836001600160a01b0316036146835760405162461bcd60e51b815260206004820152601960248201527f4552433732313a20617070726f766520746f2063616c6c6572000000000000006044820152606401610bcb565b6001600160a01b038381166000818152606a6020908152604080832094871680845294825291829020805460ff191686151590811790915591519182527f17307eab39ab6107e8899845ad3d59bd9653f200f220920489ca2b5937696c31910160405180910390a3505050565b6146fb8484846141a9565b61470784848484614abf565b6117af5760405162461bcd60e51b8152600401610bcb90615da5565b606061472e82613ef2565b60008281526097602052604081208054614747906157b2565b80601f0160208091040260200160405190810160405280929190818152602001828054614773906157b2565b80156147c05780601f10614795576101008083540402835291602001916147c0565b820191906000526020600020905b8154815290600101906020018083116147a357829003601f168201915b5050505050905060006147de60408051602081019091526000815290565b905080516000036147f0575092915050565b81511561482257808260405160200161480a929190615df7565b60405160208183030381529060405292505050919050565b612fc684614bbd565b614833613ea5565b60fb805460ff191660011790557f62e78cea01bee320cd4e420270b5ea74000d11b0c9f74754ebdbfc544b05a2586144cd3390565b60006001600160e01b031982166380ac58cd60e01b148061489957506001600160e01b03198216635b5e139f60e01b145b80610a8d57506301ffc9a760e01b6001600160e01b0319831614610a8d565b600054610100900460ff166148df5760405162461bcd60e51b8152600401610bcb90615d15565b60656148eb8382615a63565b506066610f5c8282615a63565b600054610100900460ff16613eeb5760405162461bcd60e51b8152600401610bcb90615d15565b600054610100900460ff166149465760405162461bcd60e51b8152600401610bcb90615d15565b60fb805460ff19169055565b600054610100900460ff166149795760405162461bcd60e51b8152600401610bcb90615d15565b611cb4336144ea565b6001600160a01b0381163b6149ef5760405162461bcd60e51b815260206004820152602d60248201527f455243313936373a206e657720696d706c656d656e746174696f6e206973206e60448201526c1bdd08184818dbdb9d1c9858dd609a1b6064820152608401610bcb565b600080516020615e9383398151915280546001600160a01b0319166001600160a01b0392909216919091179055565b614a2783614c31565b600082511180614a345750805b15610f5c576117af8383614c71565b60fb5460ff16611cb45760405162461bcd60e51b815260206004820152601460248201527314185d5cd8589b194e881b9bdd081c185d5cd95960621b6044820152606401610bcb565b614a968383614c96565b614aa36000848484614abf565b610f5c5760405162461bcd60e51b8152600401610bcb90615da5565b60006001600160a01b0384163b15614bb557604051630a85bd0160e11b81526001600160a01b0385169063150b7a0290614b03903390899088908890600401615e26565b6020604051808303816000875af1925050508015614b3e575060408051601f3d908101601f19168201909252614b3b91810190615e59565b60015b614b9b573d808015614b6c576040519150601f19603f3d011682016040523d82523d6000602084013e614b71565b606091505b508051600003614b935760405162461bcd60e51b8152600401610bcb90615da5565b805181602001fd5b6001600160e01b031916630a85bd0160e11b149050612fc6565b506001612fc6565b6060614bc882613ef2565b6000614bdf60408051602081019091526000815290565b90506000815111614bff5760405180602001604052806000815250614c2a565b80614c0984614e21565b604051602001614c1a929190615df7565b6040516020818303038152906040525b9392505050565b614c3a81614982565b6040516001600160a01b038216907fbc7cd75a20ee27fd9adebab32041f755214dbc6bffa90cc0225b39da2e5c2d3b90600090a250565b6060614c2a8383604051806060016040528060278152602001615eb360279139614eb4565b6001600160a01b038216614cec5760405162461bcd60e51b815260206004820181905260248201527f4552433732313a206d696e7420746f20746865207a65726f20616464726573736044820152606401610bcb565b6000818152606760205260409020546001600160a01b031615614d515760405162461bcd60e51b815260206004820152601c60248201527f4552433732313a20746f6b656e20616c7265616479206d696e746564000000006044820152606401610bcb565b6000818152606760205260409020546001600160a01b031615614db65760405162461bcd60e51b815260206004820152601c60248201527f4552433732313a20746f6b656e20616c7265616479206d696e746564000000006044820152606401610bcb565b6001600160a01b038216600081815260686020908152604080832080546001019055848352606790915280822080546001600160a01b0319168417905551839291907fddf252ad1be2c89b69c2b068fc378daa952ba7f163c4a11628f55a4df523b3ef908290a45050565b60606000614e2e83614f2c565b600101905060008167ffffffffffffffff811115614e4e57614e4e6153ea565b6040519080825280601f01601f191660200182016040528015614e78576020820181803683370190505b5090508181016020015b600019016f181899199a1a9b1b9c1cb0b131b232b360811b600a86061a8153600a8504945084614e8257509392505050565b6060600080856001600160a01b031685604051614ed19190615e76565b600060405180830381855af49150503d8060008114614f0c576040519150601f19603f3d011682016040523d82523d6000602084013e614f11565b606091505b5091509150614f2286838387615004565b9695505050505050565b60008072184f03e93ff9f4daa797ed6e38ed64bf6a1f0160401b8310614f6b5772184f03e93ff9f4daa797ed6e38ed64bf6a1f0160401b830492506040015b6d04ee2d6d415b85acef81000000008310614f97576d04ee2d6d415b85acef8100000000830492506020015b662386f26fc100008310614fb557662386f26fc10000830492506010015b6305f5e1008310614fcd576305f5e100830492506008015b6127108310614fe157612710830492506004015b60648310614ff3576064830492506002015b600a8310610a8d5760010192915050565b6060831561507357825160000361506c576001600160a01b0385163b61506c5760405162461bcd60e51b815260206004820152601d60248201527f416464726573733a2063616c6c20746f206e6f6e2d636f6e74726163740000006044820152606401610bcb565b5081612fc6565b612fc683838151156150885781518083602001fd5b8060405162461bcd60e51b8152600401610bcb9190615125565b6001600160e01b031981168114610e2257600080fd5b6000602082840312156150ca57600080fd5b8135614c2a816150a2565b60005b838110156150f05781810151838201526020016150d8565b50506000910152565b600081518084526151118160208601602086016150d5565b601f01601f19169290920160200192915050565b602081526000614c2a60208301846150f9565b60006020828403121561514a57600080fd5b5035919050565b80356001600160a01b038116811461516857600080fd5b919050565b6000806040838503121561518057600080fd5b61518983615151565b946020939093013593505050565b634e487b7160e01b600052602160045260246000fd5b600281106151bd576151bd615197565b9052565b6001600160a01b03861681526020810185905260a081016151e560408301866151ad565b9215156060820152608001529392505050565b600080600080600060a0868803121561521057600080fd5b61521986615151565b945061522760208701615151565b935061523560408701615151565b925061524360608701615151565b915061525160808701615151565b90509295509295909350565b8015158114610e2257600080fd5b6000806040838503121561527e57600080fd5b61528783615151565b915060208301356152978161525d565b809150509250929050565b6000806000606084860312156152b757600080fd5b6152c084615151565b92506152ce60208501615151565b9150604084013590509250925092565b60008083601f8401126152f057600080fd5b50813567ffffffffffffffff81111561530857600080fd5b60208301915083602082850101111561532057600080fd5b9250929050565b6000806000806060858703121561533d57600080fd5b84359350602085013561534f8161525d565b9250604085013567ffffffffffffffff81111561536b57600080fd5b615377878288016152de565b95989497509550505050565b60006020828403121561539557600080fd5b614c2a82615151565b6000806000604084860312156153b357600080fd5b83359250602084013567ffffffffffffffff8111156153d157600080fd5b6153dd868287016152de565b9497909650939450505050565b634e487b7160e01b600052604160045260246000fd5b600082601f83011261541157600080fd5b813567ffffffffffffffff8082111561542c5761542c6153ea565b604051601f8301601f19908116603f01168101908282118183101715615454576154546153ea565b8160405283815286602085880101111561546d57600080fd5b836020870160208301376000602085830101528094505050505092915050565b600080604083850312156154a057600080fd5b6154a983615151565b9150602083013567ffffffffffffffff8111156154c557600080fd5b6154d185828601615400565b9150509250929050565b600581106151bd576151bd615197565b6001600160a01b038816815260e06020820181905260009061550f908301896150f9565b87604084015261552260608401886154db565b85151560808401528460a084015282810360c084015261554281856150f9565b9a9950505050505050505050565b6001600160a01b038881168252871660208201526040810186905260e0810161557c60608301876151ad565b608082019490945291151560a0830152151560c090910152949350505050565b6000806000606084860312156155b157600080fd5b6155ba84615151565b92506155c860208501615151565b91506155d660408501615151565b90509250925092565b80356002811061516857600080fd5b6000806000806060858703121561560457600080fd5b843567ffffffffffffffff81111561561b57600080fd5b615627878288016152de565b90955093505060208501359150615640604086016155df565b905092959194509250565b60008060006060848603121561566057600080fd5b83359250602084013591506155d6604085016155df565b6000806020838503121561568a57600080fd5b823567ffffffffffffffff8111156156a157600080fd5b6156ad858286016152de565b90969095509350505050565b600080600080608085870312156156cf57600080fd5b6156d885615151565b93506156e660208601615151565b925060408501359150606085013567ffffffffffffffff81111561570957600080fd5b61571587828801615400565b91505092959194509250565b6001600160a01b038716815260c060208201819052600090615745908301886150f9565b86604084015261575860608401876154db565b841515608084015282810360a084015261577281856150f9565b9998505050505050505050565b6000806040838503121561579257600080fd5b61579b83615151565b91506157a960208401615151565b90509250929050565b600181811c908216806157c657607f821691505b6020821081036157e657634e487b7160e01b600052602260045260246000fd5b50919050565b6000602082840312156157fe57600080fd5b8151614c2a8161525d565b6020808252602d908201527f4552433732313a2063616c6c6572206973206e6f7420746f6b656e206f776e6560408201526c1c881bdc88185c1c1c9bdd9959609a1b606082015260800190565b60006020828403121561586857600080fd5b5051919050565b601f821115610f5c576000816000526020600020601f850160051c810160208610156158985750805b601f850160051c820191505b818110156113c8578281556001016158a4565b67ffffffffffffffff8311156158cf576158cf6153ea565b6158e3836158dd83546157b2565b8361586f565b6000601f84116001811461591757600085156158ff5750838201355b600019600387901b1c1916600186901b178355615971565b600083815260209020601f19861690835b828110156159485786850135825560209485019460019092019101615928565b50868210156159655760001960f88860031b161c19848701351681555b505060018560011b0183555b5050505050565b81835281816020850137506000828201602090810191909152601f909101601f19169091010190565b6159ab81856154db565b6040602082015260006159c2604083018486615978565b95945050505050565b6020808252602c908201527f46756e6374696f6e206d7573742062652063616c6c6564207468726f7567682060408201526b19195b1959d85d1958d85b1b60a21b606082015260800190565b6020808252602c908201527f46756e6374696f6e206d7573742062652063616c6c6564207468726f7567682060408201526b6163746976652070726f787960a01b606082015260800190565b815167ffffffffffffffff811115615a7d57615a7d6153ea565b615a9181615a8b84546157b2565b8461586f565b602080601f831160018114615ac65760008415615aae5750858301515b600019600386901b1c1916600185901b1785556113c8565b600085815260208120601f198616915b82811015615af557888601518255948401946001909101908401615ad6565b5085821015615b135787850151600019600388901b60f8161c191681555b5050505050600190811b01905550565b604081526000615b37604083018587615978565b9050826020830152949350505050565b602080825260129082015271141c9bdd1bd8dbdb081a5cc81c185d5cd95960721b604082015260600190565b600060208284031215615b8557600080fd5b815160068110614c2a57600080fd5b60208082526031908201527f4d61726b6574706c6163652073757370656e6465643a206f7261636c65206661604082015270696c75726520285245442073746167652960781b606082015260800190565b634e487b7160e01b600052601160045260246000fd5b80820180821115610a8d57610a8d615be5565b634e487b7160e01b600052600160045260246000fd5b85815260a08101615c3860208301876151ad565b8460408301528360608301528260808301529695505050505050565b600060018201615c6657615c66615be5565b5060010190565b606081526000615c81606083018688615978565b90508360208301526159c260408301846151ad565b82815260408101614c2a60208301846151ad565b81810381811115610a8d57610a8d615be5565b600060ff821660ff8103615cd357615cd3615be5565b60010192915050565b8082028115828204841417610a8d57610a8d615be5565b600082615d1057634e487b7160e01b600052601260045260246000fd5b500490565b6020808252602b908201527f496e697469616c697a61626c653a20636f6e7472616374206973206e6f74206960408201526a6e697469616c697a696e6760a81b606082015260800190565b60208082526025908201527f4552433732313a207472616e736665722066726f6d20696e636f72726563742060408201526437bbb732b960d91b606082015260800190565b60208082526032908201527f4552433732313a207472616e7366657220746f206e6f6e20455243373231526560408201527131b2b4bb32b91034b6b83632b6b2b73a32b960711b606082015260800190565b60008351615e098184602088016150d5565b835190830190615e1d8183602088016150d5565b01949350505050565b6001600160a01b0385811682528416602082015260408101839052608060608201819052600090614f22908301846150f9565b600060208284031215615e6b57600080fd5b8151614c2a816150a2565b60008251615e888184602087016150d5565b919091019291505056fe360894a13ba1a3210667c828492db98dca3e2076cc3735a920a3ca505d382bbc416464726573733a206c6f772d6c6576656c2064656c65676174652063616c6c206661696c6564a2646970667358221220a5f158dbde5e333e963cd1689e35567e3c3f0b940bb8b034503442559ff7ee9964736f6c63430008180033","abi":[{"anonymous":false,"inputs":[{"indexed":false,"internalType":"address","name":"previousAdmin","type":"address"},{"indexed":false,"internalType":"address","name":"newAdmin","type":"address"}],"name":"AdminChanged","type":"event"},{"anonymous":false,"inputs":[{"indexed":true,"internalType":"uint256","name":"tokenId","type":"uint256"},{"indexed":true,"internalType":"address","name":"creator","type":"address"},{"indexed":false,"internalType":"uint256","name":"feeAmount","type":"uint256"}],"name":"AppealFiled","type":"event"},{"anonymous":false,"inputs":[{"indexed":true,"internalType":"address","name":"owner","type":"address"},{"indexed":true,"internalType":"address","name":"approved","type":"address"},{"indexed":true,"internalType":"uint256","name":"tokenId","type":"uint256"}],"name":"Approval","type":"event"},{"anonymous":false,"inputs":[{"indexed":true,"internalType":"address","name":"owner","type":"address"},{"indexed":true,"internalType":"address","name":"operator","type":"address"},{"indexed":false,"internalType":"bool","name":"approved","type":"bool"}],"name":"ApprovalForAll","type":"event"},{"anonymous":false,"inputs":[{"indexed":false,"internalType":"uint256","name":"_fromTokenId","type":"uint256"},{"indexed":false,"internalType":"uint256","name":"_toTokenId","type":"uint256"}],"name":"BatchMetadataUpdate","type":"event"},{"anonymous":false,"inputs":[{"indexed":true,"internalType":"address","name":"beacon","type":"address"}],"name":"BeaconUpgraded","type":"event"},{"anonymous":false,"inputs":[{"indexed":true,"internalType":"address","name":"creator","type":"address"},{"indexed":false,"internalType":"bool","name":"verified","type":"bool"}],"name":"CreatorVerified","type":"event"},{"anonymous":false,"inputs":[{"indexed":true,"internalType":"uint256","name":"tokenId","type":"uint256"},{"indexed":true,"internalType":"address","name":"initiator","type":"address"},{"indexed":false,"internalType":"string","name":"reason","type":"string"},{"indexed":false,"internalType":"uint256","name":"openedAt","type":"uint256"}],"name":"DisputeOpened","type":"event"},{"anonymous":false,"inputs":[{"indexed":true,"internalType":"uint256","name":"tokenId","type":"uint256"},{"indexed":false,"internalType":"enum GaiaSpeakNFT.DisputeStatus","name":"result","type":"uint8"},{"indexed":false,"internalType":"string","name":"notes","type":"string"}],"name":"DisputeResolved","type":"event"},{"anonymous":false,"inputs":[{"indexed":false,"internalType":"uint8","name":"version","type":"uint8"}],"name":"Initialized","type":"event"},{"anonymous":false,"inputs":[{"indexed":false,"internalType":"uint256","name":"_tokenId","type":"uint256"}],"name":"MetadataUpdate","type":"event"},{"anonymous":false,"inputs":[{"indexed":true,"internalType":"uint256","name":"tokenId","type":"uint256"},{"indexed":true,"internalType":"address","name":"seller","type":"address"}],"name":"NFTDelisted","type":"event"},{"anonymous":false,"inputs":[{"indexed":true,"internalType":"uint256","name":"tokenId","type":"uint256"},{"indexed":true,"internalType":"address","name":"seller","type":"address"},{"indexed":false,"internalType":"uint256","name":"price","type":"uint256"},{"indexed":false,"internalType":"enum GaiaSpeakNFT.PaymentToken","name":"payToken","type":"uint8"}],"name":"NFTListed","type":"event"},{"anonymous":false,"inputs":[{"indexed":true,"internalType":"uint256","name":"tokenId","type":"uint256"},{"indexed":true,"internalType":"address","name":"creator","type":"address"},{"indexed":false,"internalType":"string","name":"metadataURI","type":"string"},{"indexed":false,"internalType":"uint256","name":"price","type":"uint256"},{"indexed":false,"internalType":"enum GaiaSpeakNFT.PaymentToken","name":"payToken","type":"uint8"}],"name":"NFTMinted","type":"event"},{"anonymous":false,"inputs":[{"indexed":true,"internalType":"uint256","name":"tokenId","type":"uint256"},{"indexed":true,"internalType":"address","name":"buyer","type":"address"},{"indexed":true,"internalType":"address","name":"creator","type":"address"},{"indexed":false,"internalType":"uint256","name":"price","type":"uint256"},{"indexed":false,"internalType":"enum GaiaSpeakNFT.PaymentToken","name":"payToken","type":"uint8"},{"indexed":false,"internalType":"uint256","name":"creatorShare","type":"uint256"},{"indexed":false,"internalType":"uint256","name":"founderShare","type":"uint256"},{"indexed":false,"internalType":"uint256","name":"reserveShare","type":"uint256"}],"name":"NFTSold","type":"event"},{"anonymous":false,"inputs":[{"indexed":true,"internalType":"address","name":"previousOwner","type":"address"},{"indexed":true,"internalType":"address","name":"newOwner","type":"address"}],"name":"OwnershipTransferred","type":"event"},{"anonymous":false,"inputs":[{"indexed":false,"internalType":"address","name":"account","type":"address"}],"name":"Paused","type":"event"},{"anonymous":false,"inputs":[{"indexed":true,"internalType":"address","name":"silverToken","type":"address"}],"name":"SilverTokenSet","type":"event"},{"anonymous":false,"inputs":[{"indexed":true,"internalType":"address","name":"from","type":"address"},{"indexed":true,"internalType":"address","name":"to","type":"address"},{"indexed":true,"internalType":"uint256","name":"tokenId","type":"uint256"}],"name":"Transfer","type":"event"},{"anonymous":false,"inputs":[{"indexed":false,"internalType":"address","name":"account","type":"address"}],"name":"Unpaused","type":"event"},{"anonymous":false,"inputs":[{"indexed":true,"internalType":"address","name":"implementation","type":"address"}],"name":"Upgraded","type":"event"},{"anonymous":false,"inputs":[{"indexed":false,"internalType":"address","name":"founder","type":"address"},{"indexed":false,"internalType":"address","name":"goldReserve","type":"address"},{"indexed":false,"internalType":"address","name":"silverReserve","type":"address"}],"name":"WalletsUpdated","type":"event"},{"inputs":[{"internalType":"address","name":"to","type":"address"},{"internalType":"uint256","name":"tokenId","type":"uint256"}],"name":"approve","outputs":[],"stateMutability":"nonpayable","type":"function"},{"inputs":[{"internalType":"address","name":"owner","type":"address"}],"name":"balanceOf","outputs":[{"internalType":"uint256","name":"","type":"uint256"}],"stateMutability":"view","type":"function"},{"inputs":[{"internalType":"uint256","name":"tokenId","type":"uint256"}],"name":"buyNFT","outputs":[],"stateMutability":"nonpayable","type":"function"},{"inputs":[{"internalType":"address","name":"","type":"address"}],"name":"creatorEarnings","outputs":[{"internalType":"uint256","name":"","type":"uint256"}],"stateMutability":"view","type":"function"},{"inputs":[{"internalType":"uint256","name":"tokenId","type":"uint256"}],"name":"delistNFT","outputs":[],"stateMutability":"nonpayable","type":"function"},{"inputs":[{"internalType":"uint256","name":"","type":"uint256"}],"name":"disputes","outputs":[{"internalType":"address","name":"initiator","type":"address"},{"internalType":"string","name":"reason","type":"string"},{"internalType":"uint256","name":"openedAt","type":"uint256"},{"internalType":"enum GaiaSpeakNFT.DisputeStatus","name":"status","type":"uint8"},{"internalType":"bool","name":"creatorAppealed","type":"bool"},{"internalType":"uint256","name":"appealedAt","type":"uint256"},{"internalType":"string","name":"resolution","type":"string"}],"stateMutability":"view","type":"function"},{"inputs":[{"internalType":"uint256","name":"tokenId","type":"uint256"}],"name":"fileAppeal","outputs":[],"stateMutability":"nonpayable","type":"function"},{"inputs":[],"name":"founderWallet","outputs":[{"internalType":"address","name":"","type":"address"}],"stateMutability":"view","type":"function"},{"inputs":[{"internalType":"uint256","name":"tokenId","type":"uint256"}],"name":"getApproved","outputs":[{"internalType":"address","name":"","type":"address"}],"stateMutability":"view","type":"function"},{"inputs":[{"internalType":"uint256","name":"tokenId","type":"uint256"}],"name":"getDispute","outputs":[{"internalType":"address","name":"initiator","type":"address"},{"internalType":"string","name":"reason","type":"string"},{"internalType":"uint256","name":"openedAt","type":"uint256"},{"internalType":"enum GaiaSpeakNFT.DisputeStatus","name":"status","type":"uint8"},{"internalType":"bool","name":"creatorAppealed","type":"bool"},{"internalType":"string","name":"resolution","type":"string"}],"stateMutability":"view","type":"function"},{"inputs":[{"internalType":"uint256","name":"tokenId","type":"uint256"}],"name":"getListing","outputs":[{"internalType":"address","name":"creator","type":"address"},{"internalType":"uint256","name":"price","type":"uint256"},{"internalType":"enum GaiaSpeakNFT.PaymentToken","name":"payToken","type":"uint8"},{"internalType":"bool","name":"active","type":"bool"},{"internalType":"uint256","name":"listedAt","type":"uint256"}],"stateMutability":"view","type":"function"},{"inputs":[],"name":"goldReserveWallet","outputs":[{"internalType":"address","name":"","type":"address"}],"stateMutability":"view","type":"function"},{"inputs":[],"name":"goldTokenContract","outputs":[{"internalType":"contract IGaiaSpeakToken","name":"","type":"address"}],"stateMutability":"view","type":"function"},{"inputs":[],"name":"guardianVotePause","outputs":[],"stateMutability":"nonpayable","type":"function"},{"inputs":[{"internalType":"address","name":"_protocol","type":"address"},{"internalType":"address","name":"_goldToken","type":"address"},{"internalType":"address","name":"_founder","type":"address"},{"internalType":"address","name":"_goldReserve","type":"address"},{"internalType":"address","name":"_silverReserve","type":"address"}],"name":"initialize","outputs":[],"stateMutability":"nonpayable","type":"function"},{"inputs":[{"internalType":"address","name":"owner","type":"address"},{"internalType":"address","name":"operator","type":"address"}],"name":"isApprovedForAll","outputs":[{"internalType":"bool","name":"","type":"bool"}],"stateMutability":"view","type":"function"},{"inputs":[{"internalType":"uint256","name":"tokenId","type":"uint256"}],"name":"isListed","outputs":[{"internalType":"bool","name":"","type":"bool"}],"stateMutability":"view","type":"function"},{"inputs":[{"internalType":"uint256","name":"tokenId","type":"uint256"},{"internalType":"uint256","name":"price","type":"uint256"},{"internalType":"enum GaiaSpeakNFT.PaymentToken","name":"payToken","type":"uint8"}],"name":"listNFT","outputs":[],"stateMutability":"nonpayable","type":"function"},{"inputs":[{"internalType":"uint256","name":"","type":"uint256"}],"name":"listings","outputs":[{"internalType":"address","name":"creator","type":"address"},{"internalType":"uint256","name":"price","type":"uint256"},{"internalType":"enum GaiaSpeakNFT.PaymentToken","name":"payToken","type":"uint8"},{"internalType":"bool","name":"active","type":"bool"},{"internalType":"uint256","name":"listedAt","type":"uint256"}],"stateMutability":"view","type":"function"},{"inputs":[{"internalType":"string","name":"metadataURI","type":"string"},{"internalType":"uint256","name":"price","type":"uint256"},{"internalType":"enum GaiaSpeakNFT.PaymentToken","name":"payToken","type":"uint8"}],"name":"mintAndList","outputs":[{"internalType":"uint256","name":"tokenId","type":"uint256"}],"stateMutability":"nonpayable","type":"function"},{"inputs":[{"internalType":"string","name":"metadataURI","type":"string"}],"name":"mintPrivate","outputs":[{"internalType":"uint256","name":"tokenId","type":"uint256"}],"stateMutability":"nonpayable","type":"function"},{"inputs":[],"name":"name","outputs":[{"internalType":"string","name":"","type":"string"}],"stateMutability":"view","type":"function"},{"inputs":[{"internalType":"uint256","name":"tokenId","type":"uint256"},{"internalType":"string","name":"reason","type":"string"}],"name":"openDispute","outputs":[],"stateMutability":"nonpayable","type":"function"},{"inputs":[],"name":"owner","outputs":[{"internalType":"address","name":"","type":"address"}],"stateMutability":"view","type":"function"},{"inputs":[{"internalType":"uint256","name":"tokenId","type":"uint256"}],"name":"ownerOf","outputs":[{"internalType":"address","name":"","type":"address"}],"stateMutability":"view","type":"function"},{"inputs":[],"name":"paused","outputs":[{"internalType":"bool","name":"","type":"bool"}],"stateMutability":"view","type":"function"},{"inputs":[{"internalType":"uint256","name":"price","type":"uint256"}],"name":"previewSplit","outputs":[{"internalType":"uint256","name":"creatorShare","type":"uint256"},{"internalType":"uint256","name":"founderShare","type":"uint256"},{"internalType":"uint256","name":"reserveShare","type":"uint256"}],"stateMutability":"pure","type":"function"},{"inputs":[],"name":"protocolContract","outputs":[{"internalType":"contract IGaiaSpeakProtocol","name":"","type":"address"}],"stateMutability":"view","type":"function"},{"inputs":[],"name":"proxiableUUID","outputs":[{"internalType":"bytes32","name":"","type":"bytes32"}],"stateMutability":"view","type":"function"},{"inputs":[],"name":"renounceOwnership","outputs":[],"stateMutability":"nonpayable","type":"function"},{"inputs":[{"internalType":"uint256","name":"tokenId","type":"uint256"},{"internalType":"bool","name":"appealSucceeds","type":"bool"},{"internalType":"string","name":"notes","type":"string"}],"name":"resolveAppeal","outputs":[],"stateMutability":"nonpayable","type":"function"},{"inputs":[{"internalType":"uint256","name":"tokenId","type":"uint256"},{"internalType":"bool","name":"favourBuyer","type":"bool"},{"internalType":"string","name":"notes","type":"string"}],"name":"resolveDispute","outputs":[],"stateMutability":"nonpayable","type":"function"},{"inputs":[{"internalType":"address","name":"from","type":"address"},{"internalType":"address","name":"to","type":"address"},{"internalType":"uint256","name":"tokenId","type":"uint256"}],"name":"safeTransferFrom","outputs":[],"stateMutability":"nonpayable","type":"function"},{"inputs":[{"internalType":"address","name":"from","type":"address"},{"internalType":"address","name":"to","type":"address"},{"internalType":"uint256","name":"tokenId","type":"uint256"},{"internalType":"bytes","name":"data","type":"bytes"}],"name":"safeTransferFrom","outputs":[],"stateMutability":"nonpayable","type":"function"},{"inputs":[{"internalType":"uint256","name":"","type":"uint256"}],"name":"saleRecords","outputs":[{"internalType":"address","name":"buyer","type":"address"},{"internalType":"address","name":"creator","type":"address"},{"internalType":"uint256","name":"price","type":"uint256"},{"internalType":"enum GaiaSpeakNFT.PaymentToken","name":"payToken","type":"uint8"},{"internalType":"uint256","name":"soldAt","type":"uint256"},{"internalType":"bool","name":"disputed","type":"bool"},{"internalType":"bool","name":"resolved","type":"bool"}],"stateMutability":"view","type":"function"},{"inputs":[{"internalType":"address","name":"operator","type":"address"},{"internalType":"bool","name":"approved","type":"bool"}],"name":"setApprovalForAll","outputs":[],"stateMutability":"nonpayable","type":"function"},{"inputs":[{"internalType":"address","name":"_silver","type":"address"}],"name":"setSilverTokenContract","outputs":[],"stateMutability":"nonpayable","type":"function"},{"inputs":[{"internalType":"address","name":"creator","type":"address"},{"internalType":"bool","name":"verified","type":"bool"}],"name":"setVerifiedCreator","outputs":[],"stateMutability":"nonpayable","type":"function"},{"inputs":[{"internalType":"address","name":"_founder","type":"address"},{"internalType":"address","name":"_goldReserve","type":"address"},{"internalType":"address","name":"_silverReserve","type":"address"}],"name":"setWallets","outputs":[],"stateMutability":"nonpayable","type":"function"},{"inputs":[],"name":"silverReserveWallet","outputs":[{"internalType":"address","name":"","type":"address"}],"stateMutability":"view","type":"function"},{"inputs":[],"name":"silverTokenContract","outputs":[{"internalType":"contract IGaiaSpeakToken","name":"","type":"address"}],"stateMutability":"view","type":"function"},{"inputs":[{"internalType":"bytes4","name":"interfaceId","type":"bytes4"}],"name":"supportsInterface","outputs":[{"internalType":"bool","name":"","type":"bool"}],"stateMutability":"view","type":"function"},{"inputs":[],"name":"symbol","outputs":[{"internalType":"string","name":"","type":"string"}],"stateMutability":"view","type":"function"},{"inputs":[{"internalType":"uint256","name":"tokenId","type":"uint256"}],"name":"tokenURI","outputs":[{"internalType":"string","name":"","type":"string"}],"stateMutability":"view","type":"function"},{"inputs":[],"name":"totalMinted","outputs":[{"internalType":"uint256","name":"","type":"uint256"}],"stateMutability":"view","type":"function"},{"inputs":[{"internalType":"address","name":"from","type":"address"},{"internalType":"address","name":"to","type":"address"},{"internalType":"uint256","name":"tokenId","type":"uint256"}],"name":"transferFrom","outputs":[],"stateMutability":"nonpayable","type":"function"},{"inputs":[{"internalType":"address","name":"newOwner","type":"address"}],"name":"transferOwnership","outputs":[],"stateMutability":"nonpayable","type":"function"},{"inputs":[],"name":"unpause","outputs":[],"stateMutability":"nonpayable","type":"function"},{"inputs":[{"internalType":"address","name":"newImplementation","type":"address"}],"name":"upgradeTo","outputs":[],"stateMutability":"nonpayable","type":"function"},{"inputs":[{"internalType":"address","name":"newImplementation","type":"address"},{"internalType":"bytes","name":"data","type":"bytes"}],"name":"upgradeToAndCall","outputs":[],"stateMutability":"payable","type":"function"},{"inputs":[{"internalType":"address","name":"","type":"address"}],"name":"verifiedCreators","outputs":[{"internalType":"bool","name":"","type":"bool"}],"stateMutability":"view","type":"function"}]}