{"address":"0xa983961420868f284F525A813C63Bc4C3F11f485","bytecode":"0x60a06040523060805234801561001457600080fd5b5060805161470761004c60003960008181611373015281816113b30152818161189e015281816118de015261196d01526147076000f3fe60806040526004361061041b5760003560e01c80638009b7bd1161021e578063cee3605311610123578063dc7ac667116100ab578063ee5ecc891161007a578063ee5ecc8914610c53578063f2fde38b14610c73578063f560c73414610c93578063f5e926e714610cb3578063fd72e22a14610cce57600080fd5b8063dc7ac66714610bd8578063e1f1487414610bed578063ee0083f314610c0d578063ee4d30ed14610c2257600080fd5b8063d5d1e436116100f2578063d5d1e43614610b43578063d84bd8d814610b63578063d9bdc56314610b78578063dc4bfb8514610b98578063dc567e4414610bb857600080fd5b8063cee3605314610ac6578063cfd872ed14610ae6578063d03cea6d14610b01578063d56d229d14610b2257600080fd5b8063a00f26ec116101a6578063a6a8613011610175578063a6a8613014610a3a578063a7ccabdf14610a5a578063a97dadfa14610a7a578063b68f9bd414610a91578063bd028a1814610aa657600080fd5b8063a00f26ec146109bb578063a0d75cdd146109d2578063a16d9982146109e7578063a23d3c3514610a1457600080fd5b80638c29a870116101ed5780638c29a8701461092c5780638da5cb5b146109475780638fb5d683146109655780639cbf5ff6146109855780639cfff0141461099a57600080fd5b80638009b7bd146108a25780638384006e146108c357806386087967146108e357806386cbf53a146108fe57600080fd5b806344f428fa116103245780635c975abb116102ac57806369156ba31161027b57806369156ba31461082157806369c1a712146108415780636aa6994714610858578063710d6e5d14610878578063715018a61461088d57600080fd5b80635c975abb146107a157806360126520146107b9578063635dbdd0146107d0578063643fade21461080157600080fd5b80634ea74285116102f35780634ea74285146107265780634f1ef2861461073b57806352d1902d1461074e5780635ba1c1a9146107635780635bf5d54c1461077a57600080fd5b806344f428fa1461069d578063471ae312146106d15780634acf775a146106e65780634b1a2df51461070657600080fd5b806326c9e0b2116103a757806334917bbc1161037657806334917bbc1461062757806334d1c8fe1461063c5780633659cfe6146106535780633defb96214610673578063435720a31461068857600080fd5b806326c9e0b2146105a35780632cc65a67146105b85780632df2946d146105d8578063337247fa1461060657600080fd5b80631c27304a116103ee5780631c27304a146104ef5780631d847e98146105205780631f0e1dd8146105425780631f3b4c4d146105575780631f9c09c21461057e57600080fd5b80630c68ba211461042057806318af61be14610466578063196f0d971461049e578063197d63a1146104cf575b600080fd5b34801561042c57600080fd5b5061045161043b366004613f2c565b6101166020526000908152604090205460ff1681565b60405190151581526020015b60405180910390f35b34801561047257600080fd5b5060fc54610486906001600160a01b031681565b6040516001600160a01b03909116815260200161045d565b3480156104aa57600080fd5b506104516104b9366004613f47565b61011b6020526000908152604090205460ff1681565b3480156104db57600080fd5b506104516104ea366004613f2c565b610cee565b3480156104fb57600080fd5b5061045161050a366004613f2c565b6101116020526000908152604090205460ff1681565b34801561052c57600080fd5b5061054061053b366004613f2c565b610d43565b005b34801561054e57600080fd5b50610540610edc565b34801561056357600080fd5b5061012054610486906201000090046001600160a01b031681565b34801561058a57600080fd5b5061059561011d5481565b60405190815260200161045d565b3480156105af57600080fd5b50610595610fe1565b3480156105c457600080fd5b5061011a5461045190610100900460ff1681565b3480156105e457600080fd5b506105956105f3366004613f47565b6101216020526000908152604090205481565b34801561061257600080fd5b5061010954610486906001600160a01b031681565b34801561063357600080fd5b5061054061110d565b34801561064857600080fd5b5061059562278d0081565b34801561065f57600080fd5b5061054061066e366004613f2c565b611369565b34801561067f57600080fd5b50610540611445565b34801561069457600080fd5b506105406114db565b3480156106a957600080fd5b506106b26114eb565b604080519315158452602084019290925215159082015260600161045d565b3480156106dd57600080fd5b5061054061154c565b3480156106f257600080fd5b50610486610701366004613f47565b611655565b34801561071257600080fd5b50610540610721366004613f2c565b611676565b34801561073257600080fd5b50610540611753565b610540610749366004613fd0565b611894565b34801561075a57600080fd5b50610595611960565b34801561076f57600080fd5b506105956202a30081565b34801561078657600080fd5b5060fb546107949060ff1681565b60405161045d919061408c565b3480156107ad57600080fd5b5060c95460ff16610451565b3480156107c557600080fd5b5061059561011c5481565b3480156107dc57600080fd5b506104516107eb366004613f2c565b61011f6020526000908152604090205460ff1681565b34801561080d57600080fd5b5061054061081c366004613f2c565b611a13565b34801561082d57600080fd5b5061054061083c366004613f2c565b611b52565b34801561084d57600080fd5b506105956101195481565b34801561086457600080fd5b506101205461045190610100900460ff1681565b34801561088457600080fd5b50610540611bc5565b34801561089957600080fd5b50610540611dcd565b3480156108ae57600080fd5b5061010854610486906001600160a01b031681565b3480156108cf57600080fd5b506105406108de3660046140c5565b611ddf565b3480156108ef57600080fd5b50610110546104519060ff1681565b34801561090a57600080fd5b50610595610919366004613f2c565b6101226020526000908152604090205481565b34801561093857600080fd5b5061011a546104519060ff1681565b34801561095357600080fd5b506097546001600160a01b0316610486565b34801561097157600080fd5b50610540610980366004614164565b611f14565b34801561099157600080fd5b50610595612287565b3480156109a657600080fd5b5061010654610486906001600160a01b031681565b3480156109c757600080fd5b5061059561010f5481565b3480156109de57600080fd5b506105406122d1565b3480156109f357600080fd5b5061012054610a029060ff1681565b60405160ff909116815260200161045d565b348015610a2057600080fd5b5060fb54610486906201000090046001600160a01b031681565b348015610a4657600080fd5b50610595610a55366004613f47565b612489565b348015610a6657600080fd5b50610540610a75366004613f2c565b61256a565b348015610a8657600080fd5b5061059561011e5481565b348015610a9d57600080fd5b50610540612595565b348015610ab257600080fd5b50610540610ac1366004614268565b61282b565b348015610ad257600080fd5b50610540610ae1366004613f2c565b6129d2565b348015610af257600080fd5b50610112546104519060ff1681565b348015610b0d57600080fd5b5061010554610486906001600160a01b031681565b348015610b2e57600080fd5b5061010754610486906001600160a01b031681565b348015610b4f57600080fd5b50610540610b5e366004613f2c565b612b13565b348015610b6f57600080fd5b50610540612b86565b348015610b8457600080fd5b5060fd54610486906001600160a01b031681565b348015610ba457600080fd5b50610486610bb3366004613f47565b612d05565b348015610bc457600080fd5b50610540610bd3366004613f2c565b612d16565b348015610be457600080fd5b50610595612e4a565b348015610bf957600080fd5b5060ff54610486906001600160a01b031681565b348015610c1957600080fd5b50610540612e63565b348015610c2e57600080fd5b50610451610c3d366004613f2c565b6101176020526000908152604090205460ff1681565b348015610c5f57600080fd5b50610540610c6e366004613f2c565b612f69565b348015610c7f57600080fd5b50610540610c8e366004613f2c565b61309c565b348015610c9f57600080fd5b50610486610cae366004613f47565b613112565b348015610cbf57600080fd5b5061011854610a029060ff1681565b348015610cda57600080fd5b5060fe54610486906001600160a01b031681565b6000805b6005811015610d3a57826001600160a01b03166101008260058110610d1957610d1961429b565b01546001600160a01b031603610d325750600192915050565b600101610cf2565b50600092915050565b610d4b613123565b7f2ed000cb05c22b4906ca2aac9726ef67783e55c5613e031391704511815ab31b60008181526101216020527f7446ad83966030ead26c6f6adff6c0e0d774dc19d3ea2cd55426373ec268470a549003610dfd57610dac6202a300426142c7565b60008281526101216020526040908190208290555182917f8707ea175e75ad64eba2d8b3d6ffe47c0b47309134b4df98c6f32c4828e96b7291610df191815260200190565b60405180910390a25050565b60008181526101216020526040902054421015610e355760405162461bcd60e51b8152600401610e2c906142da565b60405180910390fd5b6000818152610121602052604080822082905551829160008051602061462b83398151915291a26001600160a01b038216610e6f57600080fd5b60fd80546001600160a01b0319166001600160a01b03841690811790915560408051818152600d918101919091526c73696c7665725265736572766560981b606082015260208101919091526000805160206146b2833981519152906080015b60405180910390a15b5050565b610105546001600160a01b0316331480610f015750610106546001600160a01b031633145b610f445760405162461bcd60e51b81526020600482015260146024820152734f6e6c7920746f6b656e20636f6e74726163747360601b6044820152606401610e2c565b6101125460ff16158015610f6e5750600060fb5460ff166005811115610f6c57610f6c614076565b145b15610fdf576101128054600160ff19918216811790925560fb8054909116821790556040516000919060008051602061466b833981519152908390a36040514281527ff0e6ae6924e11941197674c8416eb181c5c823ad9d570478856b9ff4d2496430906020015b60405180910390a15b565b600080600061010860009054906101000a90046001600160a01b03166001600160a01b031663feaf968c6040518163ffffffff1660e01b815260040160a060405180830381865afa15801561103a573d6000803e3d6000fd5b505050506040513d601f19601f8201168201806040525081019061105e9190614322565b50935050925050600082136110a95760405162461bcd60e51b8152602060048201526011602482015270496e76616c69642045544820707269636560781b6044820152606401610e2c565b610e106110b68242614372565b11156110f75760405162461bcd60e51b815260206004820152601060248201526f455448206f7261636c65207374616c6560801b6044820152606401610e2c565b611106826402540be400614385565b9250505090565b6000805b60058110156111505733610100826005811061112f5761112f61429b565b01546001600160a01b0316036111485760019150611150565b600101611111565b508061118e5760405162461bcd60e51b815260206004820152600d60248201526c2737ba1030903834b7b732b2b960991b6044820152606401610e2c565b33600090815261011f602052604090205460ff16156111e25760405162461bcd60e51b815260206004820152601060248201526f105b1c9958591e48185c1c1c9bdd995960821b6044820152606401610e2c565b61011a5460ff1661122b5760405162461bcd60e51b8152602060048201526013602482015272446561642d6d616e206e6f742061637469766560681b6044820152606401610e2c565b33600090815261011f60205260408120805460ff19166001179055610120805460ff16916112588361439c565b91906101000a81548160ff021916908360ff16021790555050336001600160a01b03167fb727ec1b4bfa393f33cda5580510633f2520d6ecca9e431147bf1f424e508f4e60405160405180910390a261012054600360ff909116106113665761011a805461ffff1990811690915561012080544261011955909116905560005b600581101561132e57600061011f600061010084600581106112fc576112fc61429b565b01546001600160a01b031681526020810191909152604001600020805460ff19169115159190911790556001016112d8565b5060405142815233907f9910abdfba205b7d9e89251055d5aeb29df06e859e2439985af04c6631019658906020015b60405180910390a25b50565b6001600160a01b037f00000000000000000000000000000000000000000000000000000000000000001630036113b15760405162461bcd60e51b8152600401610e2c906143bb565b7f00000000000000000000000000000000000000000000000000000000000000006001600160a01b03166113fa60008051602061464b833981519152546001600160a01b031690565b6001600160a01b0316146114205760405162461bcd60e51b8152600401610e2c90614407565b6114298161317d565b6040805160008082526020820190925261136691839190613185565b60fb546201000090046001600160a01b0316331480611488575061012054610100900460ff1680156114885750610120546201000090046001600160a01b031633145b6114a45760405162461bcd60e51b8152600401610e2c90614453565b426101198190556040519081527fd8b05d15738a23c939aa6d41d2dde7ef5495c25cdc0f804af1d4f0cb1bb4b31f90602001610fd6565b6114e3613123565b610fdf6132f0565b610108546040805160a081019182905260009283928392611541926001600160a01b03169161010a9060059082845b81546001600160a01b0316815260019091019060200180831161151a57505050505061333d565b925092509250909192565b60fb546201000090046001600160a01b031633148061158f575061012054610100900460ff16801561158f5750610120546201000090046001600160a01b031633145b6115ab5760405162461bcd60e51b8152600401610e2c90614453565b61011a54610100900460ff16156115d45760405162461bcd60e51b8152600401610e2c90614483565b600360fb5460ff1660058111156115ed576115ed614076565b146116285760405162461bcd60e51b815260206004820152600b60248201526a4e6f7420696e20424c554560a81b6044820152606401610e2c565b60fb805460ff191660059081179091556003905b60405160008051602061466b83398151915290600090a3565b610100816005811061166657600080fd5b01546001600160a01b0316905081565b610105546001600160a01b031633148061169b5750610106546001600160a01b031633145b6116de5760405162461bcd60e51b81526020600482015260146024820152734f6e6c7920746f6b656e20636f6e74726163747360601b6044820152606401610e2c565b6001600160a01b0381166000908152610111602052604090205460ff1615611366576001600160a01b0381166000818152610111602052604090819020805460ff19169055517f6c6dee804228ba27c91b916f12cc2f32aaef1be9a7d7af1f62173c8124a3f7939061135d9042815260200190565b60fb546201000090046001600160a01b0316331480611796575061012054610100900460ff1680156117965750610120546201000090046001600160a01b031633145b6117b25760405162461bcd60e51b8152600401610e2c90614453565b61011a54610100900460ff16156117db5760405162461bcd60e51b8152600401610e2c90614483565b600060fb5460ff1660058111156117f4576117f4614076565b146118305760405162461bcd60e51b815260206004820152600c60248201526b2737ba1034b71023a922a2a760a11b6044820152606401610e2c565b6101125460ff1661187c5760405162461bcd60e51b8152602060048201526016602482015275139bc81c1d589b1a58c81c1d5c98da185cd9481e595d60521b6044820152606401610e2c565b60fb805460ff1916600190811790915560009061163c565b6001600160a01b037f00000000000000000000000000000000000000000000000000000000000000001630036118dc5760405162461bcd60e51b8152600401610e2c906143bb565b7f00000000000000000000000000000000000000000000000000000000000000006001600160a01b031661192560008051602061464b833981519152546001600160a01b031690565b6001600160a01b03161461194b5760405162461bcd60e51b8152600401610e2c90614407565b6119548261317d565b610ed882826001613185565b6000306001600160a01b037f00000000000000000000000000000000000000000000000000000000000000001614611a005760405162461bcd60e51b815260206004820152603860248201527f555550535570677261646561626c653a206d757374206e6f742062652063616c60448201527f6c6564207468726f7567682064656c656761746563616c6c00000000000000006064820152608401610e2c565b5060008051602061464b83398151915290565b60fb546201000090046001600160a01b0316331480611a56575061012054610100900460ff168015611a565750610120546201000090046001600160a01b031633145b611a725760405162461bcd60e51b8152600401610e2c90614453565b7fb8b61e9808d05e0a927e1ce3d25e3e34a68c4fedc47948e80e689bbd76892d4360008181526101216020527ff5074bfa74af57a9f9e60ca8ad6f912e47b2a286c54ad2e049f1ec7ccc57cbf5549003611ad357610dac6202a300426142c7565b60008181526101216020526040902054421015611b025760405162461bcd60e51b8152600401610e2c906142da565b6000818152610121602052604080822082905551829160008051602061462b83398151915291a261012080546001600160a01b038416620100000262010000600160b01b03199091161790555050565b611b5a613123565b610105546001600160a01b031615611ba25760405162461bcd60e51b815260206004820152600b60248201526a105b1c9958591e481cd95d60aa1b6044820152606401610e2c565b61010580546001600160a01b0319166001600160a01b0392909216919091179055565b60fb546201000090046001600160a01b0316331480611c08575061012054610100900460ff168015611c085750610120546201000090046001600160a01b031633145b611c245760405162461bcd60e51b8152600401610e2c90614453565b61011a54610100900460ff1615611c4d5760405162461bcd60e51b8152600401610e2c90614483565b7f6c6a73b193293ebd40b68b5f34ac3484e0bba3863b079be475e72b144c644f3b60008181526101216020527f1a3abe3336d96434cf64ee41d3cc254fd6da57a3faa8d3657563373ef03e3b07549003611cf357611cae6202a300426142c7565b60008281526101216020526040908190208290555182917f8707ea175e75ad64eba2d8b3d6ffe47c0b47309134b4df98c6f32c4828e96b729161135d91815260200190565b60008181526101216020526040902054421015611d225760405162461bcd60e51b8152600401610e2c906142da565b6000818152610121602052604080822082905551829160008051602061462b83398151915291a2600160fb5460ff166005811115611d6257611d62614076565b14611d9f5760405162461bcd60e51b815260206004820152600d60248201526c4e6f7420696e2059454c4c4f5760981b6044820152606401610e2c565b60fb805460ff191660029081179091556001905b60405160008051602061466b83398151915290600090a350565b611dd5613123565b610fdf6000613487565b336000908152610116602052604090205460ff16611e0f5760405162461bcd60e51b8152600401610e2c906144ad565b61011a5460ff16611e585760405162461bcd60e51b8152602060048201526013602482015272446561642d6d616e206e6f742061637469766560681b6044820152606401610e2c565b6000611e6483836134d9565b600081815261011b60205260408120805460ff1916600117905590915060ff84169003611e925761011c8190555b8260ff16600103611ea45761011d8190555b8260ff16600203611eb65761011e8190555b60405142815233907faa7e2098a10d8f5c1fca9a96bdfa08e09b36ee74640df852fcdf58a8d2488e889060200160405180910390a2611f0261011c5461011d5461011e5461011b613511565b15611f0f57611f0f613585565b505050565b600054610100900460ff1615808015611f345750600054600160ff909116105b80611f4e5750303b158015611f4e575060005460ff166001145b611fb15760405162461bcd60e51b815260206004820152602e60248201527f496e697469616c697a61626c653a20636f6e747261637420697320616c72656160448201526d191e481a5b9a5d1a585b1a5e995960921b6064820152608401610e2c565b6000805460ff191660011790558015611fd4576000805461ff0019166101001790555b611fdc6135d5565b611fe4613604565b611fec613633565b611ff58b613487565b60fb805462010000600160b01b031916620100006001600160a01b038e8116919091029190911790915560fc80546001600160a01b03199081168d84161790915560fd805482168c841617905560fe805482168b841617905560ff805490911691891691909117905561206c610100876005613e85565b5060005b60038110156121145785816003811061208b5761208b61429b565b602002015161011382600381106120a4576120a461429b565b0180546001600160a01b0319166001600160a01b0392909216919091179055600161011660008884600381106120dc576120dc61429b565b602090810291909101516001600160a01b03168252810191909152604001600020805460ff1916911515919091179055600101612070565b5061010880546001600160a01b038087166001600160a01b03199283161790925561010980549286169290911691909117905561215561010a836005613e85565b5060005b600581101561220b576001610111600089846005811061217b5761217b61429b565b60200201516001600160a01b03166001600160a01b0316815260200190815260200160002060006101000a81548160ff0219169083151502179055508681600581106121c9576121c961429b565b60200201516001600160a01b03167f3e2a94f54f8e2fe96e47dfaff2e4c6827fe0d5586555db135fd9083981ddacfb60405160405180910390a2600101612159565b5060fb805460ff19908116909155610110805482166001179055610112805490911690554261011955801561227a576000805461ff0019169055604051600181527f7f26b83ff96e1f2b6a682f133852f6798a09c465da95921460cefb38474024989060200160405180910390a15b5050505050505050505050565b6040805160a08101918290526000916122cc919061010a9060059082845b81546001600160a01b031681526001909101906020018083116122a557505050505061365a565b905090565b6000806122dc6114eb565b90935091506004905060fb5460ff1660058111156122fc576122fc614076565b14158015612308575080155b156123be5760fb805460ff8116919061ff00191661010083600581111561233157612331614076565b021790555060fb8054600460ff199182161791829055610110805490911690554261010f55610100900460ff16600581111561236f5761236f614076565b600460405160008051602061466b83398151915290600090a360408051428152602081018490527fbff04ac2c36bb3047470a06001c2c5a32e672831d7a00148fd1b49ab9c8b997c9101610ecf565b600460fb5460ff1660058111156123d7576123d7614076565b1480156123e15750805b15610ed85760fb805460ff610100820416919060ff1916600183600581111561240c5761240c614076565b0217905550610110805460ff191660011790554261010f55600460fb54610100900460ff16600581111561244257612442614076565b60405160008051602061466b83398151915290600090a36040514281527f60aa05ed835b3942405104d91925724151f26fa7f398c7632b2066c73c79d15290602001610ecf565b600080600061010860009054906101000a90046001600160a01b03166001600160a01b031663feaf968c6040518163ffffffff1660e01b815260040160a060405180830381865afa1580156124e2573d6000803e3d6000fd5b505050506040513d601f19601f820116820180604052508101906125069190614322565b509350509250506000821380156125285750610e106125258242614372565b11155b61253157600080fd5b6000612542836402540be400614385565b90508061255786670de0b6b3a7640000614385565b61256191906144eb565b95945050505050565b612572613123565b61010780546001600160a01b0319166001600160a01b0392909216919091179055565b60fb546201000090046001600160a01b03163314806125d8575061012054610100900460ff1680156125d85750610120546201000090046001600160a01b031633145b6125f45760405162461bcd60e51b8152600401610e2c90614453565b61011a54610100900460ff161561261d5760405162461bcd60e51b8152600401610e2c90614483565b7f987e2fe361426f5074107dfb669e977a9f518730aa10119999e6aef77317b3c860008181526101216020527f7241474afd25282e26a98e39f766a4ec5cda75199d51540ab19c5a4acb1b63f654900361267e57611cae6202a300426142c7565b600081815261012160205260409020544210156126ad5760405162461bcd60e51b8152600401610e2c906142da565b6000818152610121602052604080822082905551829160008051602061462b83398151915291a2600260fb5460ff1660058111156126ed576126ed614076565b146127285760405162461bcd60e51b815260206004820152600b60248201526a139bdd081a5b8811d3d31160aa1b6044820152606401610e2c565b60fb805460ff1916600317905560005b6005811015612821576101116000610100836005811061275a5761275a61429b565b01546001600160a01b0316815260208101919091526040016000205460ff1615612819576000610111600061010084600581106127995761279961429b565b01546001600160a01b031681526020810191909152604001600020805460ff191691151591909117905561010081600581106127d7576127d761429b565b01546040514281526001600160a01b03909116907f6c6dee804228ba27c91b916f12cc2f32aaef1be9a7d7af1f62173c8124a3f7939060200160405180910390a25b600101612738565b5060026003611db3565b612833613123565b6040805160208101829052600a6060820152695345545f4f5241434c4560b01b608082015260ff84169181019190915260a001604051602081830303815290604052805190602001206101216000828152602001908152602001600020546000036128f7576128a56202a300426142c7565b60008281526101216020526040908190208290555182917f8707ea175e75ad64eba2d8b3d6ffe47c0b47309134b4df98c6f32c4828e96b72916128ea91815260200190565b60405180910390a2505050565b600081815261012160205260409020544210156129265760405162461bcd60e51b8152600401610e2c906142da565b6000818152610121602052604080822082905551829160008051602061462b83398151915291a260058360ff161061295d57600080fd5b8161010a8460ff16600581106129755761297561429b565b0180546001600160a01b0319166001600160a01b039283161790556040805160ff8616815291841660208301527f82680dc147f500d6dcc204d17962f246861e51edad677674a0ea9df06b1869ef910160405180910390a1505050565b6129da613123565b7f9ad69c4f3d9aec99671203fff08e62fc4b12165adb2e198ef707a4d597942b5560008181526101216020527faf2fdb53095a84f1bb1a06d6fb5e626e4585ef8af19c2b22a1ff321d25e0b47d549003612a3b57610dac6202a300426142c7565b60008181526101216020526040902054421015612a6a5760405162461bcd60e51b8152600401610e2c906142da565b6000818152610121602052604080822082905551829160008051602061462b83398151915291a26001600160a01b038216612aa457600080fd5b60fb80546001600160a01b038416620100000262010000600160b01b03199091161790556040516000805160206146b283398151915290610ecf9084906040808252600790820152663337bab73232b960c91b60608201526001600160a01b0391909116602082015260800190565b612b1b613123565b610106546001600160a01b031615612b635760405162461bcd60e51b815260206004820152600b60248201526a105b1c9958591e481cd95d60aa1b6044820152606401610e2c565b61010680546001600160a01b0319166001600160a01b0392909216919091179055565b336000908152610116602052604090205460ff16612bb65760405162461bcd60e51b8152600401610e2c906144ad565b336000908152610117602052604090205460ff1615612c0a5760405162461bcd60e51b815260206004820152601060248201526f105b1c9958591e48185c1c1c9bdd995960821b6044820152606401610e2c565b33600090815261011760205260408120805460ff19166001179055610118805460ff1691612c378361439c565b91906101000a81548160ff021916908360ff16021790555050336001600160a01b03167f9367992e12a3243397ef8e8ce4bebedde80cd2feeeae3f6563edc1578570cb3a60405160405180910390a261011854600260ff90911610610fdf57612c9e6138af565b60005b6003811015612cf757600061011760006101138460038110612cc557612cc561429b565b01546001600160a01b031681526020810191909152604001600020805460ff1916911515919091179055600101612ca1565b50610118805460ff19169055565b61010a816005811061166657600080fd5b612d1e613123565b7f4e4fd6ff1601039cef538a9736613182965723b79287e296c6362f211a0bb15960008181526101216020527f0494b4cc3b1ef6f17d0020a3698802c2abbc593dd995561b92a40a8fae2b91e9549003612d7f57610dac6202a300426142c7565b60008181526101216020526040902054421015612dae5760405162461bcd60e51b8152600401610e2c906142da565b6000818152610121602052604080822082905551829160008051602061462b83398151915291a26001600160a01b038216612de857600080fd5b60fc80546001600160a01b0319166001600160a01b03841690811790915560408051818152600b918101919091526a676f6c645265736572766560a81b606082015260208101919091526000805160206146b283398151915290608001610ecf565b610109546000906122cc906001600160a01b03166138ec565b336000908152610116602052604090205460ff16612e935760405162461bcd60e51b8152600401610e2c906144ad565b612e9f61011954613a17565b612ee45760405162461bcd60e51b8152602060048201526016602482015275486561727462656174207374696c6c2061637469766560501b6044820152606401610e2c565b61011a5460ff1615612f295760405162461bcd60e51b815260206004820152600e60248201526d416c72656164792061637469766560901b6044820152606401610e2c565b61011a805461ffff19166101011790556040514281527f0dbe99951a2381a5f71dc87cd113a8c3cb32eaf9c50739c58142ad43def37fab90602001610fd6565b612f71613123565b7f171b0ad876822131eea9c5c8e87d164558a4ad674f5a43125aa9a983dbc3346a60008181526101216020527fbffbeaa8387bf71395fa21dcd11a1b1491b2d37b5539c5619bdb32da6e1cb08d549003612fd257610dac6202a300426142c7565b600081815261012160205260409020544210156130015760405162461bcd60e51b8152600401610e2c906142da565b6000818152610121602052604080822082905551829160008051602061462b83398151915291a26001600160a01b03821661303b57600080fd5b60fe80546001600160a01b0319166001600160a01b03841690811790915560408051818152600a91810191909152696f7065726174696f6e7360b01b606082015260208101919091526000805160206146b283398151915290608001610ecf565b6130a4613123565b6001600160a01b0381166131095760405162461bcd60e51b815260206004820152602660248201527f4f776e61626c653a206e6577206f776e657220697320746865207a65726f206160448201526564647265737360d01b6064820152608401610e2c565b61136681613487565b610113816003811061166657600080fd5b6097546001600160a01b03163314610fdf5760405162461bcd60e51b815260206004820181905260248201527f4f776e61626c653a2063616c6c6572206973206e6f7420746865206f776e65726044820152606401610e2c565b611366613123565b7f4910fdfa16fed3260ed0e7147f7cc6da11a60208b5b9406d12a635614ffd91435460ff16156131b857611f0f83613a2e565b826001600160a01b03166352d1902d6040518163ffffffff1660e01b8152600401602060405180830381865afa925050508015613212575060408051601f3d908101601f1916820190925261320f918101906144ff565b60015b6132755760405162461bcd60e51b815260206004820152602e60248201527f45524331393637557067726164653a206e657720696d706c656d656e7461746960448201526d6f6e206973206e6f74205555505360901b6064820152608401610e2c565b60008051602061464b83398151915281146132e45760405162461bcd60e51b815260206004820152602960248201527f45524331393637557067726164653a20756e737570706f727465642070726f786044820152681a58589b195555525160ba1b6064820152608401610e2c565b50611f0f838383613aca565b6132f8613af5565b60c9805460ff191690557f5db9ee0a495bf2e6ff9c91a7834c1ba4fdd244a5e8aa4e537bd38aeae4b073aa335b6040516001600160a01b039091168152602001610fd6565b6000806000846001600160a01b031663feaf968c6040518163ffffffff1660e01b815260040160a060405180830381865afa92505050801561339c575060408051601f3d908101601f1916820190925261339991810190614322565b60015b6133a957600092506133cc565b6000841380156133c45750610e106133c18342614372565b11155b975050505050505b6000915060005b600581101561346f578481600581106133ee576133ee61429b565b60200201516001600160a01b0316639cbf5ff66040518163ffffffff1660e01b8152600401602060405180830381865afa92505050801561344c575060408051601f3d908101601f19168201909252613449918101906144ff565b60015b15613467578015613465578361346181614518565b9450505b505b6001016133d3565b5082801561347e575060038210155b90509250925092565b609780546001600160a01b038381166001600160a01b0319831681179093556040519116919082907f8be0079c531659141344cd1fd0a4f28419497f9722a3daafe3b4186f6b6457e090600090a35050565b6040805160ff841660208201529081018290526000906060016040516020818303038152906040528051906020012090505b92915050565b6000841580159061352157508315155b801561352c57508215155b8015613546575060008581526020839052604090205460ff165b8015613560575060008481526020839052604090205460ff165b801561357a575060008381526020839052604090205460ff165b90505b949350505050565b610120805461010061ff00199091161790819055604051620100009091046001600160a01b0316907f254f711868330eeda4a7f0fc0ffb2ef59d33b9bb4f0ad2cff9bfaa9094af906e90600090a2565b600054610100900460ff166135fc5760405162461bcd60e51b8152600401610e2c90614531565b610fdf613b3e565b600054610100900460ff1661362b5760405162461bcd60e51b8152600401610e2c90614531565b610fdf613b6e565b600054610100900460ff16610fdf5760405162461bcd60e51b8152600401610e2c90614531565b6000613664613edd565b6000805b600581101561371f578481600581106136835761368361429b565b60200201516001600160a01b0316639cbf5ff66040518163ffffffff1660e01b8152600401602060405180830381865afa9250505080156136e1575060408051601f3d908101601f191682019092526136de918101906144ff565b60015b156137175780156137155780848460ff16600581106137025761370261429b565b6020020152826137118161439c565b9350505b505b600101613668565b5060038160ff1610156137745760405162461bcd60e51b815260206004820152601d60248201527f496e73756666696369656e74206f7261636c6520726573706f6e7365730000006044820152606401610e2c565b60006137808383613ba1565b90506000805b8360ff16811015613834576000838683600581106137a6576137a661429b565b6020020151116137d6578582600581106137c2576137c261429b565b60200201516137d19085614372565b6137f8565b838683600581106137e9576137e961429b565b60200201516137f89190614372565b9050600084613808836064614385565b61381291906144eb565b90506002811161382a57836138268161439c565b9450505b5050600101613786565b5060038160ff1610156138895760405162461bcd60e51b815260206004820152601760248201527f4f7261636c6520636f6e73656e737573206661696c65640000000000000000006044820152606401610e2c565b6301da99f461389b83620f4240614385565b6138a591906144eb565b9695505050505050565b6138b7613ccc565b60c9805460ff191660011790557f62e78cea01bee320cd4e420270b5ea74000d11b0c9f74754ebdbfc544b05a2586133253390565b6000806000836001600160a01b031663feaf968c6040518163ffffffff1660e01b815260040160a060405180830381865afa15801561392f573d6000803e3d6000fd5b505050506040513d601f19601f820116820180604052508101906139539190614322565b50935050925050600082136139a15760405162461bcd60e51b8152602060048201526014602482015273496e76616c69642073696c76657220707269636560601b6044820152606401610e2c565b610e106139ae8242614372565b11156139f25760405162461bcd60e51b815260206004820152601360248201527253696c766572206f7261636c65207374616c6560681b6044820152606401610e2c565b6000613a03836402540be400614385565b90506301da99f461255782620f4240614385565b6000613a2662278d00836142c7565b421192915050565b6001600160a01b0381163b613a9b5760405162461bcd60e51b815260206004820152602d60248201527f455243313936373a206e657720696d706c656d656e746174696f6e206973206e60448201526c1bdd08184818dbdb9d1c9858dd609a1b6064820152608401610e2c565b60008051602061464b83398151915280546001600160a01b0319166001600160a01b0392909216919091179055565b613ad383613d12565b600082511180613ae05750805b15611f0f57613aef8383613d52565b50505050565b60c95460ff16610fdf5760405162461bcd60e51b815260206004820152601460248201527314185d5cd8589b194e881b9bdd081c185d5cd95960621b6044820152606401610e2c565b600054610100900460ff16613b655760405162461bcd60e51b8152600401610e2c90614531565b610fdf33613487565b600054610100900460ff16613b955760405162461bcd60e51b8152600401610e2c90614531565b60c9805460ff19169055565b6000805b613bb060018461457c565b60ff16811015613ca05760005b6001613bcc8360ff8716614372565b613bd69190614372565b811015613c975784613be98260016142c7565b60058110613bf957613bf961429b565b6020020151858260058110613c1057613c1061429b565b60200201511115613c8f5784613c278260016142c7565b60058110613c3757613c3761429b565b6020020151858260058110613c4e57613c4e61429b565b6020020151868360058110613c6557613c6561429b565b6020020187613c758560016142c7565b60058110613c8557613c8561429b565b6020020191909152525b600101613bbd565b50600101613ba5565b5082613cad600284614595565b60ff1660058110613cc057613cc061429b565b60200201519392505050565b60c95460ff1615610fdf5760405162461bcd60e51b815260206004820152601060248201526f14185d5cd8589b194e881c185d5cd95960821b6044820152606401610e2c565b613d1b81613a2e565b6040516001600160a01b038216907fbc7cd75a20ee27fd9adebab32041f755214dbc6bffa90cc0225b39da2e5c2d3b90600090a250565b6060613d77838360405180606001604052806027815260200161468b60279139613d7e565b9392505050565b6060600080856001600160a01b031685604051613d9b91906145db565b600060405180830381855af49150503d8060008114613dd6576040519150601f19603f3d011682016040523d82523d6000602084013e613ddb565b606091505b50915091506138a58683838760608315613e56578251600003613e4f576001600160a01b0385163b613e4f5760405162461bcd60e51b815260206004820152601d60248201527f416464726573733a2063616c6c20746f206e6f6e2d636f6e74726163740000006044820152606401610e2c565b508161357d565b61357d8383815115613e6b5781518083602001fd5b8060405162461bcd60e51b8152600401610e2c91906145f7565b8260058101928215613ecd579160200282015b82811115613ecd57825182546001600160a01b0319166001600160a01b03909116178255602090920191600190910190613e98565b50613ed9929150613efb565b5090565b6040518060a001604052806005906020820280368337509192915050565b5b80821115613ed95760008155600101613efc565b80356001600160a01b0381168114613f2757600080fd5b919050565b600060208284031215613f3e57600080fd5b613d7782613f10565b600060208284031215613f5957600080fd5b5035919050565b634e487b7160e01b600052604160045260246000fd5b6040516060810167ffffffffffffffff81118282101715613f9957613f99613f60565b60405290565b604051601f8201601f1916810167ffffffffffffffff81118282101715613fc857613fc8613f60565b604052919050565b60008060408385031215613fe357600080fd5b613fec83613f10565b915060208084013567ffffffffffffffff8082111561400a57600080fd5b818601915086601f83011261401e57600080fd5b81358181111561403057614030613f60565b614042601f8201601f19168501613f9f565b9150808252878482850101111561405857600080fd5b80848401858401376000848284010152508093505050509250929050565b634e487b7160e01b600052602160045260246000fd5b60208101600683106140ae57634e487b7160e01b600052602160045260246000fd5b91905290565b803560ff81168114613f2757600080fd5b600080604083850312156140d857600080fd5b6140e1836140b4565b946020939093013593505050565b600082601f83011261410057600080fd5b60405160a0810181811067ffffffffffffffff8211171561412357614123613f60565b6040528060a084018581111561413857600080fd5b845b818110156141595761414b81613f10565b83526020928301920161413a565b509195945050505050565b6000806000806000806000806000806102808b8d03121561418457600080fd5b61418d8b613f10565b9950602061419d60208d01613f10565b99506141ab60408d01613f10565b98506141b960608d01613f10565b97506141c760808d01613f10565b96506141d68d60a08e016140ef565b95508c61015f8d01126141e857600080fd5b6141f0613f76565b806101a08e018f81111561420357600080fd5b6101408f015b818110156142275761421a81613f10565b8452928401928401614209565b5081975061423481613f10565b9650505050506142476101c08c01613f10565b91506142578c6101e08d016140ef565b90509295989b9194979a5092959850565b6000806040838503121561427b57600080fd5b614284836140b4565b915061429260208401613f10565b90509250929050565b634e487b7160e01b600052603260045260246000fd5b634e487b7160e01b600052601160045260246000fd5b8082018082111561350b5761350b6142b1565b602080825260149082015273151a5b595b1bd8dac81b9bdd08195e1c1a5c995960621b604082015260600190565b805169ffffffffffffffffffff81168114613f2757600080fd5b600080600080600060a0868803121561433a57600080fd5b61434386614308565b945060208601519350604086015192506060860151915061436660808701614308565b90509295509295909350565b8181038181111561350b5761350b6142b1565b808202811582820484141761350b5761350b6142b1565b600060ff821660ff81036143b2576143b26142b1565b60010192915050565b6020808252602c908201527f46756e6374696f6e206d7573742062652063616c6c6564207468726f7567682060408201526b19195b1959d85d1958d85b1b60a21b606082015260800190565b6020808252602c908201527f46756e6374696f6e206d7573742062652063616c6c6564207468726f7567682060408201526b6163746976652070726f787960a01b606082015260800190565b6020808252601690820152754f6e6c7920666f756e646572206f72206c656761637960501b604082015260600190565b60208082526010908201526f14de5cdd195b481a5cc81b1bd8dad95960821b604082015260600190565b6020808252600e908201526d4f6e6c7920677561726469616e7360901b604082015260600190565b634e487b7160e01b600052601260045260246000fd5b6000826144fa576144fa6144d5565b500490565b60006020828403121561451157600080fd5b5051919050565b60006001820161452a5761452a6142b1565b5060010190565b6020808252602b908201527f496e697469616c697a61626c653a20636f6e7472616374206973206e6f74206960408201526a6e697469616c697a696e6760a81b606082015260800190565b60ff828116828216039081111561350b5761350b6142b1565b600060ff8316806145a8576145a86144d5565b8060ff84160491505092915050565b60005b838110156145d25781810151838201526020016145ba565b50506000910152565b600082516145ed8184602087016145b7565b9190910192915050565b60208152600082518060208401526146168160408501602087016145b7565b601f01601f1916919091016040019291505056fe608879471643fec8a3d053e61fed9b5bb710b0ae4b697d1678d92eb5ea6d00be360894a13ba1a3210667c828492db98dca3e2076cc3735a920a3ca505d382bbc0f63b8bffe147a0fe1362da0e6e3ae0fcffce5497482f4d438715fe53890acf1416464726573733a206c6f772d6c6576656c2064656c65676174652063616c6c206661696c65646ff3a4003b90be84595beb5f6acb9d54f88bd3e6dd4887ca67e53dc9645465eaa264697066735822122095121854e31d8a9969cf1030e5fecfb0fed52d77ffd194e6f5d456eb1ad0d39c64736f6c63430008180033","abi":[{"anonymous":false,"inputs":[{"indexed":false,"internalType":"address","name":"previousAdmin","type":"address"},{"indexed":false,"internalType":"address","name":"newAdmin","type":"address"}],"name":"AdminChanged","type":"event"},{"anonymous":false,"inputs":[{"indexed":true,"internalType":"address","name":"beacon","type":"address"}],"name":"BeaconUpgraded","type":"event"},{"anonymous":false,"inputs":[{"indexed":false,"internalType":"uint256","name":"timestamp","type":"uint256"}],"name":"DeadManTriggered","type":"event"},{"anonymous":false,"inputs":[{"indexed":true,"internalType":"address","name":"guardian","type":"address"},{"indexed":false,"internalType":"uint256","name":"timestamp","type":"uint256"}],"name":"DeathProofSubmitted","type":"event"},{"anonymous":false,"inputs":[{"indexed":false,"internalType":"uint256","name":"timestamp","type":"uint256"}],"name":"FirstPublicPurchaseConfirmed","type":"event"},{"anonymous":false,"inputs":[{"indexed":true,"internalType":"address","name":"guardian","type":"address"}],"name":"GuardianPauseApproved","type":"event"},{"anonymous":false,"inputs":[{"indexed":false,"internalType":"uint256","name":"timestamp","type":"uint256"}],"name":"HeartbeatReceived","type":"event"},{"anonymous":false,"inputs":[{"indexed":false,"internalType":"uint8","name":"version","type":"uint8"}],"name":"Initialized","type":"event"},{"anonymous":false,"inputs":[{"indexed":true,"internalType":"address","name":"legacyWallet","type":"address"}],"name":"LegacyModeActivated","type":"event"},{"anonymous":false,"inputs":[{"indexed":false,"internalType":"uint8","name":"index","type":"uint8"},{"indexed":false,"internalType":"address","name":"newOracle","type":"address"}],"name":"OracleAddressUpdated","type":"event"},{"anonymous":false,"inputs":[{"indexed":false,"internalType":"uint256","name":"timestamp","type":"uint256"},{"indexed":false,"internalType":"uint256","name":"responsiveOracles","type":"uint256"}],"name":"OracleFailureDetected","type":"event"},{"anonymous":false,"inputs":[{"indexed":false,"internalType":"uint256","name":"timestamp","type":"uint256"}],"name":"OracleRecovered","type":"event"},{"anonymous":false,"inputs":[{"indexed":true,"internalType":"address","name":"previousOwner","type":"address"},{"indexed":true,"internalType":"address","name":"newOwner","type":"address"}],"name":"OwnershipTransferred","type":"event"},{"anonymous":false,"inputs":[{"indexed":false,"internalType":"address","name":"account","type":"address"}],"name":"Paused","type":"event"},{"anonymous":false,"inputs":[{"indexed":true,"internalType":"address","name":"pioneer","type":"address"}],"name":"PioneerRewardActivated","type":"event"},{"anonymous":false,"inputs":[{"indexed":true,"internalType":"address","name":"pioneer","type":"address"},{"indexed":false,"internalType":"uint256","name":"timestamp","type":"uint256"}],"name":"PioneerRewardDeactivated","type":"event"},{"anonymous":false,"inputs":[{"indexed":true,"internalType":"address","name":"by","type":"address"},{"indexed":false,"internalType":"uint256","name":"timestamp","type":"uint256"}],"name":"Resurrected","type":"event"},{"anonymous":false,"inputs":[{"indexed":true,"internalType":"address","name":"pioneer","type":"address"}],"name":"ResurrectionApproved","type":"event"},{"anonymous":false,"inputs":[{"indexed":true,"internalType":"enum GaiaSpeakProtocol.Stage","name":"newStage","type":"uint8"},{"indexed":true,"internalType":"enum GaiaSpeakProtocol.Stage","name":"previousStage","type":"uint8"}],"name":"StageChanged","type":"event"},{"anonymous":false,"inputs":[{"indexed":true,"internalType":"bytes32","name":"actionId","type":"bytes32"}],"name":"TimelockExecuted","type":"event"},{"anonymous":false,"inputs":[{"indexed":true,"internalType":"bytes32","name":"actionId","type":"bytes32"},{"indexed":false,"internalType":"uint256","name":"executeAfter","type":"uint256"}],"name":"TimelockScheduled","type":"event"},{"anonymous":false,"inputs":[{"indexed":false,"internalType":"address","name":"account","type":"address"}],"name":"Unpaused","type":"event"},{"anonymous":false,"inputs":[{"indexed":true,"internalType":"address","name":"implementation","type":"address"}],"name":"Upgraded","type":"event"},{"anonymous":false,"inputs":[{"indexed":false,"internalType":"string","name":"walletType","type":"string"},{"indexed":false,"internalType":"address","name":"newAddress","type":"address"}],"name":"WalletUpdated","type":"event"},{"inputs":[],"name":"HEARTBEAT_INTERVAL","outputs":[{"internalType":"uint256","name":"","type":"uint256"}],"stateMutability":"view","type":"function"},{"inputs":[],"name":"TIMELOCK_DELAY","outputs":[{"internalType":"uint256","name":"","type":"uint256"}],"stateMutability":"view","type":"function"},{"inputs":[],"name":"approveGuardianPause","outputs":[],"stateMutability":"nonpayable","type":"function"},{"inputs":[],"name":"approvePioneerResurrection","outputs":[],"stateMutability":"nonpayable","type":"function"},{"inputs":[],"name":"checkRedStage","outputs":[],"stateMutability":"nonpayable","type":"function"},{"inputs":[],"name":"companyProofId","outputs":[{"internalType":"bytes32","name":"","type":"bytes32"}],"stateMutability":"view","type":"function"},{"inputs":[],"name":"confirmFirstPublicPurchase","outputs":[],"stateMutability":"nonpayable","type":"function"},{"inputs":[],"name":"currentStage","outputs":[{"internalType":"enum GaiaSpeakProtocol.Stage","name":"","type":"uint8"}],"stateMutability":"view","type":"function"},{"inputs":[{"internalType":"address","name":"pioneer","type":"address"}],"name":"deactivatePioneerReward","outputs":[],"stateMutability":"nonpayable","type":"function"},{"inputs":[],"name":"deadManActive","outputs":[{"internalType":"bool","name":"","type":"bool"}],"stateMutability":"view","type":"function"},{"inputs":[{"internalType":"bytes32","name":"","type":"bytes32"}],"name":"deathProofSubmitted","outputs":[{"internalType":"bool","name":"","type":"bool"}],"stateMutability":"view","type":"function"},{"inputs":[],"name":"ethUsdFeed","outputs":[{"internalType":"contract AggregatorV3Interface","name":"","type":"address"}],"stateMutability":"view","type":"function"},{"inputs":[],"name":"familyProofId","outputs":[{"internalType":"bytes32","name":"","type":"bytes32"}],"stateMutability":"view","type":"function"},{"inputs":[],"name":"firstPublicPurchaseComplete","outputs":[{"internalType":"bool","name":"","type":"bool"}],"stateMutability":"view","type":"function"},{"inputs":[],"name":"founderWallet","outputs":[{"internalType":"address","name":"","type":"address"}],"stateMutability":"view","type":"function"},{"inputs":[],"name":"getEthPriceUSD","outputs":[{"internalType":"uint256","name":"","type":"uint256"}],"stateMutability":"view","type":"function"},{"inputs":[],"name":"getGoldPriceUSD","outputs":[{"internalType":"uint256","name":"","type":"uint256"}],"stateMutability":"view","type":"function"},{"inputs":[],"name":"getOracleHealth","outputs":[{"internalType":"bool","name":"chainlinkHealthy","type":"bool"},{"internalType":"uint256","name":"responsiveOracles","type":"uint256"},{"internalType":"bool","name":"systemHealthy","type":"bool"}],"stateMutability":"view","type":"function"},{"inputs":[],"name":"getSilverPriceUSD","outputs":[{"internalType":"uint256","name":"","type":"uint256"}],"stateMutability":"view","type":"function"},{"inputs":[],"name":"goldReserveWallet","outputs":[{"internalType":"address","name":"","type":"address"}],"stateMutability":"view","type":"function"},{"inputs":[],"name":"goldTokenContract","outputs":[{"internalType":"address","name":"","type":"address"}],"stateMutability":"view","type":"function"},{"inputs":[{"internalType":"address","name":"","type":"address"}],"name":"guardianPauseApproval","outputs":[{"internalType":"bool","name":"","type":"bool"}],"stateMutability":"view","type":"function"},{"inputs":[],"name":"guardianUnpause","outputs":[],"stateMutability":"nonpayable","type":"function"},{"inputs":[{"internalType":"uint256","name":"","type":"uint256"}],"name":"guardians","outputs":[{"internalType":"address","name":"","type":"address"}],"stateMutability":"view","type":"function"},{"inputs":[{"internalType":"address","name":"","type":"address"}],"name":"hasApprovedResurrection","outputs":[{"internalType":"bool","name":"","type":"bool"}],"stateMutability":"view","type":"function"},{"inputs":[],"name":"heartbeat","outputs":[],"stateMutability":"nonpayable","type":"function"},{"inputs":[{"internalType":"address","name":"_founder","type":"address"},{"internalType":"address","name":"_goldReserve","type":"address"},{"internalType":"address","name":"_silverReserve","type":"address"},{"internalType":"address","name":"_operations","type":"address"},{"internalType":"address","name":"_referral","type":"address"},{"internalType":"address[5]","name":"_pioneers","type":"address[5]"},{"internalType":"address[3]","name":"_guardians","type":"address[3]"},{"internalType":"address","name":"_ethUsdFeed","type":"address"},{"internalType":"address","name":"_silverUsdFeed","type":"address"},{"internalType":"address[5]","name":"_oracleAddresses","type":"address[5]"}],"name":"initialize","outputs":[],"stateMutability":"nonpayable","type":"function"},{"inputs":[{"internalType":"address","name":"","type":"address"}],"name":"isGuardian","outputs":[{"internalType":"bool","name":"","type":"bool"}],"stateMutability":"view","type":"function"},{"inputs":[{"internalType":"address","name":"addr","type":"address"}],"name":"isPioneer","outputs":[{"internalType":"bool","name":"","type":"bool"}],"stateMutability":"view","type":"function"},{"inputs":[],"name":"lastHeartbeat","outputs":[{"internalType":"uint256","name":"","type":"uint256"}],"stateMutability":"view","type":"function"},{"inputs":[],"name":"lastOracleHealthCheck","outputs":[{"internalType":"uint256","name":"","type":"uint256"}],"stateMutability":"view","type":"function"},{"inputs":[{"internalType":"address","name":"","type":"address"}],"name":"lastPurchaseBlock","outputs":[{"internalType":"uint256","name":"","type":"uint256"}],"stateMutability":"view","type":"function"},{"inputs":[],"name":"legacyModeActive","outputs":[{"internalType":"bool","name":"","type":"bool"}],"stateMutability":"view","type":"function"},{"inputs":[],"name":"legacyWallet","outputs":[{"internalType":"address","name":"","type":"address"}],"stateMutability":"view","type":"function"},{"inputs":[{"internalType":"uint256","name":"","type":"uint256"}],"name":"majorPioneerWallets","outputs":[{"internalType":"address","name":"","type":"address"}],"stateMutability":"view","type":"function"},{"inputs":[],"name":"nftContract","outputs":[{"internalType":"address","name":"","type":"address"}],"stateMutability":"view","type":"function"},{"inputs":[],"name":"operationsWallet","outputs":[{"internalType":"address","name":"","type":"address"}],"stateMutability":"view","type":"function"},{"inputs":[{"internalType":"uint256","name":"","type":"uint256"}],"name":"oracleAddresses","outputs":[{"internalType":"address","name":"","type":"address"}],"stateMutability":"view","type":"function"},{"inputs":[],"name":"oracleHealthy","outputs":[{"internalType":"bool","name":"","type":"bool"}],"stateMutability":"view","type":"function"},{"inputs":[],"name":"owner","outputs":[{"internalType":"address","name":"","type":"address"}],"stateMutability":"view","type":"function"},{"inputs":[],"name":"pauseApprovalCount","outputs":[{"internalType":"uint8","name":"","type":"uint8"}],"stateMutability":"view","type":"function"},{"inputs":[],"name":"paused","outputs":[{"internalType":"bool","name":"","type":"bool"}],"stateMutability":"view","type":"function"},{"inputs":[{"internalType":"address","name":"","type":"address"}],"name":"pioneerRewardActive","outputs":[{"internalType":"bool","name":"","type":"bool"}],"stateMutability":"view","type":"function"},{"inputs":[],"name":"proxiableUUID","outputs":[{"internalType":"bytes32","name":"","type":"bytes32"}],"stateMutability":"view","type":"function"},{"inputs":[],"name":"referralWallet","outputs":[{"internalType":"address","name":"","type":"address"}],"stateMutability":"view","type":"function"},{"inputs":[],"name":"renounceOwnership","outputs":[],"stateMutability":"nonpayable","type":"function"},{"inputs":[],"name":"resurrectionApprovalCount","outputs":[{"internalType":"uint8","name":"","type":"uint8"}],"stateMutability":"view","type":"function"},{"inputs":[{"internalType":"address","name":"w","type":"address"}],"name":"setFounderWallet","outputs":[],"stateMutability":"nonpayable","type":"function"},{"inputs":[{"internalType":"address","name":"w","type":"address"}],"name":"setGoldReserveWallet","outputs":[],"stateMutability":"nonpayable","type":"function"},{"inputs":[{"internalType":"address","name":"t","type":"address"}],"name":"setGoldTokenContract","outputs":[],"stateMutability":"nonpayable","type":"function"},{"inputs":[{"internalType":"address","name":"_legacy","type":"address"}],"name":"setLegacyWallet","outputs":[],"stateMutability":"nonpayable","type":"function"},{"inputs":[{"internalType":"address","name":"n","type":"address"}],"name":"setNFTContract","outputs":[],"stateMutability":"nonpayable","type":"function"},{"inputs":[{"internalType":"address","name":"w","type":"address"}],"name":"setOperationsWallet","outputs":[],"stateMutability":"nonpayable","type":"function"},{"inputs":[{"internalType":"uint8","name":"index","type":"uint8"},{"internalType":"address","name":"oracle","type":"address"}],"name":"setOracleAddress","outputs":[],"stateMutability":"nonpayable","type":"function"},{"inputs":[{"internalType":"address","name":"w","type":"address"}],"name":"setSilverReserveWallet","outputs":[],"stateMutability":"nonpayable","type":"function"},{"inputs":[{"internalType":"address","name":"t","type":"address"}],"name":"setSilverTokenContract","outputs":[],"stateMutability":"nonpayable","type":"function"},{"inputs":[],"name":"silverReserveWallet","outputs":[{"internalType":"address","name":"","type":"address"}],"stateMutability":"view","type":"function"},{"inputs":[],"name":"silverTokenContract","outputs":[{"internalType":"address","name":"","type":"address"}],"stateMutability":"view","type":"function"},{"inputs":[],"name":"silverUsdFeed","outputs":[{"internalType":"contract AggregatorV3Interface","name":"","type":"address"}],"stateMutability":"view","type":"function"},{"inputs":[{"internalType":"uint8","name":"proofType","type":"uint8"},{"internalType":"bytes32","name":"proofHash","type":"bytes32"}],"name":"submitDeathProof","outputs":[],"stateMutability":"nonpayable","type":"function"},{"inputs":[],"name":"systemLocked","outputs":[{"internalType":"bool","name":"","type":"bool"}],"stateMutability":"view","type":"function"},{"inputs":[],"name":"thirdPartyProofId","outputs":[{"internalType":"bytes32","name":"","type":"bytes32"}],"stateMutability":"view","type":"function"},{"inputs":[{"internalType":"bytes32","name":"","type":"bytes32"}],"name":"timelockScheduled","outputs":[{"internalType":"uint256","name":"","type":"uint256"}],"stateMutability":"view","type":"function"},{"inputs":[{"internalType":"address","name":"newOwner","type":"address"}],"name":"transferOwnership","outputs":[],"stateMutability":"nonpayable","type":"function"},{"inputs":[],"name":"transitionToBlue","outputs":[],"stateMutability":"nonpayable","type":"function"},{"inputs":[],"name":"transitionToGold","outputs":[],"stateMutability":"nonpayable","type":"function"},{"inputs":[],"name":"transitionToWhite","outputs":[],"stateMutability":"nonpayable","type":"function"},{"inputs":[],"name":"transitionToYellow","outputs":[],"stateMutability":"nonpayable","type":"function"},{"inputs":[],"name":"triggerDeadManSwitch","outputs":[],"stateMutability":"nonpayable","type":"function"},{"inputs":[{"internalType":"address","name":"newImplementation","type":"address"}],"name":"upgradeTo","outputs":[],"stateMutability":"nonpayable","type":"function"},{"inputs":[{"internalType":"address","name":"newImplementation","type":"address"},{"internalType":"bytes","name":"data","type":"bytes"}],"name":"upgradeToAndCall","outputs":[],"stateMutability":"payable","type":"function"},{"inputs":[{"internalType":"uint256","name":"usdAmount18","type":"uint256"}],"name":"usdToWei","outputs":[{"internalType":"uint256","name":"","type":"uint256"}],"stateMutability":"view","type":"function"}]}