{"address":"0x1D1dE164874ceCdbAf326B7c4Bd2b0B87932a953","bytecode":"0x60a080604052346100315730608052613bd790816100378239608051818181611afd01528181611c2a01526122890152f35b600080fdfe608080604052600436101561001357600080fd5b60003560e01c9081630c68ba21146129a05750806318af61be14612977578063196f0d9714612945578063197d63a1146129185780631c27304a146128d85780631d847e98146128af5780631f0e1dd8146127e95780631f3b4c4d146127bb5780631f9c09c21461279c57806326c9e0b21461267e5780632cc65a67146126575780632df2946d1461262a578063337247fa1461260057806334917bbc1461246e57806334d1c8fe146124505780633659cfe6146122645780633defb96214612201578063435720a31461216d57806344f428fa1461213b578063471ae3121461208a5780634acf775a146120535780634b1a2df514611fbc5780634ea7428514611e985780634f1ef28614611bae57806352d1902d14611aea5780635ba1c1a914611acc5780635bf5d54c14611aa25780635c975abb14611a7f5780636012652014611a60578063635dbdd014611a20578063643fade2146119b257806369156ba31461197557806369c1a712146119565780636aa699471461192f578063710d6e5d146118e2578063715018a6146118855780638009b7bd1461185b5780638384006e14611694578063860879671461167057806386cbf53a146116355780638c29a870146116115780638da5cb5b146115e85780638fb5d6831461113c5780639cbf5ff614610e445780639cfff01414610e1a578063a00f26ec14610dfb578063a0d75cdd14610c76578063a16d998214610c54578063a23d3c3514610c27578063a6a8613014610b46578063a7ccabdf14610b03578063a97dadfa14610ae4578063b68f9bd414610a6a578063bd028a1814610a38578063cee3605314610a0f578063cfd872ed146109eb578063d03cea6d146109c1578063d56d229d14610997578063d5d1e43614610947578063d84bd8d8146107db578063d9bdc563146107b2578063dc4bfb851461077b578063dc567e4414610752578063dc7ac667146105f2578063e1f14874146105c9578063ee0083f3146104b6578063ee4d30ed14610476578063ee5ecc891461044d578063f2fde38b146103be578063f560c73414610387578063f5e926e7146103655763fd72e22a1461033757600080fd5b346103605760003660031901126103605760fe546040516001600160a01b039091168152602090f35b600080fd5b3461036057600036600319011261036057602060ff6101185416604051908152f35b346103605760203660031901126103605760043560038110156103605761011301546040516001600160a01b039091168152602090f35b34610360576020366003190112610360576103d76129dc565b6103df61389c565b6001600160a01b038116156103f9576103f7906138f4565b005b60405162461bcd60e51b815260206004820152602660248201527f4f776e61626c653a206e6577206f776e657220697320746865207a65726f206160448201526564647265737360d01b6064820152608490fd5b34610360576020366003190112610360576103f76104696129dc565b61047161389c565b6137d3565b34610360576020366003190112610360576001600160a01b036104976129dc565b16600052610117602052602060ff604060002054166040519015158152f35b3461036057600036600319011261036057336000526101166020526104e260ff604060002054166132ba565b6101195462278d0081018091116105b3574211156105755761011a805460ff811661053f576101019061ffff19161790557f0dbe99951a2381a5f71dc87cd113a8c3cb32eaf9c50739c58142ad43def37fab6020604051428152a1005b60405162461bcd60e51b815260206004820152600e60248201526d416c72656164792061637469766560901b6044820152606490fd5b60405162461bcd60e51b8152602060048201526016602482015275486561727462656174207374696c6c2061637469766560501b6044820152606490fd5b634e487b7160e01b600052601160045260246000fd5b346103605760003660031901126103605760ff546040516001600160a01b039091168152602090f35b346103605760003660031901126103605761010954604051633fabe5a360e21b81529060a090829060049082906001600160a01b03165afa801561074657600091600091610710575b5060008213156106d457610652610e109142612cc8565b11610699576402540be400908181029181830414811517156105b357662386f26fc100000290808204620f424014901517156105b3576020906301da99f460405191048152f35b60405162461bcd60e51b815260206004820152601360248201527253696c766572206f7261636c65207374616c6560681b6044820152606490fd5b60405162461bcd60e51b8152602060048201526014602482015273496e76616c69642073696c76657220707269636560601b6044820152606490fd5b9050610734915060a03d60a01161073f575b61072c8183612a54565b810190612c93565b50925050908261063b565b503d610722565b6040513d6000823e3d90fd5b34610360576020366003190112610360576103f761076e6129dc565b61077661389c565b613709565b346103605760203660031901126103605760043560058110156103605761010a01546040516001600160a01b039091168152602090f35b346103605760003660031901126103605760fd546040516001600160a01b039091168152602090f35b3461036057600036600319011261036057336000526020610116815261080860ff604060002054166132ba565b336000526101179081815261082560ff6040600020541615612cd5565b3360005281815260406000209060019060ff19926001848254161790556101189383855460ff610856818316612d56565b1691829116178655600260405191337f9367992e12a3243397ef8e8ce4bebedde80cd2feeeae3f6563edc1578570cb3a600080a2101561089257005b60c9549060ff8216610912575084600191161760c9557f62e78cea01bee320cd4e420270b5ea74000d11b0c9f74754ebdbfc544b05a25882604051338152a160005b600381106108ea57505050508154169055600080f35b6101138101546001600160a01b031660009081528284526040902080548616905583016108d4565b62461bcd60e51b815260048101849052601060248201526f14185d5cd8589b194e881c185d5cd95960821b6044820152606490fd5b34610360576020366003190112610360576109606129dc565b61096861389c565b610106805490916001600160a01b039061098482841615613157565b6001600160a01b03199092169116179055005b3461036057600036600319011261036057610107546040516001600160a01b039091168152602090f35b3461036057600036600319011261036057610105546040516001600160a01b039091168152602090f35b3461036057600036600319011261036057602060ff61011254166040519015158152f35b34610360576020366003190112610360576103f7610a2b6129dc565b610a3361389c565b61362d565b34610360576040366003190112610360576103f7610a54612a92565b610a5c6129f2565b90610a6561389c565b6134f1565b3461036057600036600319011261036057610a9d60018060a01b038060fb5460101c163314908115610ab8575b50612e29565b610ab060ff61011a5460081c1615613017565b6103f761334f565b61012054600881901c60ff16925082610ad4575b505082610a97565b90915060101c1633148280610acc565b3461036057600036600319011261036057602061011e54604051908152f35b3461036057602036600319011261036057610b1c6129dc565b610b2461389c565b61010780546001600160a01b0319166001600160a01b03909216919091179055005b346103605760203660031901126103605761010854604051633fabe5a360e21b815290600480359160a091849182906001600160a01b03165afa801561074657600092600091610bff575b50600083139081610be8575b5015610360576402540be400918281029281840414901517156105b357670de0b6b3a7640000908181029181830414901517156105b357602091610be09161332f565b604051908152f35b610e109150610bf79042612cc8565b111583610b9d565b9050610c1b91925060a03d60a01161073f5761072c8183612a54565b50939250509183610b91565b346103605760003660031901126103605760fb5460405160109190911c6001600160a01b03168152602090f35b3461036057600036600319011261036057602060ff6101205416604051908152f35b3461036057600036600319011261036057610c8f612eaf565b60fb5491925060ff82166006811015610d445760041490811580610df3575b15610d5a5750505060fb54600660ff82161015610d445761ffff198116600891821b61ff00161760041760fb819055610110805460ff191690554261010f55901c60ff16906006821015610d44577fbff04ac2c36bb3047470a06001c2c5a32e672831d7a00148fd1b49ab9c8b997c916040918251916004600080516020613b42833981519152600080a34282526020820152a1005b634e487b7160e01b600052602160045260246000fd5b9192509081610deb575b50610d6b57005b60ff8160081c16906006821015610d445760ff91821980921617908160fb556001610110918254161790554261010f5560081c166006811015610d445760207f60aa05ed835b3942405104d91925724151f26fa7f398c7632b2066c73c79d15291600460405191600080516020613b42833981519152600080a3428152a1005b905082610d64565b508015610cae565b3461036057600036600319011261036057602061010f54604051908152f35b3461036057600036600319011261036057610106546040516001600160a01b039091168152602090f35b3461036057600036600319011261036057610e5d612e6e565b60405190610e6a82612a38565b60a036833760009060005b6005811061109c57505060ff81169060038210611057576000906000199083820160ff81811692911190815b6105b35782851015610f3d5760005b610eba8688612cc8565b8581019081116105b357811015610f3057610ed5818961331e565b5190600181018082116105b357600192610eef828c61331e565b5110610efd575b5001610eb0565b610f07818b61331e565b5190610f1e610f16848d61331e565b51918c61331e565b52610f29828b61331e565b5289610ef6565b5060019094019381610ea1565b868691610f52607f60019260011c168361331e565b519260009260005b828110610fd85785600360ff871610610f9357620f4240908181029181830414901517156105b3576020906301da99f460405191048152f35b60405162461bcd60e51b815260206004820152601760248201527f4f7261636c6520636f6e73656e737573206661696c65640000000000000000006044820152606490fd5b85610fe3828461331e565b51111561103e57610ffe86610ff8838561331e565b51612cc8565b6064908181029181830414901517156105b35761101d8760029261332f565b111561102b575b8301610f5a565b936110368491612d56565b949050611024565b61105261104b828461331e565b5187612cc8565b610ffe565b60405162461bcd60e51b815260206004820152601d60248201527f496e73756666696369656e74206f7261636c6520726573706f6e7365730000006044820152606490fd5b6001600160a01b036110ae828461331e565b51166040518091634e5faffb60e11b825281600460209384935afa91829160009361110c575b50506110e4575b50600101610e75565b80156110db5783611105916110ff60ff60019597168861331e565b52612d56565b92906110db565b9080929350813d8311611135575b6111248183612a54565b8101031261036057519086806110d4565b503d61111a565b3461036057610280366003190112610360576111566129dc565b61115e6129f2565b6044356001600160a01b0381168103610360576064356001600160a01b038116810361036057608435926001600160a01b0384168403610360573660c3121561036057604051936111ae85612a38565b610144853682116103605760a4905b8282106115d057505036610163121561036057604051906111dd82612a1c565b816101a49136831161036057905b8282106115b857505035916001600160a01b0383168303610360576101c435946001600160a01b038616860361036057366102031215610360576040519661123288612a38565b61028488368211610360576101e4905b8282106115a0575050506000549960ff8b60081c16159a8b809c611593575b801561157c575b156115205760ff1981166001176000558b61150e575b5061129960ff60005460081c166112948161393d565b61393d565b6112a2336138f4565b6112cf60ff60005460081c166112b78161393d565b6112c08161393d565b60ff1960c9541660c95561393d565b6112d8816138f4565b60fb549062010000600160b01b039060101b169062010000600160b01b0319161760fb556bffffffffffffffffffffffff60a01b9560018060a01b03168660fc54161760fc5560018060a01b03168560fd54161760fd5560018060a01b03168460fe54161760fe5560018060a01b03168360ff54161760ff558560005b600581106114ef57505060005b6003811061149b575050610108805483166001600160a01b039283161790556101098054909216921691909117905560005b6005811061147c57505060005b60058110611410578260ff1960fb541660fb55610110600160ff1982541617905561011260ff19815416905542610119556113d857005b61ff0019600054166000557f7f26b83ff96e1f2b6a682f133852f6798a09c465da95921460cefb3847402498602060405160018152a1005b6001906001600160a01b03611425828561331e565b511660005261011160205260406000208260ff19825416179055818060a01b0361144f828561331e565b51167f3e2a94f54f8e2fe96e47dfaff2e4c6827fe0d5586555db135fd9083981ddacfb600080a2016113a1565b81516001600160a01b031661010a820155602090910190600101611394565b6001906001600160a01b036114b082856132f7565b511681610113019086825416179055818060a01b036114cf82856132f7565b511660005261011660205260406000208260ff1982541617905501611362565b81516001600160a01b0316610100820155602090910190600101611355565b61ffff1916610101176000558b61127e565b60405162461bcd60e51b815260206004820152602e60248201527f496e697469616c697a61626c653a20636f6e747261637420697320616c72656160448201526d191e481a5b9a5d1a585b1a5e995960921b6064820152608490fd5b50303b1580156112685750600160ff821614611268565b50600160ff821610611261565b602080916115ad84612a08565b815201910190611242565b602080916115c584612a08565b8152019101906111eb565b602080916115dd84612a08565b8152019101906111bd565b34610360576000366003190112610360576097546040516001600160a01b039091168152602090f35b3461036057600036600319011261036057602060ff61011a54166040519015158152f35b34610360576020366003190112610360576001600160a01b036116566129dc565b166000526101226020526020604060002054604051908152f35b3461036057600036600319011261036057602060ff61011054166040519015158152f35b34610360576040366003190112610360576116ad612a92565b33600052602090610116825260ff906116cc82604060002054166132ba565b6116da8261011a5416612d14565b60405190828483019116918282526024356040820152604081526116fd81612a1c565b51902080600052600261011b928386526040600020600160ff198254161790558015611851575b60018114611847575b1461183d575b506040514281527faa7e2098a10d8f5c1fca9a96bdfa08e09b36ee74640df852fcdf58a8d2488e88843392a261011c549261011d5461011e54908515159586611833575b86611829575b86611811575b50856117f9575b50846117e0575b5050505061179b57005b610120805461ff001916610100179081905560101c6001600160a01b03167f254f711868330eeda4a7f0fc0ffb2ef59d33b9bb4f0ad2cff9bfaa9094af906e600080a2005b9091929350600052526040600020541681808080611791565b9094506000528181528260406000205416938561178a565b90955060005282825283604060002054169486611783565b821515965061177d565b8115159650611777565b61011e5583611733565b8261011d5561172d565b8261011c55611724565b3461036057600036600319011261036057610108546040516001600160a01b039091168152602090f35b346103605760003660031901126103605761189e61389c565b609780546001600160a01b031981169091556000906001600160a01b03167f8be0079c531659141344cd1fd0a4f28419497f9722a3daafe3b4186f6b6457e08280a3005b346103605760003660031901126103605761191460018060a01b038060fb5460101c163314908115610ab85750612e29565b61192760ff61011a5460081c1615613017565b6103f7613191565b3461036057600036600319011261036057602060ff6101205460081c166040519015158152f35b3461036057600036600319011261036057602061011954604051908152f35b346103605760203660031901126103605761198e6129dc565b61199661389c565b610105805490916001600160a01b039061098482841615613157565b34610360576020366003190112610360576103f76119ce6129dc565b6119ef60018060a01b038060fb5460101c1633149081156119f45750612e29565b613056565b61012054600881901c60ff16925082611a10575b505084610a97565b90915060101c1633148480611a08565b34610360576020366003190112610360576001600160a01b03611a416129dc565b1660005261011f602052602060ff604060002054166040519015158152f35b3461036057600036600319011261036057602061011c54604051908152f35b3461036057600036600319011261036057602060ff60c954166040519015158152f35b346103605760003660031901126103605760ff60fb54166040516006821015610d44576020918152f35b346103605760003660031901126103605760206040516202a3008152f35b34610360576000366003190112610360577f00000000000000000000000000000000000000000000000000000000000000006001600160a01b03163003611b43576020604051600080516020613b228339815191528152f35b60405162461bcd60e51b815260206004820152603860248201527f555550535570677261646561626c653a206d757374206e6f742062652063616c60448201527f6c6564207468726f7567682064656c656761746563616c6c00000000000000006064820152608490fd5b604036600319011261036057611bc26129dc565b6024359067ffffffffffffffff82116103605736602383011215610360578160040135611bee81612a76565b611bfb6040519182612a54565b818152602091828201943660248383010111610360578160009260248693018837830101526001600160a01b037f0000000000000000000000000000000000000000000000000000000000000000811690611c5830831415612d67565b611c75600080516020613b22833981519152928284541614612dc8565b611c7d61389c565b7f4910fdfa16fed3260ed0e7147f7cc6da11a60208b5b9406d12a635614ffd91435460ff1615611cb557505050506103f7915061399d565b8492939416906040516352d1902d60e01b81528581600481865afa60009181611e69575b50611d3a5760405162461bcd60e51b815260048101879052602e60248201527f45524331393637557067726164653a206e657720696d706c656d656e7461746960448201526d6f6e206973206e6f74205555505360901b6064820152608490fd5b94939403611e1257611d4b8261399d565b7fbc7cd75a20ee27fd9adebab32041f755214dbc6bffa90cc0225b39da2e5c2d3b600080a2825115801590611e0a575b611d8157005b6000806103f79560405195611d9587612a1c565b602787527f416464726573733a206c6f772d6c6576656c2064656c65676174652063616c6c86880152660819985a5b195960ca1b60408801525190845af4903d15611e01573d611de481612a76565b90611df26040519283612a54565b8152600081943d92013e613a2d565b60609250613a2d565b506001611d7b565b60405162461bcd60e51b815260048101849052602960248201527f45524331393637557067726164653a20756e737570706f727465642070726f786044820152681a58589b195555525160ba1b6064820152608490fd5b9091508681813d8311611e91575b611e818183612a54565b8101031261036057519088611cd9565b503d611e77565b346103605760003660031901126103605760fb54611ecb60018060a01b03808360101c163314908115611f905750612e29565b611ede60ff61011a5460081c1615613017565b60ff81166006811015610d4457611f5c5760ff610112541615611f1e5760019060ff19161760fb5560006001600080516020613b428339815191528280a3005b60405162461bcd60e51b8152602060048201526016602482015275139bc81c1d589b1a58c81c1d5c98da185cd9481e595d60521b6044820152606490fd5b60405162461bcd60e51b815260206004820152600c60248201526b2737ba1034b71023a922a2a760a11b6044820152606490fd5b61012054600881901c60ff16925082611fac575b505083610a97565b90915060101c1633148380611fa4565b3461036057602036600319011261036057611fd56129dc565b610105546001600160a01b039190821633148015612045575b611ff790612c39565b16806000526101116020526040600020805460ff811661201357005b60ff191690557f6c6dee804228ba27c91b916f12cc2f32aaef1be9a7d7af1f62173c8124a3f7936020604051428152a2005b506101065482163314611fee565b346103605760203660031901126103605760043560058110156103605761010001546040516001600160a01b039091168152602090f35b346103605760003660031901126103605760fb546120bd60018060a01b03808360101c163314908115611f905750612e29565b6120d060ff61011a5460081c1615613017565b60ff81166006811015610d44576003036121085760059060ff19161760fb5560036005600080516020613b42833981519152600080a3005b60405162461bcd60e51b815260206004820152600b60248201526a4e6f7420696e20424c554560a81b6044820152606490fd5b34610360576000366003190112610360576060612156612eaf565b906040519215158352602083015215156040820152f35b346103605760003660031901126103605761218661389c565b60c95460ff8116156121c55760ff191660c9557f5db9ee0a495bf2e6ff9c91a7834c1ba4fdd244a5e8aa4e537bd38aeae4b073aa6020604051338152a1005b60405162461bcd60e51b815260206004820152601460248201527314185d5cd8589b194e881b9bdd081c185d5cd95960621b6044820152606490fd5b346103605760003660031901126103605761223360018060a01b038060fb5460101c163314908115610ab85750612e29565b42610119557fd8b05d15738a23c939aa6d41d2dde7ef5495c25cdc0f804af1d4f0cb1bb4b31f6020604051428152a1005b34610360576020806003193601126103605761227e6129dc565b6001600160a01b03917f000000000000000000000000000000000000000000000000000000000000000083166122b630821415612d67565b6122d3600080516020613b22833981519152918583541614612dc8565b6122db61389c565b604051908282019482861067ffffffffffffffff87111761243a57856040526000835260ff7f4910fdfa16fed3260ed0e7147f7cc6da11a60208b5b9406d12a635614ffd9143541660001461233857505050506103f7915061399d565b8492939416906040516352d1902d60e01b81528581600481865afa6000918161240b575b506123bd5760405162461bcd60e51b815260048101879052602e60248201527f45524331393637557067726164653a206e657720696d706c656d656e7461746960448201526d6f6e206973206e6f74205555505360901b6064820152608490fd5b94939403611e12576123ce8261399d565b7fbc7cd75a20ee27fd9adebab32041f755214dbc6bffa90cc0225b39da2e5c2d3b600080a282511580159061240357611d8157005b506000611d7b565b9091508681813d8311612433575b6124238183612a54565b810103126103605751908861235c565b503d612419565b634e487b7160e01b600052604160045260246000fd5b3461036057600036600319011261036057602060405162278d008152f35b34610360576000366003190112610360576000805b600581106125d9575b50156125a4573360005261011f6020816020526124b160ff6040600020541615612cd5565b61011a916124c260ff845416612d14565b336000528060205260406000209060019360ff1992600184825416179055610120908154600360ff6124f5818416612d56565b1680878416178555337fb727ec1b4bfa393f33cda5580510633f2520d6ecca9e431147bf1f424e508f4e600080a2101561252b57005b61ffff1991828154169055426101195516905560005b6005811061257c5750505050506040514281527f9910abdfba205b7d9e89251055d5aeb29df06e859e2439985af04c663101965860203392a2005b6101008101546001600160a01b03166000908152828552604090208054841690558401612541565b60405162461bcd60e51b815260206004820152600d60248201526c2737ba1030903834b7b732b2b960991b6044820152606490fd5b6101008101546001600160a01b031633146125f657600101612483565b505060018161248c565b3461036057600036600319011261036057610109546040516001600160a01b039091168152602090f35b34610360576020366003190112610360576004356000526101216020526020604060002054604051908152f35b3461036057600036600319011261036057602060ff61011a5460081c166040519015158152f35b346103605760003660031901126103605761010854604051633fabe5a360e21b81529060a090829060049082906001600160a01b03165afa801561074657600091600091612776575b50600082131561273d576126de610e109142612cc8565b11612705576402540be400908181029181830414901517156105b357602090604051908152f35b60405162461bcd60e51b815260206004820152601060248201526f455448206f7261636c65207374616c6560801b6044820152606490fd5b60405162461bcd60e51b8152602060048201526011602482015270496e76616c69642045544820707269636560781b6044820152606490fd5b9050612791915060a03d60a01161073f5761072c8183612a54565b5092505090826126c7565b3461036057600036600319011261036057602061011d54604051908152f35b34610360576000366003190112610360576101205460405160109190911c6001600160a01b03168152602090f35b34610360576000366003190112610360576101055461281d90336001600160a01b03918216149081156128a0575b50612c39565b610112805460ff8116158061288a575b61283357005b6001918260ff1980931617905560fb54161760fb557ff0e6ae6924e11941197674c8416eb181c5c823ad9d570478856b9ff4d2496430602060405160006001600080516020613b428339815191528280a3428152a1005b5060ff60fb54166006811015610d44571561282d565b90506101065416331482612817565b34610360576020366003190112610360576103f76128cb6129dc565b6128d361389c565b612b1e565b34610360576020366003190112610360576001600160a01b036128f96129dc565b16600052610111602052602060ff604060002054166040519015158152f35b3461036057602036600319011261036057602061293b6129366129dc565b612aa2565b6040519015158152f35b346103605760203660031901126103605760043560005261011b602052602060ff604060002054166040519015158152f35b346103605760003660031901126103605760fc546040516001600160a01b039091168152602090f35b34610360576020366003190112610360576020906001600160a01b036129c46129dc565b16600052610116825260ff6040600020541615158152f35b600435906001600160a01b038216820361036057565b602435906001600160a01b038216820361036057565b35906001600160a01b038216820361036057565b6060810190811067ffffffffffffffff82111761243a57604052565b60a0810190811067ffffffffffffffff82111761243a57604052565b90601f8019910116810190811067ffffffffffffffff82111761243a57604052565b67ffffffffffffffff811161243a57601f01601f191660200190565b6004359060ff8216820361036057565b60005b60058110612ab4575050600090565b6101008101546001600160a01b03838116911614612ad457600101612aa5565b5050600190565b15612ae257565b60405162461bcd60e51b8152602060048201526014602482015273151a5b595b1bd8dac81b9bdd08195e1c1a5c995960621b6044820152606490fd5b7f2ed000cb05c22b4906ca2aac9726ef67783e55c5613e031391704511815ab31b906000908282526101216020918183526040918285205415612bed57858552808452612b7083862054421015612adb565b85855283528382812055815194600080516020613b028339815191528580a26001600160a01b0316928315612bea575060fd80546001600160a01b03191684179055808452600d908401526c73696c7665725265736572766560981b6060840152820152600080516020613b8283398151915290608090a1565b80fd5b9190506202a30095949395420191824211612c25578187849287600080516020613b6283398151915298999a528652205551908152a2565b634e487b7160e01b87526011600452602487fd5b15612c4057565b60405162461bcd60e51b81526020600482015260146024820152734f6e6c7920746f6b656e20636f6e74726163747360601b6044820152606490fd5b519069ffffffffffffffffffff8216820361036057565b908160a091031261036057612ca781612c7c565b91602082015191604081015191612cc5608060608401519301612c7c565b90565b919082039182116105b357565b15612cdc57565b60405162461bcd60e51b815260206004820152601060248201526f105b1c9958591e48185c1c1c9bdd995960821b6044820152606490fd5b15612d1b57565b60405162461bcd60e51b8152602060048201526013602482015272446561642d6d616e206e6f742061637469766560681b6044820152606490fd5b60ff1660ff81146105b35760010190565b15612d6e57565b60405162461bcd60e51b815260206004820152602c60248201527f46756e6374696f6e206d7573742062652063616c6c6564207468726f7567682060448201526b19195b1959d85d1958d85b1b60a21b6064820152608490fd5b15612dcf57565b60405162461bcd60e51b815260206004820152602c60248201527f46756e6374696f6e206d7573742062652063616c6c6564207468726f7567682060448201526b6163746976652070726f787960a01b6064820152608490fd5b15612e3057565b60405162461bcd60e51b81526020600482015260166024820152754f6e6c7920666f756e646572206f72206c656761637960501b6044820152606490fd5b6040519061010a6000835b60058210612e8f57505050612e8d82612a38565b565b82546001600160a01b031681526001928301929190910190602001612e79565b610108546001600160a01b039190821690612ec8612e6e565b60009260409360405190633fabe5a360e21b825260a08260048181965afa918282918394612fef575b50612fc9575050506000935b600095865b60058110612f26575050505050818092612f1b57929190565b929150600382101590565b81612f31828761331e565b511683518091634e5faffb60e11b8252818760209384935afa918291600093612f98575b5050612f65575b50600101612f02565b612f70575b38612f5c565b966000198114612f835760010196612f6a565b601184634e487b7160e01b6000525260246000fd5b8181949293943d8311612fc2575b612fb08183612a54565b81010312612bea575051903880612f55565b503d612fa6565b139081612fd8575b5093612efd565b610e109150612fe79042612cc8565b111538612fd1565b90935061300b915060a03d60a01161073f5761072c8183612a54565b50925050909238612ef1565b1561301e57565b60405162461bcd60e51b815260206004820152601060248201526f14de5cdd195b481a5cc81b1bd8dad95960821b6044820152606490fd5b7fb8b61e9808d05e0a927e1ce3d25e3e34a68c4fedc47948e80e689bbd76892d43600081815261012160208190527ff5074bfa74af57a9f9e60ca8ad6f912e47b2a286c54ad2e049f1ec7ccc57cbf5541561310b5790600080516020613b0283398151915291838252806020526130d36040832054421015612adb565b83825260205280604081205580a2610120805462010000600160b01b03191660109290921b62010000600160b01b0316919091179055565b9192506202a300420191824211613143579180604083600080516020613b6283398151915295876020965285522055604051908152a2565b634e487b7160e01b82526011600452602482fd5b1561315e57565b60405162461bcd60e51b815260206004820152600b60248201526a105b1c9958591e481cd95d60aa1b6044820152606490fd5b7f6c6a73b193293ebd40b68b5f34ac3484e0bba3863b079be475e72b144c644f3b600090808252610121906020918083526040908185205415613282578285528084526131e382862054421015612adb565b828552835283818120555190600080516020613b028339815191528480a260fb549160ff8316600681101561326e5760010361323d575050600080516020613b428339815191526001926002809360ff19161760fb5580a3565b62461bcd60e51b82526004820152600d60248201526c4e6f7420696e2059454c4c4f5760981b604482015260649150fd5b634e487b7160e01b85526021600452602485fd5b906202a300959495939293420191824211612c25578187849287600080516020613b6283398151915298999a528652205551908152a2565b156132c157565b60405162461bcd60e51b815260206004820152600e60248201526d4f6e6c7920677561726469616e7360901b6044820152606490fd5b9060038110156133085760051b0190565b634e487b7160e01b600052603260045260246000fd5b9060058110156133085760051b0190565b8115613339570490565b634e487b7160e01b600052601260045260246000fd5b7f987e2fe361426f5074107dfb669e977a9f518730aa10119999e6aef77317b3c860009080825261012160209181835260409182852054156134ba578185528084526133a083862054421015612adb565b81855283528382812055815190600080516020613b028339815191528580a260fb549260ff9160ff851660068110156134a657600203613478575060ff1993841660031760fb55845b6005811061340e5750505050506003600080516020613b4283398151915282600293a3565b8060019161010001828060a01b03908181541689526101118552868920888154888116613441575b5050505050016133e9565b16905554167f6c6dee804228ba27c91b916f12cc2f32aaef1be9a7d7af1f62173c8124a3f793848751428152a23880808881613436565b60649162461bcd60e51b82526004820152600b60248201526a139bdd081a5b8811d3d31160aa1b6044820152fd5b634e487b7160e01b87526021600452602487fd5b9092916202a300959495420191824211612c25578187849287600080516020613b6283398151915298999a528652205551908152a2565b91906040908151906020808301848152600a6060850152695345545f4f5241434c4560b01b608085015260ff87169384868201526080815261353281612a38565b5190209260009684885261012180845286892054156135f657858952808452613560878a2054421015612adb565b85895283528786812055855194600080516020613b028339815191528980a260058210156135f25760058110156135de5761010a0180546001600160a01b0319166001600160a01b03909416938417905583528201529192507f82680dc147f500d6dcc204d17962f246861e51edad677674a0ea9df06b1869ef91a1565b634e487b7160e01b88526032600452602488fd5b8780fd5b9350505091926202a300420191824211612c25578187849287600080516020613b6283398151915298999a528652205551908152a2565b7f9ad69c4f3d9aec99671203fff08e62fc4b12165adb2e198ef707a4d597942b55906000908282526101216020918183526040918285205415612bed5785855280845261367f83862054421015612adb565b85855283528382812055815194600080516020613b028339815191528580a26001600160a01b038116938415612bea575060fb805462010000600160b01b03191660109290921b62010000600160b01b0316919091179055808452600790840152663337bab73232b960c91b6060840152820152600080516020613b8283398151915290608090a1565b7f4e4fd6ff1601039cef538a9736613182965723b79287e296c6362f211a0bb159906000908282526101216020918183526040918285205415612bed5785855280845261375b83862054421015612adb565b85855283528382812055815194600080516020613b028339815191528580a26001600160a01b0316928315612bea575060fc80546001600160a01b03191684179055808452600b908401526a676f6c645265736572766560a81b6060840152820152600080516020613b8283398151915290608090a1565b7f171b0ad876822131eea9c5c8e87d164558a4ad674f5a43125aa9a983dbc3346a906000908282526101216020918183526040918285205415612bed5785855280845261382583862054421015612adb565b85855283528382812055815194600080516020613b028339815191528580a26001600160a01b0316928315612bea575060fe80546001600160a01b03191684179055808452600a90840152696f7065726174696f6e7360b01b6060840152820152600080516020613b8283398151915290608090a1565b6097546001600160a01b031633036138b057565b606460405162461bcd60e51b815260206004820152602060248201527f4f776e61626c653a2063616c6c6572206973206e6f7420746865206f776e65726044820152fd5b609780546001600160a01b039283166001600160a01b0319821681179092559091167f8be0079c531659141344cd1fd0a4f28419497f9722a3daafe3b4186f6b6457e0600080a3565b1561394457565b60405162461bcd60e51b815260206004820152602b60248201527f496e697469616c697a61626c653a20636f6e7472616374206973206e6f74206960448201526a6e697469616c697a696e6760a81b6064820152608490fd5b803b156139d257600080516020613b2283398151915280546001600160a01b0319166001600160a01b03909216919091179055565b60405162461bcd60e51b815260206004820152602d60248201527f455243313936373a206e657720696d706c656d656e746174696f6e206973206e60448201526c1bdd08184818dbdb9d1c9858dd609a1b6064820152608490fd5b91929015613a8f5750815115613a41575090565b3b15613a4a5790565b60405162461bcd60e51b815260206004820152601d60248201527f416464726573733a2063616c6c20746f206e6f6e2d636f6e74726163740000006044820152606490fd5b825190915015613aa25750805190602001fd5b6040519062461bcd60e51b82528160208060048301528251908160248401526000935b828510613ae8575050604492506000838284010152601f80199101168101030190fd5b8481018201518686016044015293810193859350613ac556fe608879471643fec8a3d053e61fed9b5bb710b0ae4b697d1678d92eb5ea6d00be360894a13ba1a3210667c828492db98dca3e2076cc3735a920a3ca505d382bbc0f63b8bffe147a0fe1362da0e6e3ae0fcffce5497482f4d438715fe53890acf18707ea175e75ad64eba2d8b3d6ffe47c0b47309134b4df98c6f32c4828e96b726ff3a4003b90be84595beb5f6acb9d54f88bd3e6dd4887ca67e53dc9645465eaa2646970667358221220a93277403f1d67c7acddb918e86e7d895d7cae25d69e04cad52af658574c18bb64736f6c63430008180033","abi":[{"anonymous":false,"inputs":[{"indexed":false,"internalType":"address","name":"previousAdmin","type":"address"},{"indexed":false,"internalType":"address","name":"newAdmin","type":"address"}],"name":"AdminChanged","type":"event"},{"anonymous":false,"inputs":[{"indexed":true,"internalType":"address","name":"beacon","type":"address"}],"name":"BeaconUpgraded","type":"event"},{"anonymous":false,"inputs":[{"indexed":false,"internalType":"uint256","name":"timestamp","type":"uint256"}],"name":"DeadManTriggered","type":"event"},{"anonymous":false,"inputs":[{"indexed":true,"internalType":"address","name":"guardian","type":"address"},{"indexed":false,"internalType":"uint256","name":"timestamp","type":"uint256"}],"name":"DeathProofSubmitted","type":"event"},{"anonymous":false,"inputs":[{"indexed":false,"internalType":"uint256","name":"timestamp","type":"uint256"}],"name":"FirstPublicPurchaseConfirmed","type":"event"},{"anonymous":false,"inputs":[{"indexed":true,"internalType":"address","name":"guardian","type":"address"}],"name":"GuardianPauseApproved","type":"event"},{"anonymous":false,"inputs":[{"indexed":false,"internalType":"uint256","name":"timestamp","type":"uint256"}],"name":"HeartbeatReceived","type":"event"},{"anonymous":false,"inputs":[{"indexed":false,"internalType":"uint8","name":"version","type":"uint8"}],"name":"Initialized","type":"event"},{"anonymous":false,"inputs":[{"indexed":true,"internalType":"address","name":"legacyWallet","type":"address"}],"name":"LegacyModeActivated","type":"event"},{"anonymous":false,"inputs":[{"indexed":false,"internalType":"uint8","name":"index","type":"uint8"},{"indexed":false,"internalType":"address","name":"newOracle","type":"address"}],"name":"OracleAddressUpdated","type":"event"},{"anonymous":false,"inputs":[{"indexed":false,"internalType":"uint256","name":"timestamp","type":"uint256"},{"indexed":false,"internalType":"uint256","name":"responsiveOracles","type":"uint256"}],"name":"OracleFailureDetected","type":"event"},{"anonymous":false,"inputs":[{"indexed":false,"internalType":"uint256","name":"timestamp","type":"uint256"}],"name":"OracleRecovered","type":"event"},{"anonymous":false,"inputs":[{"indexed":true,"internalType":"address","name":"previousOwner","type":"address"},{"indexed":true,"internalType":"address","name":"newOwner","type":"address"}],"name":"OwnershipTransferred","type":"event"},{"anonymous":false,"inputs":[{"indexed":false,"internalType":"address","name":"account","type":"address"}],"name":"Paused","type":"event"},{"anonymous":false,"inputs":[{"indexed":true,"internalType":"address","name":"pioneer","type":"address"}],"name":"PioneerRewardActivated","type":"event"},{"anonymous":false,"inputs":[{"indexed":true,"internalType":"address","name":"pioneer","type":"address"},{"indexed":false,"internalType":"uint256","name":"timestamp","type":"uint256"}],"name":"PioneerRewardDeactivated","type":"event"},{"anonymous":false,"inputs":[{"indexed":true,"internalType":"address","name":"by","type":"address"},{"indexed":false,"internalType":"uint256","name":"timestamp","type":"uint256"}],"name":"Resurrected","type":"event"},{"anonymous":false,"inputs":[{"indexed":true,"internalType":"address","name":"pioneer","type":"address"}],"name":"ResurrectionApproved","type":"event"},{"anonymous":false,"inputs":[{"indexed":true,"internalType":"enum GaiaSpeakProtocol.Stage","name":"newStage","type":"uint8"},{"indexed":true,"internalType":"enum GaiaSpeakProtocol.Stage","name":"previousStage","type":"uint8"}],"name":"StageChanged","type":"event"},{"anonymous":false,"inputs":[{"indexed":true,"internalType":"bytes32","name":"actionId","type":"bytes32"}],"name":"TimelockExecuted","type":"event"},{"anonymous":false,"inputs":[{"indexed":true,"internalType":"bytes32","name":"actionId","type":"bytes32"},{"indexed":false,"internalType":"uint256","name":"executeAfter","type":"uint256"}],"name":"TimelockScheduled","type":"event"},{"anonymous":false,"inputs":[{"indexed":false,"internalType":"address","name":"account","type":"address"}],"name":"Unpaused","type":"event"},{"anonymous":false,"inputs":[{"indexed":true,"internalType":"address","name":"implementation","type":"address"}],"name":"Upgraded","type":"event"},{"anonymous":false,"inputs":[{"indexed":false,"internalType":"string","name":"walletType","type":"string"},{"indexed":false,"internalType":"address","name":"newAddress","type":"address"}],"name":"WalletUpdated","type":"event"},{"inputs":[],"name":"HEARTBEAT_INTERVAL","outputs":[{"internalType":"uint256","name":"","type":"uint256"}],"stateMutability":"view","type":"function"},{"inputs":[],"name":"TIMELOCK_DELAY","outputs":[{"internalType":"uint256","name":"","type":"uint256"}],"stateMutability":"view","type":"function"},{"inputs":[],"name":"approveGuardianPause","outputs":[],"stateMutability":"nonpayable","type":"function"},{"inputs":[],"name":"approvePioneerResurrection","outputs":[],"stateMutability":"nonpayable","type":"function"},{"inputs":[],"name":"checkRedStage","outputs":[],"stateMutability":"nonpayable","type":"function"},{"inputs":[],"name":"companyProofId","outputs":[{"internalType":"bytes32","name":"","type":"bytes32"}],"stateMutability":"view","type":"function"},{"inputs":[],"name":"confirmFirstPublicPurchase","outputs":[],"stateMutability":"nonpayable","type":"function"},{"inputs":[],"name":"currentStage","outputs":[{"internalType":"enum GaiaSpeakProtocol.Stage","name":"","type":"uint8"}],"stateMutability":"view","type":"function"},{"inputs":[{"internalType":"address","name":"pioneer","type":"address"}],"name":"deactivatePioneerReward","outputs":[],"stateMutability":"nonpayable","type":"function"},{"inputs":[],"name":"deadManActive","outputs":[{"internalType":"bool","name":"","type":"bool"}],"stateMutability":"view","type":"function"},{"inputs":[{"internalType":"bytes32","name":"","type":"bytes32"}],"name":"deathProofSubmitted","outputs":[{"internalType":"bool","name":"","type":"bool"}],"stateMutability":"view","type":"function"},{"inputs":[],"name":"ethUsdFeed","outputs":[{"internalType":"contract AggregatorV3Interface","name":"","type":"address"}],"stateMutability":"view","type":"function"},{"inputs":[],"name":"familyProofId","outputs":[{"internalType":"bytes32","name":"","type":"bytes32"}],"stateMutability":"view","type":"function"},{"inputs":[],"name":"firstPublicPurchaseComplete","outputs":[{"internalType":"bool","name":"","type":"bool"}],"stateMutability":"view","type":"function"},{"inputs":[],"name":"founderWallet","outputs":[{"internalType":"address","name":"","type":"address"}],"stateMutability":"view","type":"function"},{"inputs":[],"name":"getEthPriceUSD","outputs":[{"internalType":"uint256","name":"","type":"uint256"}],"stateMutability":"view","type":"function"},{"inputs":[],"name":"getGoldPriceUSD","outputs":[{"internalType":"uint256","name":"","type":"uint256"}],"stateMutability":"view","type":"function"},{"inputs":[],"name":"getOracleHealth","outputs":[{"internalType":"bool","name":"chainlinkHealthy","type":"bool"},{"internalType":"uint256","name":"responsiveOracles","type":"uint256"},{"internalType":"bool","name":"systemHealthy","type":"bool"}],"stateMutability":"view","type":"function"},{"inputs":[],"name":"getSilverPriceUSD","outputs":[{"internalType":"uint256","name":"","type":"uint256"}],"stateMutability":"view","type":"function"},{"inputs":[],"name":"goldReserveWallet","outputs":[{"internalType":"address","name":"","type":"address"}],"stateMutability":"view","type":"function"},{"inputs":[],"name":"goldTokenContract","outputs":[{"internalType":"address","name":"","type":"address"}],"stateMutability":"view","type":"function"},{"inputs":[{"internalType":"address","name":"","type":"address"}],"name":"guardianPauseApproval","outputs":[{"internalType":"bool","name":"","type":"bool"}],"stateMutability":"view","type":"function"},{"inputs":[],"name":"guardianUnpause","outputs":[],"stateMutability":"nonpayable","type":"function"},{"inputs":[{"internalType":"uint256","name":"","type":"uint256"}],"name":"guardians","outputs":[{"internalType":"address","name":"","type":"address"}],"stateMutability":"view","type":"function"},{"inputs":[{"internalType":"address","name":"","type":"address"}],"name":"hasApprovedResurrection","outputs":[{"internalType":"bool","name":"","type":"bool"}],"stateMutability":"view","type":"function"},{"inputs":[],"name":"heartbeat","outputs":[],"stateMutability":"nonpayable","type":"function"},{"inputs":[{"internalType":"address","name":"_founder","type":"address"},{"internalType":"address","name":"_goldReserve","type":"address"},{"internalType":"address","name":"_silverReserve","type":"address"},{"internalType":"address","name":"_operations","type":"address"},{"internalType":"address","name":"_referral","type":"address"},{"internalType":"address[5]","name":"_pioneers","type":"address[5]"},{"internalType":"address[3]","name":"_guardians","type":"address[3]"},{"internalType":"address","name":"_ethUsdFeed","type":"address"},{"internalType":"address","name":"_silverUsdFeed","type":"address"},{"internalType":"address[5]","name":"_oracleAddresses","type":"address[5]"}],"name":"initialize","outputs":[],"stateMutability":"nonpayable","type":"function"},{"inputs":[{"internalType":"address","name":"","type":"address"}],"name":"isGuardian","outputs":[{"internalType":"bool","name":"","type":"bool"}],"stateMutability":"view","type":"function"},{"inputs":[{"internalType":"address","name":"addr","type":"address"}],"name":"isPioneer","outputs":[{"internalType":"bool","name":"","type":"bool"}],"stateMutability":"view","type":"function"},{"inputs":[],"name":"lastHeartbeat","outputs":[{"internalType":"uint256","name":"","type":"uint256"}],"stateMutability":"view","type":"function"},{"inputs":[],"name":"lastOracleHealthCheck","outputs":[{"internalType":"uint256","name":"","type":"uint256"}],"stateMutability":"view","type":"function"},{"inputs":[{"internalType":"address","name":"","type":"address"}],"name":"lastPurchaseBlock","outputs":[{"internalType":"uint256","name":"","type":"uint256"}],"stateMutability":"view","type":"function"},{"inputs":[],"name":"legacyModeActive","outputs":[{"internalType":"bool","name":"","type":"bool"}],"stateMutability":"view","type":"function"},{"inputs":[],"name":"legacyWallet","outputs":[{"internalType":"address","name":"","type":"address"}],"stateMutability":"view","type":"function"},{"inputs":[{"internalType":"uint256","name":"","type":"uint256"}],"name":"majorPioneerWallets","outputs":[{"internalType":"address","name":"","type":"address"}],"stateMutability":"view","type":"function"},{"inputs":[],"name":"nftContract","outputs":[{"internalType":"address","name":"","type":"address"}],"stateMutability":"view","type":"function"},{"inputs":[],"name":"operationsWallet","outputs":[{"internalType":"address","name":"","type":"address"}],"stateMutability":"view","type":"function"},{"inputs":[{"internalType":"uint256","name":"","type":"uint256"}],"name":"oracleAddresses","outputs":[{"internalType":"address","name":"","type":"address"}],"stateMutability":"view","type":"function"},{"inputs":[],"name":"oracleHealthy","outputs":[{"internalType":"bool","name":"","type":"bool"}],"stateMutability":"view","type":"function"},{"inputs":[],"name":"owner","outputs":[{"internalType":"address","name":"","type":"address"}],"stateMutability":"view","type":"function"},{"inputs":[],"name":"pauseApprovalCount","outputs":[{"internalType":"uint8","name":"","type":"uint8"}],"stateMutability":"view","type":"function"},{"inputs":[],"name":"paused","outputs":[{"internalType":"bool","name":"","type":"bool"}],"stateMutability":"view","type":"function"},{"inputs":[{"internalType":"address","name":"","type":"address"}],"name":"pioneerRewardActive","outputs":[{"internalType":"bool","name":"","type":"bool"}],"stateMutability":"view","type":"function"},{"inputs":[],"name":"proxiableUUID","outputs":[{"internalType":"bytes32","name":"","type":"bytes32"}],"stateMutability":"view","type":"function"},{"inputs":[],"name":"referralWallet","outputs":[{"internalType":"address","name":"","type":"address"}],"stateMutability":"view","type":"function"},{"inputs":[],"name":"renounceOwnership","outputs":[],"stateMutability":"nonpayable","type":"function"},{"inputs":[],"name":"resurrectionApprovalCount","outputs":[{"internalType":"uint8","name":"","type":"uint8"}],"stateMutability":"view","type":"function"},{"inputs":[{"internalType":"address","name":"w","type":"address"}],"name":"setFounderWallet","outputs":[],"stateMutability":"nonpayable","type":"function"},{"inputs":[{"internalType":"address","name":"w","type":"address"}],"name":"setGoldReserveWallet","outputs":[],"stateMutability":"nonpayable","type":"function"},{"inputs":[{"internalType":"address","name":"t","type":"address"}],"name":"setGoldTokenContract","outputs":[],"stateMutability":"nonpayable","type":"function"},{"inputs":[{"internalType":"address","name":"_legacy","type":"address"}],"name":"setLegacyWallet","outputs":[],"stateMutability":"nonpayable","type":"function"},{"inputs":[{"internalType":"address","name":"n","type":"address"}],"name":"setNFTContract","outputs":[],"stateMutability":"nonpayable","type":"function"},{"inputs":[{"internalType":"address","name":"w","type":"address"}],"name":"setOperationsWallet","outputs":[],"stateMutability":"nonpayable","type":"function"},{"inputs":[{"internalType":"uint8","name":"index","type":"uint8"},{"internalType":"address","name":"oracle","type":"address"}],"name":"setOracleAddress","outputs":[],"stateMutability":"nonpayable","type":"function"},{"inputs":[{"internalType":"address","name":"w","type":"address"}],"name":"setSilverReserveWallet","outputs":[],"stateMutability":"nonpayable","type":"function"},{"inputs":[{"internalType":"address","name":"t","type":"address"}],"name":"setSilverTokenContract","outputs":[],"stateMutability":"nonpayable","type":"function"},{"inputs":[],"name":"silverReserveWallet","outputs":[{"internalType":"address","name":"","type":"address"}],"stateMutability":"view","type":"function"},{"inputs":[],"name":"silverTokenContract","outputs":[{"internalType":"address","name":"","type":"address"}],"stateMutability":"view","type":"function"},{"inputs":[],"name":"silverUsdFeed","outputs":[{"internalType":"contract AggregatorV3Interface","name":"","type":"address"}],"stateMutability":"view","type":"function"},{"inputs":[{"internalType":"uint8","name":"proofType","type":"uint8"},{"internalType":"bytes32","name":"proofHash","type":"bytes32"}],"name":"submitDeathProof","outputs":[],"stateMutability":"nonpayable","type":"function"},{"inputs":[],"name":"systemLocked","outputs":[{"internalType":"bool","name":"","type":"bool"}],"stateMutability":"view","type":"function"},{"inputs":[],"name":"thirdPartyProofId","outputs":[{"internalType":"bytes32","name":"","type":"bytes32"}],"stateMutability":"view","type":"function"},{"inputs":[{"internalType":"bytes32","name":"","type":"bytes32"}],"name":"timelockScheduled","outputs":[{"internalType":"uint256","name":"","type":"uint256"}],"stateMutability":"view","type":"function"},{"inputs":[{"internalType":"address","name":"newOwner","type":"address"}],"name":"transferOwnership","outputs":[],"stateMutability":"nonpayable","type":"function"},{"inputs":[],"name":"transitionToBlue","outputs":[],"stateMutability":"nonpayable","type":"function"},{"inputs":[],"name":"transitionToGold","outputs":[],"stateMutability":"nonpayable","type":"function"},{"inputs":[],"name":"transitionToWhite","outputs":[],"stateMutability":"nonpayable","type":"function"},{"inputs":[],"name":"transitionToYellow","outputs":[],"stateMutability":"nonpayable","type":"function"},{"inputs":[],"name":"triggerDeadManSwitch","outputs":[],"stateMutability":"nonpayable","type":"function"},{"inputs":[{"internalType":"address","name":"newImplementation","type":"address"}],"name":"upgradeTo","outputs":[],"stateMutability":"nonpayable","type":"function"},{"inputs":[{"internalType":"address","name":"newImplementation","type":"address"},{"internalType":"bytes","name":"data","type":"bytes"}],"name":"upgradeToAndCall","outputs":[],"stateMutability":"payable","type":"function"},{"inputs":[{"internalType":"uint256","name":"usdAmount18","type":"uint256"}],"name":"usdToWei","outputs":[{"internalType":"uint256","name":"","type":"uint256"}],"stateMutability":"view","type":"function"}]}