{"address":"0xe6F039e78d92e693D51bDf6A9b45B0A0436fAD54","bytecode":"0x60a08060405234610031573060805261515f908161003782396080518181816119c6015281816122810152612b200152f35b600080fdfe608080604052600436101561001357600080fd5b60003560e01c90816301ffc9a714613cd65750806306fdde0314613c3a578063071bb94314613991578063081812fc14613973578063095ea7b3146137f9578063107a274a1461375857806313a6c05f146137135780631459457a1461312c57806318af61be146131025780631d91dba91461304257806323b872dd1461301e5780632840662d14612cb85780633659cfe614612afb57806336f691c41461258d5780633f4ba83a146124f957806342842e0e146124c65780634f1ef2861461224357806351ed828814611a7757806352d1902d146119b3578063564a565d146119075780635c975abb146118e45780635cbdf28e146118595780636352211e1461182957806370a0823114611792578063715018a61461173457806375cb1bd11461166c57806378c639c41461132a5780638da5cb5b1461130057806395d89b411461122f5780639cfff014146112055780639fd4ae4d14610f9a578063a22cb46514610ec2578063a2309ff814610e96578063a23d3c3514610e6c578063a76a2fcb14610e42578063a78e13d414610cf2578063ab858056146109ac578063add150bc1461096c578063b88d4fde146108f8578063c87b56dd14610886578063cb917b9c146107e6578063d03cea6d146107bc578063d5d1e4361461070d578063d9bdc563146106e3578063de74e57b1461068b578063e0e8bd97146104cc578063e3a96cbd146103ad578063e985e9c514610357578063f2fde38b146102c8578063fa3c30a81461028d5763fcce48831461025057600080fd5b34610288576020366003190112610288576004356000526101ca602052602060ff60026040600020015460081c166040519015158152f35b600080fd5b34610288576020366003190112610288576001600160a01b036102ae613d9b565b166000526101cd6020526020604060002054604051908152f35b34610288576020366003190112610288576102e1613d9b565b6102e96147d7565b6001600160a01b038116156103035761030190614a09565b005b60405162461bcd60e51b815260206004820152602660248201527f4f776e61626c653a206e6577206f776e657220697320746865207a65726f206160448201526564647265737360d01b6064820152608490fd5b3461028857604036600319011261028857610370613d9b565b610378613db1565b9060018060a01b03809116600052606a60205260406000209116600052602052602060ff604060002054166040519015158152f35b34610288576020366003190112610288576004356000526101cc6020526040600020604051906103dc82613eed565b80546001600160a01b0390811683526103f760018301614024565b91602084019283526002810154936040810194855260038201549260ff841692606083019360058110156104b65761044d91600591865260ff608086019760081c1615158752600481015460a086015201614024565b9160c0810192835251169351945191519060058210156104b6576104a06104b294511515915192610490604051988998895260c060208a015260c0890190613d5b565b94604088015260608701906140c9565b608085015283820360a0850152613d5b565b0390f35b634e487b7160e01b600052602160045260246000fd5b34610288576000366003190112610288576101c354604051630c68ba2160e01b81523360048201526020918290829060249082906001600160a01b03165afa90811561067f57600091610652575b501561060e57336000526101cf80825260ff604060002054166105d057336000528152604060002060ff19906001828254161790556101d09081549260ff841660ff81146105ba578260ff600160029301169516948086178555101561057c57005b60017f62e78cea01bee320cd4e420270b5ea74000d11b0c9f74754ebdbfc544b05a258926105a86146fb565b60fb54161760fb55604051338152a155005b634e487b7160e01b600052601160045260246000fd5b60405162461bcd60e51b815260048101839052601660248201527511dd585c991a585b88185b1c9958591e481d9bdd195960521b6044820152606490fd5b6064906040519062461bcd60e51b82526004820152601860248201527f43616c6c6572206973206e6f74206120677561726469616e00000000000000006044820152fd5b6106729150823d8411610678575b61066a8183613f59565b8101906140d6565b8261051a565b503d610660565b6040513d6000823e3d90fd5b34610288576020366003190112610288576004356000526101ca602052604060002060018060a01b03815416906104b2600182015491600360028201549101549060405194859460ff808460081c1693169186613dea565b34610288576000366003190112610288576101c8546040516001600160a01b039091168152602090f35b3461028857602036600319011261028857610726613d9b565b61072e6147d7565b6001600160a01b03168015610777576101c580546001600160a01b031916821790557faf62fcea2b41de7b22a39b336a378d645444da4072bf6c453b9d9eb01d2f9790600080a2005b60405162461bcd60e51b815260206004820152601a60248201527f5a65726f20616464726573733a2073696c76657220746f6b656e0000000000006044820152606490fd5b34610288576000366003190112610288576101c4546040516001600160a01b039091168152602090f35b34610288576020366003190112610288576004356108026146a5565b61081e61080e826145db565b6001600160a01b03163314614659565b806000526101ca8060205261084060ff60026040600020015460081c166144d2565b81600052602052600260406000200161ff0019815416905533907fef1499b350e05776e60cd2ffcac001569a28e9d574e1f3adc1b3ab264f8ccffd600080a3600160c955005b34610288576020366003190112610288576004356000818152606760205260409020546108bd906001600160a01b0316151561458f565b60005260976020526104b26108d56040600020614024565b60006040516108e381613f23565b52604051918291602083526020830190613d5b565b3461028857608036600319011261028857610911613d9b565b610919613db1565b90606435906044356001600160401b0383116102885761030193610944610967943690600401613fcc565b926109576109528433614830565b61422c565b6109628383836148f8565b614f4b565b614d6e565b34610288576020366003190112610288576001600160a01b0361098d613d9b565b166000526101ce602052602060ff604060002054166040519015158152f35b34610288576109ba36613e93565b6109c26147d7565b6109ca6146a5565b836000526020926101cc845260406000206101cb8552604060002091600382019260ff84541660058110156104b657600403610cad57600360ff91610a1087151561428e565b0154169160028310156104b6576001928314918215610c9a576101c5546001600160a01b0316925b15610c88576101c8546001600160a01b03165b6040516370a0823160e01b81523060048201526001600160a01b039485169490918a83602481895afa95861561067f578b93600097610c57575b506706f05b59d3b2000080971015610bfd575b5050505060059250600014610bf357610ab360035b856140ee565b01906001600160401b038411610bdd57610ad784610ad18454613fea565b846142da565b600090601f8511600114610b59575092604060ff610b4494610b379794610b26858060008051602061510a8339815191529c9a600091610b4e575b508160011b916000199060031b1c19161790565b90555b5416948151968780976140c9565b8501526040840191614330565b0390a2600160c955005b90508801358e610b12565b90601f1985168360005287600020926000905b828210610bc6575050610b4494610b379794879460409460008051602061510a8339815191529b9960ff9510610bac575b5050600185811b019055610b29565b870135600019600388901b60f8161c191690558b80610b9d565b888401358555938401939289019290890190610b6c565b634e487b7160e01b600052604160045260246000fd5b610ab36002610aad565b906000604492604051988995869463a9059cbb60e01b865216600485015260248401525af192831561067f57600593610c3a575b80808a92610a98565b610c5090893d8b116106785761066a8183613f59565b5089610c31565b8481959298503d8311610c81575b610c6f8183613f59565b81010312610288578a9251958d610a85565b503d610c65565b6101c7546001600160a01b0316610a4b565b6101c4546001600160a01b031692610a38565b60405162461bcd60e51b815260048101889052601f60248201527f4e6f206163746976652061707065616c20666f72207468697320746f6b656e006044820152606490fd5b3461028857602080600319360112610288576004356001600160401b03811161028857610d23903690600401613e66565b610d2b6146a5565b610d336146fb565b6101c354604051635c975abb60e01b8152908490829060049082906001600160a01b03165afa801561067f57610d7291600091610e25575b5015614413565b610d7d8115156145fe565b6101c97fcc0edaa41c0995bda18c82b6d92cc4c4c808bec64fe9b77064415d135d102b90610e048254948593610db28561464a565b9055610dbe8433614a53565b610dd2610dcc368784613f95565b85614b68565b836000526101ca87526040600020336001600160601b0360a01b82541617905560405194606086526060860191614330565b92600086820152600060408201528033940390a3600160c955604051908152f35b610e3c9150853d87116106785761066a8183613f59565b85610d6b565b34610288576000366003190112610288576101c3546040516001600160a01b039091168152602090f35b34610288576000366003190112610288576101c6546040516001600160a01b039091168152602090f35b34610288576000366003190112610288576101c95460001981019081116105ba57602090604051908152f35b3461028857604036600319011261028857610edb613d9b565b610ee3613e22565b6001600160a01b0390911690338214610f555733600052606a602052604060002082600052602052610f258160406000209060ff801983541691151516179055565b60405190151581527f17307eab39ab6107e8899845ad3d59bd9653f200f220920489ca2b5937696c3160203392a3005b60405162461bcd60e51b815260206004820152601960248201527f4552433732313a20617070726f766520746f2063616c6c6572000000000000006044820152606490fd5b3461028857606036600319011261028857602435600435604435600281101561028857610fc56146a5565b610fcd6146fb565b6101c354604051635c975abb60e01b81526001600160a01b0392916020919082908290600490829088165afa801561067f57611011916000916111e8575015614413565b61102661101d856145db565b84163314614659565b836000526101ca9283825260ff60026040600020015460081c166111a35766038d7ea4c6800086106111685760018314611153575b846000528382528060406000205416801560001461114d575033905b806040519261108584613ed2565b16825282820194878652604083019561109e8688614144565b606084019260018452608085019242845289600052865260406000209451166001600160601b0360a01b85541617845551600184015560028301955160028110156104b657866003936110f761110e936111209a614577565b51815461ff00191690151560081b61ff0016179055565b51910155604051948552840190613ddd565b7f046fec59dfefb3341991b94fead75ead40c649a0327dbb503eee498e9e1bcbed60403393a3600160c955005b90611077565b611163816101c55416151561451e565b61105b565b60405162461bcd60e51b815260048101839052601360248201527250726963652062656c6f77206d696e696d756d60681b6044820152606490fd5b60405162461bcd60e51b815260048101839052601d60248201527f416c7265616479206c6973746564202d2064656c6973742066697273740000006044820152606490fd5b6111ff9150833d85116106785761066a8183613f59565b87610d6b565b34610288576000366003190112610288576101c5546040516001600160a01b039091168152602090f35b346102885760003660031901126102885760405160665460008261125283613fea565b91828252602093600190856001821691826000146112e0575050600114611295575b5061128192500383613f59565b6104b2604051928284938452830190613d5b565b84915060666000526000805160206150aa833981519152906000915b8583106112c8575050611281935082010185611274565b805483890185015287945086939092019181016112b1565b60ff19168582015261128195151560051b85010192508791506112749050565b346102885760003660031901126102885761012d546040516001600160a01b039091168152602090f35b34610288576060366003190112610288576004356001600160401b0381116102885761135a903690600401613e66565b90602435604435916002831015610288576113736146a5565b61137b6146fb565b6101c354604051635c975abb60e01b81526020956001600160a01b03959290919086168782600481845afa90811561067f576113c3899260049460009161164f575015614413565b6040516316fd755360e21b815292839182905afa90811561067f57600091611622575b5060068110156104b65760046113fd91141561446c565b6114088115156145fe565b66038d7ea4c6800084106115d35760018214611569575b6101c99485549561142f8761464a565b905561143b8633614a53565b61144f611449368487613f95565b87614b68565b60405161145b81613ed2565b3381528781019486865260408201906114748683614144565b60608301966001885260808401944286528a6000526101ca8c5260406000209451166001600160601b0360a01b8554161784555160018401556002830191519260028410156104b65760038a956114f7856115359b6110f77fcc0edaa41c0995bda18c82b6d92cc4c4c808bec64fe9b77064415d135d102b909961150d99614577565b5191015560405194606086526060860191614330565b9286898201526115206040820186613ddd565b8033940390a360405192835284830190613ddd565b817f046fec59dfefb3341991b94fead75ead40c649a0327dbb503eee498e9e1bcbed60403393a3600160c955604051908152f35b846101c5541661141f5760405162461bcd60e51b815260048101879052603260248201527f53696c76657220746f6b656e206e6f742079657420636f6e66696775726564206044820152712d2075736520474f4c44206c697374696e6760701b6064820152608490fd5b60405162461bcd60e51b815260048101879052602160248201527f50726963652062656c6f77206d696e696d756d2028302e30303120746f6b656e6044820152602960f81b6064820152608490fd5b6116429150873d8911611648575b61163a8183613f59565b810190614454565b876113e6565b503d611630565b6116669150843d86116106785761066a8183613f59565b8b610d6b565b34610288576060366003190112610288577f2d4c6aa48812a0ea09474a961613c1a3ae652d39a1580cb1ac46ff277e6d385d60606116a8613d9b565b6116b0613db1565b906116b9613dc7565b906116c26147d7565b6001600160a01b039081169281906116db851515614150565b16916116e8831515614194565b16906116f58215156141e0565b6001600160601b0360a01b6101c684828254161790556101c78282825416179055826101c89182541617905560405192835260208301526040820152a1005b346102885760003660031901126102885761174d6147d7565b61012d80546001600160a01b031981169091556000906001600160a01b03167f8be0079c531659141344cd1fd0a4f28419497f9722a3daafe3b4186f6b6457e08280a3005b34610288576020366003190112610288576001600160a01b036117b3613d9b565b1680156117d25760005260686020526020604060002054604051908152f35b60405162461bcd60e51b815260206004820152602960248201527f4552433732313a2061646472657373207a65726f206973206e6f7420612076616044820152683634b21037bbb732b960b91b6064820152608490fd5b346102885760203660031901126102885760206118476004356145db565b6040516001600160a01b039091168152f35b34610288576020366003190112610288576004356000526101cb60205260e0604060002060ff60018060a01b03918281541692600182015416906118c8600282015484600384015416906005600485015494015494604051978852602088015260408701526060860190613ddd565b6080840152818116151560a084015260081c16151560c0820152f35b3461028857600036600319011261028857602060ff60fb54166040519015158152f35b346102885760203660031901126102885760043560009081526101cc6020526040902080546001600160a01b03166104b261194460018401614024565b9260028101549060038101549060ff611964600560048401549301614024565b92611981604051988998895260e060208a015260e0890190613d5b565b946040880152611996606088018383166140c9565b60081c161515608086015260a085015283820360c0850152613d5b565b34610288576000366003190112610288577f00000000000000000000000000000000000000000000000000000000000000006001600160a01b03163003611a0c5760206040516000805160206150ea8339815191528152f35b60405162461bcd60e51b815260206004820152603860248201527f555550535570677261646561626c653a206d757374206e6f742062652063616c60448201527f6c6564207468726f7567682064656c656761746563616c6c00000000000000006064820152608490fd5b3461028857602036600319011261028857611a906146a5565b611a986146fb565b6101c354604051635c975abb60e01b8152906001600160a01b0316602082600481845afa90811561067f57611ada60209260049460009161222c575015614413565b6040516316fd755360e21b815292839182905afa90811561067f5760009161220d575b5060068110156104b6576004611b1491141561446c565b6004356000526101ca60205260ff611b388160026040600020015460081c166144d2565b6004356000526101ca602052604060002060405191611b5683613ed2565b81546001600160a01b03168352600182015460208401908152600283015490926003918390611b8a81831660408901614144565b60081c161515606086015201546080840152611ba76004356145db565b90336001600160a01b038316146121c8576004356000526101cc9081602052806003604060002001541660058110156104b6571591821561219f575b8215612176575b50501561212557604083015160028110156104b657600103612109576101c5546001600160a01b0316611c1e81151561451e565b6101c8546001600160a01b0316925b5192611c388461473f565b90611c428561475b565b92611c4c8661475b565b9486611c6187611c5c888861456a565b61456a565b036120f3576040516323b872dd60e01b81523360048201523060248201526044810188905260208160648160006001600160a01b0388165af190811561067f576000916120d4575b50156120755760043560008181526101ca60205260409020600201805461ff0019169055611cd89133906148f8565b865160405163a9059cbb60e01b81526001600160a01b039091166004820152602481018490526020818060448101038160006001600160a01b0387165af190811561067f57600091612056575b5015612018576101c65460405163a9059cbb60e01b81526001600160a01b039091166004820152602481018590526020818060448101038160006001600160a01b0387165af190811561067f57600091611ff9575b5015611fbb5760405163a9059cbb60e01b81526001600160a01b039283166004820152602481018690529160209183916044918391600091165af190811561067f57600091611f9c575b5015611f5e5760018060a01b03855116604086015160028110156104b65760405190611def82613eed565b3382526020820192835260408201878152611e0e606084019283614144565b426080840152600060a0840152600060c08401526004356000526101cb60205260406000209360018060a01b038451166001600160601b0360a01b9081875416178655600186019160018060a01b0390511690825416179055516002840155519160028310156104b657600581611e8d611ecd95600360c09501614577565b608084015160048201550191611eb560a08201511515849060ff801983541691151516179055565b0151815461ff00191690151560081b61ff0016179055565b60018060a01b038551166000526101cd6020526040600020611ef082825461456a565b9055604060018060a01b0386511695015160028110156104b657611f1e906040519586526020860190613ddd565b60408401526060830152608082015233907fbebc0c10aa196863e905f076f0e17dc4fe44a1aaf864de0b0d8996cfa018518560a060043592a4600160c955005b60405162461bcd60e51b815260206004820152601660248201527514995cd95c9d99481c185e5b595b9d0819985a5b195960521b6044820152606490fd5b611fb5915060203d6020116106785761066a8183613f59565b86611dc4565b60405162461bcd60e51b8152602060048201526016602482015275119bdd5b99195c881c185e5b595b9d0819985a5b195960521b6044820152606490fd5b612012915060203d6020116106785761066a8183613f59565b88611d7a565b60405162461bcd60e51b815260206004820152601660248201527510dc99585d1bdc881c185e5b595b9d0819985a5b195960521b6044820152606490fd5b61206f915060203d6020116106785761066a8183613f59565b88611d25565b60405162461bcd60e51b815260206004820152603160248201527f546f6b656e207472616e736665722066726f6d206275796572206661696c6564604482015270080b4818da1958dac8185c1c1c9bdd985b607a1b6064820152608490fd5b6120ed915060203d6020116106785761066a8183613f59565b89611ca9565b634e487b7160e01b600052600160045260246000fd5b6101c4546101c7546001600160a01b0390811693911690611c2d565b60405162461bcd60e51b8152602060048201526024808201527f4e46542068617320616e20756e7265736f6c76656420616374697665206469736044820152637075746560e01b6064820152608490fd5b9091506004356000526020526003604060002001541660058110156104b6576003148480611bea565b915060043560005281602052806003604060002001541660058110156104b65760021491611be3565b60405162461bcd60e51b815260206004820152601760248201527f43616e6e6f742062757920796f7572206f776e204e46540000000000000000006044820152606490fd5b612226915060203d6020116116485761163a8183613f59565b81611afd565b610e3c9150843d86116106785761066a8183613f59565b604036600319011261028857612257613d9b565b6024356001600160401b03811161028857612276903690600401613fcc565b906001600160a01b037f00000000000000000000000000000000000000000000000000000000000000008116906122af30831415614351565b6122cc6000805160206150ea8339815191529282845416146143b2565b6122d46147d7565b7f4910fdfa16fed3260ed0e7147f7cc6da11a60208b5b9406d12a635614ffd91435460ff161561230a5750506103019150614d92565b6040516352d1902d60e01b81526020939291831691908481600481865afa60009181612497575b506123925760405162461bcd60e51b815260048101869052602e60248201527f45524331393637557067726164653a206e657720696d706c656d656e7461746960448201526d6f6e206973206e6f74205555505360901b6064820152608490fd5b03612440576123a082614d92565b7fbc7cd75a20ee27fd9adebab32041f755214dbc6bffa90cc0225b39da2e5c2d3b600080a2825115801590612438575b6123d657005b60008061030194604051946123ea86613f3e565b602786527f416464726573733a206c6f772d6c6576656c2064656c65676174652063616c6c81870152660819985a5b195960ca1b604087015281519101845af4612432614e22565b91615010565b5060016123d0565b60405162461bcd60e51b815260048101849052602960248201527f45524331393637557067726164653a20756e737570706f727465642070726f786044820152681a58589b195555525160ba1b6064820152608490fd5b9091508581813d83116124bf575b6124af8183613f59565b8101031261028857519087612331565b503d6124a5565b34610288576103016109676124da36613e31565b90604051926124e884613f23565b600084526109576109528433614830565b34610288576000366003190112610288576125126147d7565b60fb5460ff8116156125515760ff191660fb557f5db9ee0a495bf2e6ff9c91a7834c1ba4fdd244a5e8aa4e537bd38aeae4b073aa6020604051338152a1005b60405162461bcd60e51b815260206004820152601460248201527314185d5cd8589b194e881b9bdd081c185d5cd95960621b6044820152606490fd5b34610288576040366003190112610288576024356001600160401b038111610288576125bd903690600401613e66565b6125c56146a5565b6125cd6146fb565b60043560009081526101cb6020526040902080546001600160a01b03168015612ab6573303612a6757600581019081549060ff8216612a295760ff8260081c166129ec576004015462093a8081018091116105ba57421161298d578215612948576101f483116129035760ff191660011790556040519161264d83613eed565b33835261265b368383613f95565b60208401524260408401526001606084015260006080840152600060a084015260405161268781613f23565b6000815260c08401526004356000526101cc602052604060002060018060a01b038451166001600160601b0360a01b82541617815560208401518051906001600160401b038211610bdd576126ec826126e36001860154613fea565b600186016142da565b602090601f83116001146128915761271d92916000918361281b575b50508160011b916000199060031b1c19161790565b60018201555b604084015160028201556003810160608501519160058310156104b65761276d8261275260c0956005956140ee565b6080880151815461ff00191690151560081b61ff0016179055565b60a08601516004820155019301519283516001600160401b038111610bdd5761279a81610ad18454613fea565b6020601f82116001146128265790806127ce926127e3969760009261281b5750508160011b916000199060031b1c19161790565b90555b60405192604084526040840191614330565b4260208301527f9ba592891920c93074eb53d5a05f624599949799402552946403a669e040dccc339280600435930390a3600160c955005b015190508780612708565b601f198216958360005260206000209660005b8181106128795750916127e3969791846001959410612860575b505050811b0190556127d1565b015160001960f88460031b161c19169055868080612853565b83830151895560019098019760209384019301612839565b9190600184016000526020600020906000935b601f19841685106128e8576001945083601f198116106128cf575b505050811b016001820155612723565b015160001960f88460031b161c191690558680806128bf565b818101518355602094850194600190930192909101906128a4565b60405162461bcd60e51b815260206004820152601f60248201527f526561736f6e20746f6f206c6f6e6720286d61782035303020636861727329006044820152606490fd5b60405162461bcd60e51b815260206004820152601e60248201527f4469737075746520726561736f6e2063616e6e6f7420626520656d70747900006044820152606490fd5b60405162461bcd60e51b815260206004820152603160248201527f446973707574652077696e646f772068617320636c6f73656420283720646179604482015270732061667465722070757263686173652960781b6064820152608490fd5b60405162461bcd60e51b815260206004820152601560248201527414d85b1948185b1c9958591e481c995cdbdb1d9959605a1b6044820152606490fd5b60405162461bcd60e51b8152602060048201526016602482015275111a5cdc1d5d1948185b1c9958591e481bdc195b995960521b6044820152606490fd5b60405162461bcd60e51b815260206004820152602160248201527f4f6e6c79207468652062757965722063616e206f70656e2061206469737075746044820152606560f81b6064820152608490fd5b60405162461bcd60e51b815260206004820152601d60248201527f4e6f2073616c65207265636f726420666f72207468697320746f6b656e0000006044820152606490fd5b346102885760208060031936011261028857612b15613d9b565b6001600160a01b03917f00000000000000000000000000000000000000000000000000000000000000008316612b4d30821415614351565b612b6a6000805160206150ea8339815191529185835416146143b2565b612b726147d7565b60405193612b7f85613f23565b600085527f4910fdfa16fed3260ed0e7147f7cc6da11a60208b5b9406d12a635614ffd91435460ff1615612bba575050506103019150614d92565b83929316906040516352d1902d60e01b81528481600481865afa60009181612c89575b50612c3e5760405162461bcd60e51b815260048101869052602e60248201527f45524331393637557067726164653a206e657720696d706c656d656e7461746960448201526d6f6e206973206e6f74205555505360901b6064820152608490fd5b0361244057612c4c82614d92565b7fbc7cd75a20ee27fd9adebab32041f755214dbc6bffa90cc0225b39da2e5c2d3b600080a2825115801590612c81576123d657005b5060006123d0565b9091508581813d8311612cb1575b612ca18183613f59565b8101031261028857519087612bdd565b503d612c97565b3461028857612cc636613e93565b90612cd29392936147d7565b612cda6146a5565b826000526020916101cc835260406000206101cb845260406000206003820191825460ff81169860058a10156104b6576001809a03612fd957612d1e86151561428e565b15612fc8575060ff60038301541660028110156104b6578803612fb5576101c5546001600160a01b0316905b612d57600284015461473f565b6040516370a0823160e01b81523060048201526001600160a01b039390919084168983602481845afa801561067f578a93600091612f85575b50821115612ed4575b5050845460ff1916600217855550600591505b016001600160401b038411610bdd57612dcf84612dc98354613fea565b836142da565b6000601f8511600114612e505760ff612e3d946005610b3798958895612e1e8760008051602061510a8339815191529d9b604098600091612e4557508160011b916000199060031b1c19161790565b90555b0161010061ff00198254161790555416948151968780976140c9565b0390a260c955005b90508a013538610b12565b601f1985169082600052876000209160005b8b828210612ebf575050946005610b379895889560409560ff9560008051602061510a8339815191529d9b612e3d9b10612ea5575b50508d87811b019055612e21565b89013560001960038a901b60f8161c191690558e80612e97565b89840135855590930192918901918901612e62565b855460405163a9059cbb60e01b815295166001600160a01b0316600486015260248501919091529192918290816000816044810103925af190811561067f57600091612f68575b5015612f2a5780868a80612d99565b60405162461bcd60e51b81526004810187905260166024820152751499599d5b99081d1c985b9cd9995c8819985a5b195960521b6044820152606490fd5b612f7f9150873d89116106785761066a8183613f59565b89612f1b565b84819592503d8311612fae575b612f9c8183613f59565b8101031261028857818a935190612d90565b503d612f92565b6101c4546001600160a01b031690612d4a565b60ff19166003178355600590612dac565b60405162461bcd60e51b815260048101899052601e60248201527f4e6f206f70656e206469737075746520666f72207468697320746f6b656e00006044820152606490fd5b346102885761030161302f36613e31565b9161303d6109528433614830565b6148f8565b346102885760403660031901126102885761305b613d9b565b613063613e22565b9061306c6147d7565b6001600160a01b03169081156130ce5760207f4f0d405966389fffcab3db6b73b085fcb3e053164ce37766fd6b5bd57f848aa691836000526101ce82526130c38160406000209060ff801983541691151516179055565b6040519015158152a2005b60405162461bcd60e51b815260206004820152600c60248201526b5a65726f206164647265737360a01b6044820152606490fd5b34610288576000366003190112610288576101c7546040516001600160a01b039091168152602090f35b346102885760a036600319011261028857613145613d9b565b61314d613db1565b613155613dc7565b90606435906001600160a01b038216820361028857608435916001600160a01b0383168303610288576000549360ff8560081c161594858096613706575b80156136ef575b156136935760ff19811660011760005585613681575b506040516131bd81613f08565b601181527011d85a5854dc19585ac810dbdb9d195b9d607a1b6020820152604051906131e882613f08565b600582526411d4d3919560da1b602083015261321460ff60005460081c1661320f81614777565b614777565b8051906001600160401b038211610bdd57613230606554613fea565b601f8111613618575b50602090601f83116001146135a05761326a9291600091836135955750508160011b916000199060031b1c19161790565b6065555b8051906001600160401b038211610bdd5761328a606654613fea565b601f811161352c575b50602090601f83116001146134b4576132c49291600091836134a95750508160011b916000199060031b1c19161790565b6066555b61331960ff60005460081c166132dd81614777565b6132e681614777565b6132ef81614777565b600160c9556132fd81614777565b61330681614777565b60ff1960fb541660fb5561320f81614777565b61332233614a09565b6000549561333560ff8860081c16614777565b6001600160a01b031692831561346b576001600160a01b0316908115613426576001600160a01b03169061336a821515614150565b61337e6001600160a01b0384161515614194565b6133926001600160a01b03861615156141e0565b6101c380546001600160a01b031990811690951790556101c48054851690911790556101c68054841690911790556101c7805483166001600160a01b039283161790556101c88054909216921691909117905560016101c9556133f157005b61ff0019166000557f7f26b83ff96e1f2b6a682f133852f6798a09c465da95921460cefb3847402498602060405160018152a1005b60405162461bcd60e51b815260206004820152601860248201527f5a65726f20616464726573733a20676f6c6420746f6b656e00000000000000006044820152606490fd5b60405162461bcd60e51b815260206004820152601660248201527516995c9bc81859191c995cdcce881c1c9bdd1bd8dbdb60521b6044820152606490fd5b015190508980612708565b919060666000526000805160206150aa833981519152906000935b601f1984168510613511576001945083601f198116106134f8575b505050811b016066556132c8565b015160001960f88460031b161c191690558880806134ea565b818101518355602094850194600190930192909101906134cf565b6066600052601f830160051c6000805160206150aa8339815191520160208410613580575b601f820160051c6000805160206150aa8339815191520181106135745750613293565b60008155600101613551565b506000805160206150aa833981519152613551565b015190508a80612708565b919060656000526000805160206150ca833981519152906000935b601f19841685106135fd576001945083601f198116106135e4575b505050811b0160655561326e565b015160001960f88460031b161c191690558980806135d6565b818101518355602094850194600190930192909101906135bb565b6065600052601f830160051c6000805160206150ca833981519152016020841061366c575b601f820160051c6000805160206150ca8339815191520181106136605750613239565b6000815560010161363d565b506000805160206150ca83398151915261363d565b61ffff191661010117600055866131b0565b60405162461bcd60e51b815260206004820152602e60248201527f496e697469616c697a61626c653a20636f6e747261637420697320616c72656160448201526d191e481a5b9a5d1a585b1a5e995960921b6064820152608490fd5b50303b15801561319a5750600160ff82161461319a565b50600160ff821610613193565b346102885760203660031901126102885760606004356137328161473f565b9061374561373f8261475b565b9161475b565b9060405192835260208301526040820152f35b34610288576020366003190112610288576004356000526101ca602052604060002060405161378681613ed2565b60018060a01b0380835416825260018301549160208101928352600284015491600360408301956137ba60ff861688614144565b60ff606085019560081c1615158552015491608081019283525116925193519060028210156104b6576104b29251151590519160405195869586613dea565b3461028857604036600319011261028857613812613d9b565b602435906001600160a01b038080613829856145db565b16921691808314613924578033149081156138ff575b501561389457600083815260696020526040902080546001600160a01b0319168317905561386c836145db565b167f8c5be1e5ebec7d5bd14f71427d1e84f3dd0314c0f7b2291e5b200ac8c7c3b925600080a4005b60405162461bcd60e51b815260206004820152603d60248201527f4552433732313a20617070726f76652063616c6c6572206973206e6f7420746f60448201527f6b656e206f776e6572206f7220617070726f76656420666f7220616c6c0000006064820152608490fd5b9050600052606a60205260406000203360005260205260ff604060002054168461383f565b60405162461bcd60e51b815260206004820152602160248201527f4552433732313a20617070726f76616c20746f2063757272656e74206f776e656044820152603960f91b6064820152608490fd5b34610288576020366003190112610288576020611847600435614106565b3461028857602080600319360112610288576004356139ae6146a5565b6139b66146fb565b806000526101cc82526040600020916101cb81526040600020926003810190815460ff811660058110156104b657600203613bde5760081c60ff16613ba25760018501546001600160a01b03959086163303613b48576003015460ff1660028110156104b657600103613b3957600083866101c55416965b6064604051809481936323b872dd60e01b83523360048401523060248401526706f05b59d3b200009b8c6044850152165af190811561067f57600091613b1c575b5015613abd57906101047fbfdd126aa68997c487fe8561c1cc0a22983ae083ff4ef28bb6530750f64803dc939282549060044291015561ffff19161790556040519384523393a3600160c955005b60405162461bcd60e51b815260048101849052603160248201527f41707065616c20666565207472616e73666572206661696c6564202d2063686560448201527018dac81d1bdad95b88185c1c1c9bdd985b607a1b6064820152608490fd5b613b339150843d86116106785761066a8183613f59565b86613a6f565b600083866101c4541696613a2e565b60405162461bcd60e51b815260048101859052602c60248201527f4f6e6c7920746865206f726967696e616c2063726561746f722063616e20666960448201526b1b1948185b88185c1c19585b60a21b6064820152608490fd5b60405162461bcd60e51b8152600481018490526014602482015273105c1c19585b08185b1c9958591e48199a5b195960621b6044820152606490fd5b60405162461bcd60e51b815260048101859052602e60248201527f43616e206f6e6c792061707065616c2061207265736f6c7574696f6e20696e2060448201526d313abcb2b913b9903330bb37bab960911b6064820152608490fd5b3461028857600036600319011261028857604051606554600082613c5d83613fea565b91828252602093600190856001821691826000146112e0575050600114613c8b575061128192500383613f59565b84915060656000526000805160206150ca833981519152906000915b858310613cbe575050611281935082010185611274565b80548389018501528794508693909201918101613ca7565b34610288576020366003190112610288576004359063ffffffff60e01b821680920361028857602091632483248360e11b8114908115613d18575b5015158152f35b6380ac58cd60e01b811491508115613d4a575b8115613d39575b5083613d11565b6301ffc9a760e01b14905083613d32565b635b5e139f60e01b81149150613d2b565b919082519283825260005b848110613d87575050826000602080949584010152601f8019910116010190565b602081830181015184830182015201613d66565b600435906001600160a01b038216820361028857565b602435906001600160a01b038216820361028857565b604435906001600160a01b038216820361028857565b9060028210156104b65752565b6001600160a01b039091168152602081019190915260a08101949392608092613e17906040840190613ddd565b151560608201520152565b60243590811515820361028857565b6060906003190112610288576001600160a01b0390600435828116810361028857916024359081168103610288579060443590565b9181601f84011215610288578235916001600160401b038311610288576020838186019501011161028857565b6060600319820112610288576004359160243580151581036102885791604435906001600160401b03821161028857613ece91600401613e66565b9091565b60a081019081106001600160401b03821117610bdd57604052565b60e081019081106001600160401b03821117610bdd57604052565b604081019081106001600160401b03821117610bdd57604052565b602081019081106001600160401b03821117610bdd57604052565b606081019081106001600160401b03821117610bdd57604052565b90601f801991011681019081106001600160401b03821117610bdd57604052565b6001600160401b038111610bdd57601f01601f191660200190565b929192613fa182613f7a565b91613faf6040519384613f59565b829481845281830111610288578281602093846000960137010152565b9080601f8301121561028857816020613fe793359101613f95565b90565b90600182811c9216801561401a575b602083101461400457565b634e487b7160e01b600052602260045260246000fd5b91607f1691613ff9565b9060405191826000825461403781613fea565b908184526020946001916001811690816000146140a75750600114614068575b50505061406692500383613f59565b565b600090815285812095935091905b81831061408f5750506140669350820101388080614057565b85548884018501529485019487945091830191614076565b9250505061406694925060ff191682840152151560051b820101388080614057565b9060058210156104b65752565b90816020910312610288575180151581036102885790565b9060058110156104b65760ff80198354169116179055565b600081815260676020526040902054614129906001600160a01b0316151561458f565b6000908152606960205260409020546001600160a01b031690565b60028210156104b65752565b1561415757565b60405162461bcd60e51b81526020600482015260156024820152742d32b9379030b2323932b9b99d103337bab73232b960591b6044820152606490fd5b1561419b57565b60405162461bcd60e51b815260206004820152601a60248201527f5a65726f20616464726573733a20676f6c6420726573657276650000000000006044820152606490fd5b156141e757565b60405162461bcd60e51b815260206004820152601c60248201527f5a65726f20616464726573733a2073696c7665722072657365727665000000006044820152606490fd5b1561423357565b60405162461bcd60e51b815260206004820152602d60248201527f4552433732313a2063616c6c6572206973206e6f7420746f6b656e206f776e6560448201526c1c881bdc88185c1c1c9bdd9959609a1b6064820152608490fd5b1561429557565b60405162461bcd60e51b815260206004820152601960248201527f5265736f6c7574696f6e206e6f746573207265717569726564000000000000006044820152606490fd5b90601f81116142e857505050565b6000916000526020600020906020601f850160051c83019410614326575b601f0160051c01915b82811061431b57505050565b81815560010161430f565b9092508290614306565b908060209392818452848401376000828201840152601f01601f1916010190565b1561435857565b60405162461bcd60e51b815260206004820152602c60248201527f46756e6374696f6e206d7573742062652063616c6c6564207468726f7567682060448201526b19195b1959d85d1958d85b1b60a21b6064820152608490fd5b156143b957565b60405162461bcd60e51b815260206004820152602c60248201527f46756e6374696f6e206d7573742062652063616c6c6564207468726f7567682060448201526b6163746976652070726f787960a01b6064820152608490fd5b1561441a57565b60405162461bcd60e51b8152602060048201526012602482015271141c9bdd1bd8dbdb081a5cc81c185d5cd95960721b6044820152606490fd5b90816020910312610288575160068110156102885790565b1561447357565b60405162461bcd60e51b815260206004820152603160248201527f4d61726b6574706c6163652073757370656e6465643a206f7261636c65206661604482015270696c75726520285245442073746167652960781b6064820152608490fd5b156144d957565b60405162461bcd60e51b815260206004820152601a60248201527f4e4654206973206e6f74206c697374656420666f722073616c650000000000006044820152606490fd5b1561452557565b60405162461bcd60e51b815260206004820152601b60248201527f53696c76657220746f6b656e206e6f7420636f6e6669677572656400000000006044820152606490fd5b919082018092116105ba57565b9060028110156104b65760ff80198354169116179055565b1561459657565b60405162461bcd60e51b815260206004820152601860248201527f4552433732313a20696e76616c696420746f6b656e20494400000000000000006044820152606490fd5b6000908152606760205260409020546001600160a01b0316613fe781151561458f565b1561460557565b60405162461bcd60e51b815260206004820152601c60248201527f4d65746164617461205552492063616e6e6f7420626520656d707479000000006044820152606490fd5b60001981146105ba5760010190565b1561466057565b60405162461bcd60e51b815260206004820152601c60248201527f43616c6c657220646f6573206e6f74206f776e2074686973204e4654000000006044820152606490fd5b600260c954146146b657600260c955565b60405162461bcd60e51b815260206004820152601f60248201527f5265656e7472616e637947756172643a207265656e7472616e742063616c6c006044820152606490fd5b60ff60fb541661470757565b60405162461bcd60e51b815260206004820152601060248201526f14185d5cd8589b194e881c185d5cd95960821b6044820152606490fd5b611770908181029181830414901517156105ba57612710900490565b6107d0908181029181830414901517156105ba57612710900490565b1561477e57565b60405162461bcd60e51b815260206004820152602b60248201527f496e697469616c697a61626c653a20636f6e7472616374206973206e6f74206960448201526a6e697469616c697a696e6760a81b6064820152608490fd5b61012d546001600160a01b031633036147ec57565b606460405162461bcd60e51b815260206004820152602060248201527f4f776e61626c653a2063616c6c6572206973206e6f7420746865206f776e65726044820152fd5b906001600160a01b038080614844846145db565b16931691838314938415614877575b508315614861575b50505090565b61486d91929350614106565b161438808061485b565b909350600052606a60205260406000208260005260205260ff604060002054169238614853565b156148a557565b60405162461bcd60e51b815260206004820152602560248201527f4552433732313a207472616e736665722066726f6d20696e636f72726563742060448201526437bbb732b960d91b6064820152608490fd5b9061492091614906846145db565b6001600160a01b039391841692849290918316841461489e565b169182156149b8578161493d91614936866145db565b161461489e565b7fddf252ad1be2c89b69c2b068fc378daa952ba7f163c4a11628f55a4df523b3ef60008481526069602052604081206001600160601b0360a01b9081815416905583825260686020526040822060001981540190558482526040822060018154019055858252606760205284604083209182541617905580a4565b60405162461bcd60e51b8152602060048201526024808201527f4552433732313a207472616e7366657220746f20746865207a65726f206164646044820152637265737360e01b6064820152608490fd5b61012d80546001600160a01b039283166001600160a01b0319821681179092559091167f8be0079c531659141344cd1fd0a4f28419497f9722a3daafe3b4186f6b6457e0600080a3565b604051614a5f81613f23565b6000808252926001600160a01b038316928315614b2457816109679461406696614aa7614aa184600052606760205260018060a01b0360406000205416151590565b15614fc4565b600083815260676020526040902054614aca906001600160a01b03161515614aa1565b81815260686020526040812060018154019055828152606760205260408120826001600160601b0360a01b8254161790557fddf252ad1be2c89b69c2b068fc378daa952ba7f163c4a11628f55a4df523b3ef8180a4614e52565b606460405162461bcd60e51b815260206004820152602060248201527f4552433732313a206d696e7420746f20746865207a65726f20616464726573736044820152fd5b6000818152606760205260409020549192916001600160a01b031615614cbf576000908082526020916097835260408120908551956001600160401b038711614cab57614bbf87614bb98554613fea565b856142da565b8491601f8811600114614c275796614c109281927ff8e1a15aba9398e019f0b49df1a4fde98ee17ae345cb5f6b5e2c27f5033e8ce7989992614c1c5750508160011b916000199060031b1c19161790565b90555b604051908152a1565b015190503880612708565b9190601f198816848452868420935b818110614c9457509160019391897ff8e1a15aba9398e019f0b49df1a4fde98ee17ae345cb5f6b5e2c27f5033e8ce7999a9410614c7b575b505050811b019055614c13565b015160001960f88460031b161c19169055388080614c6e565b929387600181928786015181550195019301614c36565b634e487b7160e01b82526041600452602482fd5b60405162461bcd60e51b815260206004820152602e60248201527f45524337323155524953746f726167653a2055524920736574206f66206e6f6e60448201526d32bc34b9ba32b73a103a37b5b2b760911b6064820152608490fd5b60809060208152603260208201527f4552433732313a207472616e7366657220746f206e6f6e20455243373231526560408201527131b2b4bb32b91034b6b83632b6b2b73a32b960711b60608201520190565b15614d7557565b60405162461bcd60e51b815280614d8e60048201614d1b565b0390fd5b803b15614dc7576000805160206150ea83398151915280546001600160a01b0319166001600160a01b03909216919091179055565b60405162461bcd60e51b815260206004820152602d60248201527f455243313936373a206e657720696d706c656d656e746174696f6e206973206e60448201526c1bdd08184818dbdb9d1c9858dd609a1b6064820152608490fd5b3d15614e4d573d90614e3382613f7a565b91614e416040519384613f59565b82523d6000602084013e565b606090565b909190803b15614f43576020604051809281630a85bd0160e11b9687825233600483015281614e9b60009889938460248501526044840152608060648401526084830190613d5b565b03926001600160a01b03165af190829082614ef3575b5050614ee557614ebf614e22565b80519081614ee05760405162461bcd60e51b815280614d8e60048201614d1b565b602001fd5b6001600160e01b0319161490565b909192506020813d602011614f3b575b81614f1060209383613f59565b81010312614f375751906001600160e01b031982168203614f345750903880614eb1565b80fd5b5080fd5b3d9150614f03565b505050600190565b9290803b15614fbb57614f9b9160209160018060a01b039460405180958194829389630a85bd0160e11b9b8c86523360048701521660248501526044840152608060648401526084830190613d5b565b03916000968791165af190829082614ef3575050614ee557614ebf614e22565b50505050600190565b15614fcb57565b60405162461bcd60e51b815260206004820152601c60248201527f4552433732313a20746f6b656e20616c7265616479206d696e746564000000006044820152606490fd5b919290156150725750815115615024575090565b3b1561502d5790565b60405162461bcd60e51b815260206004820152601d60248201527f416464726573733a2063616c6c20746f206e6f6e2d636f6e74726163740000006044820152606490fd5b8251909150156150855750805190602001fd5b60405162461bcd60e51b815260206004820152908190614d8e906024830190613d5b56fe46501879b8ca8525e8c2fd519e2fbfcfa2ebea26501294aa02cbfcfb12e943548ff97419363ffd7000167f130ef7168fbea05faf9251824ca5043f113cc6a7c7360894a13ba1a3210667c828492db98dca3e2076cc3735a920a3ca505d382bbcc204352fad7e46251e09ce83e05533737044b65128eb8926aac1969fbe2be267a26469706673582212208a01eaf555ddf8cb15c97a9ccc0b7b3bc8745dae29e5ec671a5f54a73a42cc3564736f6c63430008180033","abi":[{"anonymous":false,"inputs":[{"indexed":false,"internalType":"address","name":"previousAdmin","type":"address"},{"indexed":false,"internalType":"address","name":"newAdmin","type":"address"}],"name":"AdminChanged","type":"event"},{"anonymous":false,"inputs":[{"indexed":true,"internalType":"uint256","name":"tokenId","type":"uint256"},{"indexed":true,"internalType":"address","name":"creator","type":"address"},{"indexed":false,"internalType":"uint256","name":"feeAmount","type":"uint256"}],"name":"AppealFiled","type":"event"},{"anonymous":false,"inputs":[{"indexed":true,"internalType":"address","name":"owner","type":"address"},{"indexed":true,"internalType":"address","name":"approved","type":"address"},{"indexed":true,"internalType":"uint256","name":"tokenId","type":"uint256"}],"name":"Approval","type":"event"},{"anonymous":false,"inputs":[{"indexed":true,"internalType":"address","name":"owner","type":"address"},{"indexed":true,"internalType":"address","name":"operator","type":"address"},{"indexed":false,"internalType":"bool","name":"approved","type":"bool"}],"name":"ApprovalForAll","type":"event"},{"anonymous":false,"inputs":[{"indexed":false,"internalType":"uint256","name":"_fromTokenId","type":"uint256"},{"indexed":false,"internalType":"uint256","name":"_toTokenId","type":"uint256"}],"name":"BatchMetadataUpdate","type":"event"},{"anonymous":false,"inputs":[{"indexed":true,"internalType":"address","name":"beacon","type":"address"}],"name":"BeaconUpgraded","type":"event"},{"anonymous":false,"inputs":[{"indexed":true,"internalType":"address","name":"creator","type":"address"},{"indexed":false,"internalType":"bool","name":"verified","type":"bool"}],"name":"CreatorVerified","type":"event"},{"anonymous":false,"inputs":[{"indexed":true,"internalType":"uint256","name":"tokenId","type":"uint256"},{"indexed":true,"internalType":"address","name":"initiator","type":"address"},{"indexed":false,"internalType":"string","name":"reason","type":"string"},{"indexed":false,"internalType":"uint256","name":"openedAt","type":"uint256"}],"name":"DisputeOpened","type":"event"},{"anonymous":false,"inputs":[{"indexed":true,"internalType":"uint256","name":"tokenId","type":"uint256"},{"indexed":false,"internalType":"enum GaiaSpeakNFT.DisputeStatus","name":"result","type":"uint8"},{"indexed":false,"internalType":"string","name":"notes","type":"string"}],"name":"DisputeResolved","type":"event"},{"anonymous":false,"inputs":[{"indexed":false,"internalType":"uint8","name":"version","type":"uint8"}],"name":"Initialized","type":"event"},{"anonymous":false,"inputs":[{"indexed":false,"internalType":"uint256","name":"_tokenId","type":"uint256"}],"name":"MetadataUpdate","type":"event"},{"anonymous":false,"inputs":[{"indexed":true,"internalType":"uint256","name":"tokenId","type":"uint256"},{"indexed":true,"internalType":"address","name":"seller","type":"address"}],"name":"NFTDelisted","type":"event"},{"anonymous":false,"inputs":[{"indexed":true,"internalType":"uint256","name":"tokenId","type":"uint256"},{"indexed":true,"internalType":"address","name":"seller","type":"address"},{"indexed":false,"internalType":"uint256","name":"price","type":"uint256"},{"indexed":false,"internalType":"enum GaiaSpeakNFT.PaymentToken","name":"payToken","type":"uint8"}],"name":"NFTListed","type":"event"},{"anonymous":false,"inputs":[{"indexed":true,"internalType":"uint256","name":"tokenId","type":"uint256"},{"indexed":true,"internalType":"address","name":"creator","type":"address"},{"indexed":false,"internalType":"string","name":"metadataURI","type":"string"},{"indexed":false,"internalType":"uint256","name":"price","type":"uint256"},{"indexed":false,"internalType":"enum GaiaSpeakNFT.PaymentToken","name":"payToken","type":"uint8"}],"name":"NFTMinted","type":"event"},{"anonymous":false,"inputs":[{"indexed":true,"internalType":"uint256","name":"tokenId","type":"uint256"},{"indexed":true,"internalType":"address","name":"buyer","type":"address"},{"indexed":true,"internalType":"address","name":"creator","type":"address"},{"indexed":false,"internalType":"uint256","name":"price","type":"uint256"},{"indexed":false,"internalType":"enum GaiaSpeakNFT.PaymentToken","name":"payToken","type":"uint8"},{"indexed":false,"internalType":"uint256","name":"creatorShare","type":"uint256"},{"indexed":false,"internalType":"uint256","name":"founderShare","type":"uint256"},{"indexed":false,"internalType":"uint256","name":"reserveShare","type":"uint256"}],"name":"NFTSold","type":"event"},{"anonymous":false,"inputs":[{"indexed":true,"internalType":"address","name":"previousOwner","type":"address"},{"indexed":true,"internalType":"address","name":"newOwner","type":"address"}],"name":"OwnershipTransferred","type":"event"},{"anonymous":false,"inputs":[{"indexed":false,"internalType":"address","name":"account","type":"address"}],"name":"Paused","type":"event"},{"anonymous":false,"inputs":[{"indexed":true,"internalType":"address","name":"silverToken","type":"address"}],"name":"SilverTokenSet","type":"event"},{"anonymous":false,"inputs":[{"indexed":true,"internalType":"address","name":"from","type":"address"},{"indexed":true,"internalType":"address","name":"to","type":"address"},{"indexed":true,"internalType":"uint256","name":"tokenId","type":"uint256"}],"name":"Transfer","type":"event"},{"anonymous":false,"inputs":[{"indexed":false,"internalType":"address","name":"account","type":"address"}],"name":"Unpaused","type":"event"},{"anonymous":false,"inputs":[{"indexed":true,"internalType":"address","name":"implementation","type":"address"}],"name":"Upgraded","type":"event"},{"anonymous":false,"inputs":[{"indexed":false,"internalType":"address","name":"founder","type":"address"},{"indexed":false,"internalType":"address","name":"goldReserve","type":"address"},{"indexed":false,"internalType":"address","name":"silverReserve","type":"address"}],"name":"WalletsUpdated","type":"event"},{"inputs":[{"internalType":"address","name":"to","type":"address"},{"internalType":"uint256","name":"tokenId","type":"uint256"}],"name":"approve","outputs":[],"stateMutability":"nonpayable","type":"function"},{"inputs":[{"internalType":"address","name":"owner","type":"address"}],"name":"balanceOf","outputs":[{"internalType":"uint256","name":"","type":"uint256"}],"stateMutability":"view","type":"function"},{"inputs":[{"internalType":"uint256","name":"tokenId","type":"uint256"}],"name":"buyNFT","outputs":[],"stateMutability":"nonpayable","type":"function"},{"inputs":[{"internalType":"address","name":"","type":"address"}],"name":"creatorEarnings","outputs":[{"internalType":"uint256","name":"","type":"uint256"}],"stateMutability":"view","type":"function"},{"inputs":[{"internalType":"uint256","name":"tokenId","type":"uint256"}],"name":"delistNFT","outputs":[],"stateMutability":"nonpayable","type":"function"},{"inputs":[{"internalType":"uint256","name":"","type":"uint256"}],"name":"disputes","outputs":[{"internalType":"address","name":"initiator","type":"address"},{"internalType":"string","name":"reason","type":"string"},{"internalType":"uint256","name":"openedAt","type":"uint256"},{"internalType":"enum GaiaSpeakNFT.DisputeStatus","name":"status","type":"uint8"},{"internalType":"bool","name":"creatorAppealed","type":"bool"},{"internalType":"uint256","name":"appealedAt","type":"uint256"},{"internalType":"string","name":"resolution","type":"string"}],"stateMutability":"view","type":"function"},{"inputs":[{"internalType":"uint256","name":"tokenId","type":"uint256"}],"name":"fileAppeal","outputs":[],"stateMutability":"nonpayable","type":"function"},{"inputs":[],"name":"founderWallet","outputs":[{"internalType":"address","name":"","type":"address"}],"stateMutability":"view","type":"function"},{"inputs":[{"internalType":"uint256","name":"tokenId","type":"uint256"}],"name":"getApproved","outputs":[{"internalType":"address","name":"","type":"address"}],"stateMutability":"view","type":"function"},{"inputs":[{"internalType":"uint256","name":"tokenId","type":"uint256"}],"name":"getDispute","outputs":[{"internalType":"address","name":"initiator","type":"address"},{"internalType":"string","name":"reason","type":"string"},{"internalType":"uint256","name":"openedAt","type":"uint256"},{"internalType":"enum GaiaSpeakNFT.DisputeStatus","name":"status","type":"uint8"},{"internalType":"bool","name":"creatorAppealed","type":"bool"},{"internalType":"string","name":"resolution","type":"string"}],"stateMutability":"view","type":"function"},{"inputs":[{"internalType":"uint256","name":"tokenId","type":"uint256"}],"name":"getListing","outputs":[{"internalType":"address","name":"creator","type":"address"},{"internalType":"uint256","name":"price","type":"uint256"},{"internalType":"enum GaiaSpeakNFT.PaymentToken","name":"payToken","type":"uint8"},{"internalType":"bool","name":"active","type":"bool"},{"internalType":"uint256","name":"listedAt","type":"uint256"}],"stateMutability":"view","type":"function"},{"inputs":[],"name":"goldReserveWallet","outputs":[{"internalType":"address","name":"","type":"address"}],"stateMutability":"view","type":"function"},{"inputs":[],"name":"goldTokenContract","outputs":[{"internalType":"contract IGaiaSpeakToken","name":"","type":"address"}],"stateMutability":"view","type":"function"},{"inputs":[],"name":"guardianVotePause","outputs":[],"stateMutability":"nonpayable","type":"function"},{"inputs":[{"internalType":"address","name":"_protocol","type":"address"},{"internalType":"address","name":"_goldToken","type":"address"},{"internalType":"address","name":"_founder","type":"address"},{"internalType":"address","name":"_goldReserve","type":"address"},{"internalType":"address","name":"_silverReserve","type":"address"}],"name":"initialize","outputs":[],"stateMutability":"nonpayable","type":"function"},{"inputs":[{"internalType":"address","name":"owner","type":"address"},{"internalType":"address","name":"operator","type":"address"}],"name":"isApprovedForAll","outputs":[{"internalType":"bool","name":"","type":"bool"}],"stateMutability":"view","type":"function"},{"inputs":[{"internalType":"uint256","name":"tokenId","type":"uint256"}],"name":"isListed","outputs":[{"internalType":"bool","name":"","type":"bool"}],"stateMutability":"view","type":"function"},{"inputs":[{"internalType":"uint256","name":"tokenId","type":"uint256"},{"internalType":"uint256","name":"price","type":"uint256"},{"internalType":"enum GaiaSpeakNFT.PaymentToken","name":"payToken","type":"uint8"}],"name":"listNFT","outputs":[],"stateMutability":"nonpayable","type":"function"},{"inputs":[{"internalType":"uint256","name":"","type":"uint256"}],"name":"listings","outputs":[{"internalType":"address","name":"creator","type":"address"},{"internalType":"uint256","name":"price","type":"uint256"},{"internalType":"enum GaiaSpeakNFT.PaymentToken","name":"payToken","type":"uint8"},{"internalType":"bool","name":"active","type":"bool"},{"internalType":"uint256","name":"listedAt","type":"uint256"}],"stateMutability":"view","type":"function"},{"inputs":[{"internalType":"string","name":"metadataURI","type":"string"},{"internalType":"uint256","name":"price","type":"uint256"},{"internalType":"enum GaiaSpeakNFT.PaymentToken","name":"payToken","type":"uint8"}],"name":"mintAndList","outputs":[{"internalType":"uint256","name":"tokenId","type":"uint256"}],"stateMutability":"nonpayable","type":"function"},{"inputs":[{"internalType":"string","name":"metadataURI","type":"string"}],"name":"mintPrivate","outputs":[{"internalType":"uint256","name":"tokenId","type":"uint256"}],"stateMutability":"nonpayable","type":"function"},{"inputs":[],"name":"name","outputs":[{"internalType":"string","name":"","type":"string"}],"stateMutability":"view","type":"function"},{"inputs":[{"internalType":"uint256","name":"tokenId","type":"uint256"},{"internalType":"string","name":"reason","type":"string"}],"name":"openDispute","outputs":[],"stateMutability":"nonpayable","type":"function"},{"inputs":[],"name":"owner","outputs":[{"internalType":"address","name":"","type":"address"}],"stateMutability":"view","type":"function"},{"inputs":[{"internalType":"uint256","name":"tokenId","type":"uint256"}],"name":"ownerOf","outputs":[{"internalType":"address","name":"","type":"address"}],"stateMutability":"view","type":"function"},{"inputs":[],"name":"paused","outputs":[{"internalType":"bool","name":"","type":"bool"}],"stateMutability":"view","type":"function"},{"inputs":[{"internalType":"uint256","name":"price","type":"uint256"}],"name":"previewSplit","outputs":[{"internalType":"uint256","name":"creatorShare","type":"uint256"},{"internalType":"uint256","name":"founderShare","type":"uint256"},{"internalType":"uint256","name":"reserveShare","type":"uint256"}],"stateMutability":"pure","type":"function"},{"inputs":[],"name":"protocolContract","outputs":[{"internalType":"contract IGaiaSpeakProtocol","name":"","type":"address"}],"stateMutability":"view","type":"function"},{"inputs":[],"name":"proxiableUUID","outputs":[{"internalType":"bytes32","name":"","type":"bytes32"}],"stateMutability":"view","type":"function"},{"inputs":[],"name":"renounceOwnership","outputs":[],"stateMutability":"nonpayable","type":"function"},{"inputs":[{"internalType":"uint256","name":"tokenId","type":"uint256"},{"internalType":"bool","name":"appealSucceeds","type":"bool"},{"internalType":"string","name":"notes","type":"string"}],"name":"resolveAppeal","outputs":[],"stateMutability":"nonpayable","type":"function"},{"inputs":[{"internalType":"uint256","name":"tokenId","type":"uint256"},{"internalType":"bool","name":"favourBuyer","type":"bool"},{"internalType":"string","name":"notes","type":"string"}],"name":"resolveDispute","outputs":[],"stateMutability":"nonpayable","type":"function"},{"inputs":[{"internalType":"address","name":"from","type":"address"},{"internalType":"address","name":"to","type":"address"},{"internalType":"uint256","name":"tokenId","type":"uint256"}],"name":"safeTransferFrom","outputs":[],"stateMutability":"nonpayable","type":"function"},{"inputs":[{"internalType":"address","name":"from","type":"address"},{"internalType":"address","name":"to","type":"address"},{"internalType":"uint256","name":"tokenId","type":"uint256"},{"internalType":"bytes","name":"data","type":"bytes"}],"name":"safeTransferFrom","outputs":[],"stateMutability":"nonpayable","type":"function"},{"inputs":[{"internalType":"uint256","name":"","type":"uint256"}],"name":"saleRecords","outputs":[{"internalType":"address","name":"buyer","type":"address"},{"internalType":"address","name":"creator","type":"address"},{"internalType":"uint256","name":"price","type":"uint256"},{"internalType":"enum GaiaSpeakNFT.PaymentToken","name":"payToken","type":"uint8"},{"internalType":"uint256","name":"soldAt","type":"uint256"},{"internalType":"bool","name":"disputed","type":"bool"},{"internalType":"bool","name":"resolved","type":"bool"}],"stateMutability":"view","type":"function"},{"inputs":[{"internalType":"address","name":"operator","type":"address"},{"internalType":"bool","name":"approved","type":"bool"}],"name":"setApprovalForAll","outputs":[],"stateMutability":"nonpayable","type":"function"},{"inputs":[{"internalType":"address","name":"_silver","type":"address"}],"name":"setSilverTokenContract","outputs":[],"stateMutability":"nonpayable","type":"function"},{"inputs":[{"internalType":"address","name":"creator","type":"address"},{"internalType":"bool","name":"verified","type":"bool"}],"name":"setVerifiedCreator","outputs":[],"stateMutability":"nonpayable","type":"function"},{"inputs":[{"internalType":"address","name":"_founder","type":"address"},{"internalType":"address","name":"_goldReserve","type":"address"},{"internalType":"address","name":"_silverReserve","type":"address"}],"name":"setWallets","outputs":[],"stateMutability":"nonpayable","type":"function"},{"inputs":[],"name":"silverReserveWallet","outputs":[{"internalType":"address","name":"","type":"address"}],"stateMutability":"view","type":"function"},{"inputs":[],"name":"silverTokenContract","outputs":[{"internalType":"contract IGaiaSpeakToken","name":"","type":"address"}],"stateMutability":"view","type":"function"},{"inputs":[{"internalType":"bytes4","name":"interfaceId","type":"bytes4"}],"name":"supportsInterface","outputs":[{"internalType":"bool","name":"","type":"bool"}],"stateMutability":"view","type":"function"},{"inputs":[],"name":"symbol","outputs":[{"internalType":"string","name":"","type":"string"}],"stateMutability":"view","type":"function"},{"inputs":[{"internalType":"uint256","name":"tokenId","type":"uint256"}],"name":"tokenURI","outputs":[{"internalType":"string","name":"","type":"string"}],"stateMutability":"view","type":"function"},{"inputs":[],"name":"totalMinted","outputs":[{"internalType":"uint256","name":"","type":"uint256"}],"stateMutability":"view","type":"function"},{"inputs":[{"internalType":"address","name":"from","type":"address"},{"internalType":"address","name":"to","type":"address"},{"internalType":"uint256","name":"tokenId","type":"uint256"}],"name":"transferFrom","outputs":[],"stateMutability":"nonpayable","type":"function"},{"inputs":[{"internalType":"address","name":"newOwner","type":"address"}],"name":"transferOwnership","outputs":[],"stateMutability":"nonpayable","type":"function"},{"inputs":[],"name":"unpause","outputs":[],"stateMutability":"nonpayable","type":"function"},{"inputs":[{"internalType":"address","name":"newImplementation","type":"address"}],"name":"upgradeTo","outputs":[],"stateMutability":"nonpayable","type":"function"},{"inputs":[{"internalType":"address","name":"newImplementation","type":"address"},{"internalType":"bytes","name":"data","type":"bytes"}],"name":"upgradeToAndCall","outputs":[],"stateMutability":"payable","type":"function"},{"inputs":[{"internalType":"address","name":"","type":"address"}],"name":"verifiedCreators","outputs":[{"internalType":"bool","name":"","type":"bool"}],"stateMutability":"view","type":"function"}]}