{"address":"0x4F31A0e57e153cB7Df862f4d39516fbB87ee5A6f","bytecode":"0x60a08060405234610031573060805261366f90816100378239608051818181611e1c01528181611f4801526122eb0152f35b600080fdfe6080604052600436101561001257600080fd5b6000803560e01c806305eaab4b146126a257806306fdde031461260d578063095ea7b3146125e657806318160ddd146125c857806319d00c36146125a957806319f4ba291461258a57806323b872dd146124d0578063313ce567146124b45780633659cfe6146122c65780633950935114612276578063398daa85146122365780633f4ba83a146121a15780634f1ef28614611ecd57806352d1902d14611e095780635c975abb14611de65780635da48a9c14611c2f5780635f8f40e814611aa157806366ee7c0614611a6757806370a0823114611a2e578063715018a6146119d15780638456cb59146119765780638ce744261461194c5780638da5cb5b146119235780638ebfc796146118cb57806395d89b41146117f8578063a230c524146117bc578063a457c2d71461171a578063a9059cbb146116e8578063a90f8e9a146116ab578063cd6dc687146111b4578063ce557031146105aa578063ceea758b14610335578063d4c7842b1461030a578063db74559b146102d0578063dd62ed3e14610281578063ea4bbaf4146102475763f2fde38b146101b457600080fd5b34610244576020366003190112610244576101cd6127d8565b6101d5613078565b6001600160a01b038116156101f0576101ed9061328c565b80f35b60405162461bcd60e51b815260206004820152602660248201527f4f776e61626c653a206e6577206f776e657220697320746865207a65726f206160448201526564647265737360d01b6064820152608490fd5b80fd5b5034610244576020366003190112610244576020906040906001600160a01b0361026f6127d8565b16815261016283522054604051908152f35b50346102445760403660031901126102445761029b6127d8565b60406102a56127ee565b9260018060a01b03809316815260346020522091166000526020526020604060002054604051908152f35b5034610244576020366003190112610244576020906040906001600160a01b036102f86127d8565b16815261016683522054604051908152f35b503461024457604036600319011261024457610324613078565b600435610163556024356101645580f35b503461024457604036600319011261024457602490600435823567ffffffffffffffff8082116105a657366023830112156105a65781600401359081116105a657368582840101116105a657610389612a67565b610391612abe565b33845260209161016083526103ab604086205443116129c0565b670de0b6b3a7640000841061056c5733855260338352836040862054106105355761015f546040516316fd755360e21b8152908490829060049082906001600160a01b03165afa90811561052a5786916104fd575b5060068110156104ea576004146104ad577fe94d4fe051c4c582c4589bc07b68fe07bbec08a4dd1038d06a3eb0ff696b1fbd90828596976104627ffd38818f5291bf0bb3a2a48aadc06ba8757865d1dabd804585338aab3009dcb697336130d0565b6040519288845260608785015282606085015201608083013786608084830101524260408201526080813394601f80199101168101030190a26040519283523392a2600161012d5580f35b60405162461bcd60e51b81526004810184905260168188015275155b985d985a5b18589b1948191d5c9a5b99c814915160521b6044820152606490fd5b634e487b7160e01b865260216004528686fd5b61051d9150843d8611610523575b6105158183612866565b810190612a37565b38610400565b503d61050b565b6040513d88823e3d90fd5b60405162461bcd60e51b8152600481018490526010818801526f496e73756666696369656e742047535360801b6044820152606490fd5b60405162461bcd60e51b815260048101849052601381880152724d696e696d756d20312066756c6c206772616d60681b6044820152606490fd5b8380fd5b506020366003190112610244576105bf6127d8565b6105c7612a67565b6105cf612abe565b61015f546040516316fd755360e21b8082529291602090829060049082906001600160a01b03165afa908115610d1e578491611195575b5060068110156111815760041461112857338352610161806020526040842054603c81018091116111145742106110d65733845260205242604084205560018060a01b0361015f5416916040519163dc7ac66760e01b90818452602084600481885afa93841561052a5786946110a2575b50831561105d57602060049560405196878092631364f05960e11b82525afa94851561052a578695611025575b508415610fe7576106c194670de0b6b3a7640000958691346128a4565b04858110610fa257338752610160602052436040882055858102958187041490151715610cb55783850415610f6a5761015f5460405163197d63a160e01b815233600482015287916001600160a01b031690602081602481855afa908115610f5f578391610f40575b501580610eda575b610e93575b50506001600160a01b031680151580610e89575b80610e6b575b610e47575b5033855261016560205260408520546001600160a01b031680610dd2575b5061078183850433612c4e565b61015f546040519283526001600160a01b0316602083600481845afa92831561052a578693610db1575b506006831015610d9d5760028314610b6757505060643402341591348204606414831715610b5157343404600114831715610b51576122078034029034820414841715610b51576127109004916104a493348534020485141715610b515761082e6127108534020461082985610829612710340461271087046129b3565b6129b3565b348110610b39575b5061015f5460405163a23d3c3560e01b81529190602090839060049082906001600160a01b03165afa908115610b2e5761087d928992610b09575b5061271090049061320b565b8590865b600581106109ce5750509061089d6108a3926127103404612df4565b906129b3565b61015f5460405163d9bdc56360e01b815291929190602090829060049082906001600160a01b03165afa92831561052a576004936108e89288916109af575b5061320b565b61015f54604051637eb9711560e11b81529260209184919082906001600160a01b03165afa9081156109a45761092d92869261096f575b50612710903402049061320b565b806040519234845204602083015260408201527f69896924bd045ec1a925e13155b24c04d7a2e8503acf93d6a0eff666fa7b93f160603392a2600161012d5580f35b6127109192506109969060203d60201161099d575b61098e8183612866565b810190612a18565b919061091f565b503d610984565b6040513d87823e3d90fd5b6109c8915060203d60201161099d5761098e8183612866565b386108e2565b61015f54604051632567bbad60e11b815260048101839052906001600160a01b0316602082602481845afa918215610ad9578a92610ae4575b50604051630e13982560e11b81526001600160a01b038316600482015290602090829060249082905afa908115610ad9578a91610aaa575b5080610a82575b610a54575b50600101610881565b60019193610a6d610a7b9260056127103404049061320b565b6005612710340404906129b3565b9290610a4b565b506006831015610a96576001831415610a46565b634e487b7160e01b89526021600452602489fd5b610acc915060203d602011610ad2575b610ac48183612866565b810190612a4f565b38610a3f565b503d610aba565b6040513d8c823e3d90fd5b6024919250610b01602091823d841161099d5761098e8183612866565b929150610a07565b612710919250610b279060203d60201161099d5761098e8183612866565b9190610871565b6040513d8a823e3d90fd5b6004919361089d610b4a9234612df4565b9290610836565b634e487b7160e01b600052601160045260246000fd5b909150604051918252602082600481845afa9182156109a4578592610d69575b5060405191630a6a861360e41b83526004830152602082602481845afa9182156109a4578592610d30575b50813411600014610d2957610bc78234612df4565b905b81159081610cc9575060288202908282046028141715610cb55761015f5460405163a23d3c3560e01b81529392916064900490602090859060049082906001600160a01b03165afa8015610caa5781610c2b916004968a916109af575061320b565b61015f5460405163d9bdc56360e01b81529460209186919082906001600160a01b03165afa918215610caa57610c7c948893610c81575b50610c7190610c7693946129b3565b612df4565b9061320b565b61092d565b610c76935090610ca2610c719260203d60201161099d5761098e8183612866565b935090610c62565b6040513d89823e3d90fd5b634e487b7160e01b86526011600452602486fd5b60405163d9bdc56360e01b815293506020925083915060049082905afa8015610d1e57610c7c918591610cff575b50349061320b565b610d18915060203d60201161099d5761098e8183612866565b38610cf7565b6040513d86823e3d90fd5b8490610bc9565b9091506020813d602011610d61575b81610d4c60209383612866565b81010312610d5c57519038610bb2565b600080fd5b3d9150610d3f565b9091506020813d602011610d95575b81610d8560209383612866565b81010312610d5c57519038610b87565b3d9150610d78565b634e487b7160e01b86526021600452602486fd5b610dcb91935060203d602011610523576105158183612866565b91386107ab565b808652610166908160205260408720610deb8154613335565b905533817ff61ccbe316daff56654abed758191f9a4dcac526d43747a50a2d545c0ca64d828980a38652602052600a60408620540615610e2c575b38610774565b61016760205260408520610e408154613335565b9055610e26565b3386526101656020526040862080546001600160a01b031916909117905538610756565b5033865261016560205260408620546001600160a01b031615610751565b503381141561074b565b803b15610ed65781906004604051809481936303e1c3bb60e31b83525af18015610caa57610ec3575b8690610737565b610ecf90969196612804565b9438610ebc565b5080fd5b509050604051848152602081600481855afa908115610b2e578891610f21575b506006811015610f0d5790879115610732565b634e487b7160e01b88526021600452602488fd5b610f3a915060203d602011610523576105158183612866565b38610efa565b610f59915060203d602011610ad257610ac48183612866565b3861072a565b6040513d85823e3d90fd5b60405162461bcd60e51b815260206004820152601060248201526f105b5bdd5b9d081d1bdbc81cdb585b1b60821b6044820152606490fd5b60405162461bcd60e51b815260206004820152601960248201527f4d696e696d756d2070757263686173652069732024312e3030000000000000006044820152606490fd5b60405162461bcd60e51b8152602060048201526016602482015275455448206f7261636c6520756e617661696c61626c6560501b6044820152606490fd5b9094506020813d602011611055575b8161104160209383612866565b81010312611051575193386106a4565b8580fd5b3d9150611034565b60405162461bcd60e51b815260206004820152601960248201527f53696c766572206f7261636c6520756e617661696c61626c65000000000000006044820152606490fd5b9093506020813d6020116110ce575b816110be60209383612866565b8101031261105157519238610677565b3d91506110b1565b60405162461bcd60e51b8152602060048201526016602482015275506c656173652077616974203630207365636f6e647360501b6044820152606490fd5b634e487b7160e01b85526011600452602485fd5b60405162461bcd60e51b815260206004820152602b60248201527f50726f746f636f6c20696e20524544207374616765202d20707572636861736560448201526a1cc81cdd5cdc195b99195960aa1b6064820152608490fd5b634e487b7160e01b84526021600452602484fd5b6111ae915060203d602011610523576105158183612866565b38610606565b5034610244576040366003190112610244576111ce6127d8565b90805460ff8160081c16159081809261169e575b8015611687575b1561162b5760ff19811660011783558161161a575b506040519261120c8461284a565b601084526f23b0b4b0a9b832b0b59029b4b63b32b960811b6020850152604051936112368561284a565b600385526247535360e81b602086015261125f60ff855460081c1661125a816132d5565b6132d5565b80519067ffffffffffffffff821161160657819061127e6036546128b7565b601f8111611594575b50602090601f831160011461151e578692611513575b50508160011b916000199060031b1c1916176036555b835167ffffffffffffffff81116114ff576112cf6037546128b7565b601f8111611494575b50602094601f8211600114611424579484958293949592611419575b50508160011b916000199060031b1c1916176037555b61131e60ff845460081c1661125a816132d5565b6113273361328c565b61136b60ff845460081c1661133b816132d5565b611344816132d5565b60ff1960fb541660fb55611357816132d5565b611360816132d5565b600161012d556132d5565b60018060a01b031661015f816bffffffffffffffffffffffff60a01b82541617905560243561016355600a602435026024358104600a146024351517156114055761016455825261016860205260408220805460ff191660011790556113ce5780f35b61ff001981541681557f7f26b83ff96e1f2b6a682f133852f6798a09c465da95921460cefb3847402498602060405160018152a180f35b634e487b7160e01b84526011600452602484fd5b0151905038806112f4565b60378552601f1982169560008051602061361a83398151915291865b88811061147c57508360019596979810611463575b505050811b0160375561130a565b015160001960f88460031b161c19169055388080611455565b91926020600181928685015181550194019201611440565b60378552601f820160051c60008051602061361a8339815191520190602083106114e9575b601f0160051c60008051602061361a83398151915201905b8181106114de57506112d8565b8581556001016114d1565b60008051602061361a83398151915291506114b9565b634e487b7160e01b84526041600452602484fd5b01519050388061129d565b9250603686526000805160206135da8339815191529086935b601f1984168510611579576001945083601f19811610611560575b505050811b016036556112b3565b015160001960f88460031b161c19169055388080611552565b81810151835560209485019460019093019290910190611537565b90915060368652601f830160051c6000805160206135da83398151915201602084106115f1575b908392915b601f820160051c6000805160206135da8339815191520181106115e35750611287565b8781558493506001016115c0565b506000805160206135da8339815191526115bb565b634e487b7160e01b85526041600452602485fd5b61ffff1916610101178255386111fe565b60405162461bcd60e51b815260206004820152602e60248201527f496e697469616c697a61626c653a20636f6e747261637420697320616c72656160448201526d191e481a5b9a5d1a585b1a5e995960921b6064820152608490fd5b50303b1580156111e95750600160ff8216146111e9565b50600160ff8216106111e2565b5034610244576020366003190112610244576020906001600160a01b0390604090826116d56127d8565b1681526101658452205416604051908152f35b50346102445760403660031901126102445761170f6117056127d8565b6024359033612e01565b602060405160018152f35b5034610244576040366003190112610244576117346127d8565b604060243592338152603460205281812060018060a01b03841682526020522054918083106117695761170f92039033612cf2565b60405162461bcd60e51b815260206004820152602560248201527f45524332303a2064656372656173656420616c6c6f77616e63652062656c6f77604482015264207a65726f60d81b6064820152608490fd5b5034610244576020366003190112610244576020906040906001600160a01b036117e46127d8565b168152610162835220546040519042108152f35b503461024457806003193601126102445760405190806037549061181b826128b7565b8085529160209160019182811690811561189e5750600114611858575b6118548661184881880382612866565b6040519182918261278f565b0390f35b93506037845260008051602061361a8339815191525b83851061188b575050505081016020016118488261185438611838565b805486860184015293820193810161186e565b90508695506118549693506020925061184894915060ff191682840152151560051b820101929338611838565b5034610244576040366003190112610244576118e56127d8565b6024359081151580920361191f576118fb613078565b60018060a01b03168252610168602052604082209060ff8019835416911617905580f35b8280fd5b503461024457806003193601126102445760c9546040516001600160a01b039091168152602090f35b503461024457806003193601126102445761015f546040516001600160a01b039091168152602090f35b503461024457806003193601126102445761198f613078565b611997612abe565b600160ff1960fb54161760fb557f62e78cea01bee320cd4e420270b5ea74000d11b0c9f74754ebdbfc544b05a2586020604051338152a180f35b50346102445780600319360112610244576119ea613078565b60c980546001600160a01b0319811690915581906001600160a01b03167f8be0079c531659141344cd1fd0a4f28419497f9722a3daafe3b4186f6b6457e08280a380f35b5034610244576020366003190112610244576020906040906001600160a01b03611a566127d8565b168152603383522054604051908152f35b5034610244576020366003190112610244576020906040906001600160a01b03611a8f6127d8565b16815261016783522054604051908152f35b50602080600319360112610ed65760043590811515918281036105a657611ac6612a67565b611ace612abe565b611ad733612b02565b8015611c255761016454905b15611c175763ffffffff6301e133805b16903410611bdb573384526101628083526040852054909142821115611bc057611b1c916129b3565b33855281835260408520555b61015f54604051637eb9711560e11b8152908390829060049082906001600160a01b03165afa80156109a457611b66918691611ba95750349061320b565b33845281526040832054906040519283528201527fc9c4d63f090a12ac3deddf173e6413febf732751906a54a0bf3be48404c6513060403392a2600161012d5580f35b610d189150843d861161099d5761098e8183612866565b611bcb9150426129b3565b3385528183526040852055611b28565b60405162461bcd60e51b8152600481018390526014602482015273125b9cdd59999a58da595b9d081c185e5b595b9d60621b6044820152606490fd5b63ffffffff62278d00611af3565b6101635490611ae3565b503461024457602080600319360112610ed65760043590611c4e612a67565b611c56612abe565b3383526101608152611c6d604084205443116129c0565b670de0b6b3a7640000808310611db0573384526033825282604085205410611d745790600491611c9d84336130d0565b61015f5460405163dc7ac66760e01b815293839185919082906001600160a01b03165afa9283156109a4578593611d3f575b50611cfb7ffd38818f5291bf0bb3a2a48aadc06ba8757865d1dabd804585338aab3009dcb693856128a4565b0460405190848252828201527fc4ad714cde00d25a732959982743bfc53a7d733b7a4940da58af0944aded5a8660403392a26040519283523392a2600161012d5580f35b92508183813d8311611d6d575b611d568183612866565b81010312611d6957915191611cfb611ccf565b8480fd5b503d611d4c565b60405162461bcd60e51b8152600481018390526014602482015273496e73756666696369656e742062616c616e636560601b6044820152606490fd5b60405162461bcd60e51b815260048101839052600e60248201526d4d696e696d756d2031206772616d60901b6044820152606490fd5b5034610244578060031936011261024457602060ff60fb54166040519015158152f35b50346102445780600319360112610244577f00000000000000000000000000000000000000000000000000000000000000006001600160a01b03163003611e625760206040516000805160206135fa8339815191528152f35b60405162461bcd60e51b815260206004820152603860248201527f555550535570677261646561626c653a206d757374206e6f742062652063616c60448201527f6c6564207468726f7567682064656c656761746563616c6c00000000000000006064820152608490fd5b50604036600319011261024457611ee26127d8565b6024359067ffffffffffffffff821161191f573660238301121561191f578160040135611f0e81612888565b611f1b6040519182612866565b8181528460209485830193366024828401011161191f578060248893018637830101526001600160a01b037f0000000000000000000000000000000000000000000000000000000000000000811690611f76308314156128f1565b611f936000805160206135fa833981519152928284541614612952565b611f9b613078565b7f4910fdfa16fed3260ed0e7147f7cc6da11a60208b5b9406d12a635614ffd91435460ff1615611fd357505050506101ed91506134b4565b84939416906040516352d1902d60e01b81528681600481865afa88918161216e575b506120565760405162461bcd60e51b815260048101889052602e60248201527f45524331393637557067726164653a206e657720696d706c656d656e7461746960448201526d6f6e206973206e6f74205555505360901b6064820152608490fd5b959495036121175790859161206a846134b4565b7fbc7cd75a20ee27fd9adebab32041f755214dbc6bffa90cc0225b39da2e5c2d3b8380a280511580159061210f575b6120a6575b505050505080f35b6121049482917f416464726573733a206c6f772d6c6576656c2064656c65676174652063616c6c604051966120da8861282e565b60278852870152660819985a5b195960ca1b60408701525190845af46120fe6131db565b91613544565b50388080838161209e565b506001612099565b60405162461bcd60e51b815260048101859052602960248201527f45524331393637557067726164653a20756e737570706f727465642070726f786044820152681a58589b195555525160ba1b6064820152608490fd5b9091508781813d831161219a575b6121868183612866565b8101031261219657519038611ff5565b8880fd5b503d61217c565b50346102445780600319360112610244576121ba613078565b60fb5460ff8116156121fa5760ff191660fb557f5db9ee0a495bf2e6ff9c91a7834c1ba4fdd244a5e8aa4e537bd38aeae4b073aa6020604051338152a180f35b60405162461bcd60e51b815260206004820152601460248201527314185d5cd8589b194e881b9bdd081c185d5cd95960621b6044820152606490fd5b50346102445760203660031901126102445760209060ff906040906001600160a01b036122616127d8565b16815261016884522054166040519015158152f35b50346102445760403660031901126102445761170f906122bf6122976127d8565b9133815260346020526040812060018060a01b038416825260205260406024359120546129b3565b9033612cf2565b503461024457602080600319360112610ed6576122e16127d8565b6001600160a01b037f00000000000000000000000000000000000000000000000000000000000000008116612318308214156128f1565b6123356000805160206135fa833981519152918383541614612952565b61233d613078565b604051908482019282841067ffffffffffffffff8511176124a0578360405286835260ff7f4910fdfa16fed3260ed0e7147f7cc6da11a60208b5b9406d12a635614ffd9143541660001461239957505050506101ed91506134b4565b84939416906040516352d1902d60e01b81528681600481865afa889181612471575b5061241c5760405162461bcd60e51b815260048101889052602e60248201527f45524331393637557067726164653a206e657720696d706c656d656e7461746960448201526d6f6e206973206e6f74205555505360901b6064820152608490fd5b9594950361211757908591612430846134b4565b7fbc7cd75a20ee27fd9adebab32041f755214dbc6bffa90cc0225b39da2e5c2d3b8380a280511580159061246a576120a657505050505080f35b5081612099565b9091508781813d8311612499575b6124898183612866565b81010312612196575190386123bb565b503d61247f565b634e487b7160e01b87526041600452602487fd5b5034610244578060031936011261024457602060405160128152f35b5034610244576060366003190112610244576124ea6127d8565b906124f36127ee565b60406044359260018060a01b038516815260346020528181203382526020522054926000198403612529575b61170f9350612e01565b828410612545576125408361170f95033383612cf2565b61251f565b60405162461bcd60e51b815260206004820152601d60248201527f45524332303a20696e73756666696369656e7420616c6c6f77616e63650000006044820152606490fd5b5034610244578060031936011261024457602061016454604051908152f35b5034610244578060031936011261024457602061016354604051908152f35b50346102445780600319360112610244576020603554604051908152f35b50346102445760403660031901126102445761170f6126036127d8565b6024359033612cf2565b5034610244578060031936011261024457604051908060365490612630826128b7565b8085529160209160019182811690811561189e575060011461265c576118548661184881880382612866565b9350603684526000805160206135da8339815191525b83851061268f575050505081016020016118488261185438611838565b8054868601840152938201938101612672565b50346102445780600319360112610244576126bb612a67565b6126c3612abe565b6126cc33612b02565b33815261016780602052604082205490811561275557338352602052816040812055670de0b6b3a7640000808202918204036127415761270c8133612c4e565b6040519081527ff7665b962a292ef8fb8592c6b49c56b5cd1412fe04af5dd919a71f9a760f1e4f60203392a2600161012d5580f35b634e487b7160e01b82526011600452602482fd5b60405162461bcd60e51b81526020600482015260126024820152714e6f20726577617264732070656e64696e6760701b6044820152606490fd5b6020808252825181830181905290939260005b8281106127c457505060409293506000838284010152601f8019910116010190565b8181018601518482016040015285016127a2565b600435906001600160a01b0382168203610d5c57565b602435906001600160a01b0382168203610d5c57565b67ffffffffffffffff811161281857604052565b634e487b7160e01b600052604160045260246000fd5b6060810190811067ffffffffffffffff82111761281857604052565b6040810190811067ffffffffffffffff82111761281857604052565b90601f8019910116810190811067ffffffffffffffff82111761281857604052565b67ffffffffffffffff811161281857601f01601f191660200190565b81810292918115918404141715610b5157565b90600182811c921680156128e7575b60208310146128d157565b634e487b7160e01b600052602260045260246000fd5b91607f16916128c6565b156128f857565b60405162461bcd60e51b815260206004820152602c60248201527f46756e6374696f6e206d7573742062652063616c6c6564207468726f7567682060448201526b19195b1959d85d1958d85b1b60a21b6064820152608490fd5b1561295957565b60405162461bcd60e51b815260206004820152602c60248201527f46756e6374696f6e206d7573742062652063616c6c6564207468726f7567682060448201526b6163746976652070726f787960a01b6064820152608490fd5b91908201809211610b5157565b156129c757565b60405162461bcd60e51b815260206004820152602360248201527f43616e6e6f742062757920616e642072656465656d20696e2073616d6520626c6044820152626f636b60e81b6064820152608490fd5b90816020910312610d5c57516001600160a01b0381168103610d5c5790565b90816020910312610d5c57516006811015610d5c5790565b90816020910312610d5c57518015158103610d5c5790565b61012d6002815414612a795760029055565b60405162461bcd60e51b815260206004820152601f60248201527f5265656e7472616e637947756172643a207265656e7472616e742063616c6c006044820152606490fd5b60ff60fb5416612aca57565b60405162461bcd60e51b815260206004820152601060248201526f14185d5cd8589b194e881c185d5cd95960821b6044820152606490fd5b61015f546040805163197d63a160e01b81526001600160a01b0393841660048201819052929093169392602091908281602481895afa908115612c2657600091612c31575b5080612bd8575b612b5a575b5050509050565b843b15610d5c57600080956024835180988193634b1a2df560e01b83528860048401525af1948515612bcd577f83733b0d2948a27b24891a5d91f84cdabb49ae1ae62417c3594c1a0ea6d4593c939495612bbe575b5051428152a280388080612b53565b612bc790612804565b38612baf565b50513d6000823e3d90fd5b508051630e13982560e11b8152600481018490528281602481895afa908115612c2657600091612c09575b50612b4e565b612c209150833d8511610ad257610ac48183612866565b38612c03565b82513d6000823e3d90fd5b612c489150833d8511610ad257610ac48183612866565b38612b47565b6001600160a01b0316908115612cad577fddf252ad1be2c89b69c2b068fc378daa952ba7f163c4a11628f55a4df523b3ef602082612c906000946035546129b3565b6035558484526033825260408420818154019055604051908152a3565b60405162461bcd60e51b815260206004820152601f60248201527f45524332303a206d696e7420746f20746865207a65726f2061646472657373006044820152606490fd5b6001600160a01b03908116918215612da35716918215612d535760207f8c5be1e5ebec7d5bd14f71427d1e84f3dd0314c0f7b2291e5b200ac8c7c3b925918360005260348252604060002085600052825280604060002055604051908152a3565b60405162461bcd60e51b815260206004820152602260248201527f45524332303a20617070726f766520746f20746865207a65726f206164647265604482015261737360f01b6064820152608490fd5b60405162461bcd60e51b8152602060048201526024808201527f45524332303a20617070726f76652066726f6d20746865207a65726f206164646044820152637265737360e01b6064820152608490fd5b91908203918211610b5157565b6001600160a01b0380821694939192918515801561306e575b8015613055575b801561303a575b61302c576706f05b59d3b200008110612fee5760009586526020916101628352604090818820544210818616895242838a20541181612fe6575b5015612f25578260011b83810460021484151715612f11576127106004910494808660011c93612e92858b6130d0565b61015f541685519384809263d9bdc56360e01b82525afa938415612f08575091612edb95949391610c7193612ee19a9b93612ee3575b5050612ed49085612df4565b9087613344565b91613344565b565b612ed49293509081612f0092903d1061099d5761098e8183612866565b919038612ec8565b513d8b823e3d90fd5b634e487b7160e01b89526011600452602489fd5b60c8830283810460c81484151715612f11576127109004938460011c9161015f60048383835416875192838092637eb9711560e11b82525afa908c8215612fdb57868695936004979593612f809391612fbe575b508d613344565b541685519384809263d9bdc56360e01b82525afa938415612f08575091612edb95949391610c7193612ee19a9b93612ee3575050612ed49085612df4565b612fd59150863d881161099d5761098e8183612866565b38612f79565b8751903d90823e3d90fd5b905038612e62565b60405162461bcd60e51b81526020600482015260166024820152752132b637bb9036b4b734b6bab6903a3930b739b332b960511b6044820152606490fd5b929050612ee1939450613344565b5081831660005261016860205260ff60406000205416612e28565b508560005261016860205260ff60406000205416612e21565b5081831615612e1a565b60c9546001600160a01b0316330361308c57565b606460405162461bcd60e51b815260206004820152602060248201527f4f776e61626c653a2063616c6c6572206973206e6f7420746865206f776e65726044820152fd5b6001600160a01b0316801561318c578060005260336020526040600020549180831061313c576020817fddf252ad1be2c89b69c2b068fc378daa952ba7f163c4a11628f55a4df523b3ef92600095858752603384520360408620558060355403603555604051908152a3565b60405162461bcd60e51b815260206004820152602260248201527f45524332303a206275726e20616d6f756e7420657863656564732062616c616e604482015261636560f01b6064820152608490fd5b60405162461bcd60e51b815260206004820152602160248201527f45524332303a206275726e2066726f6d20746865207a65726f206164647265736044820152607360f81b6064820152608490fd5b3d15613206573d906131ec82612888565b916131fa6040519384612866565b82523d6000602084013e565b606090565b8115801561327b575b613277576000918291829182916001600160a01b03165af16132346131db565b501561323c57565b60405162461bcd60e51b8152602060048201526013602482015272115512081d1c985b9cd9995c8819985a5b1959606a1b6044820152606490fd5b5050565b506001600160a01b03811615613214565b60c980546001600160a01b039283166001600160a01b0319821681179092559091167f8be0079c531659141344cd1fd0a4f28419497f9722a3daafe3b4186f6b6457e0600080a3565b156132dc57565b60405162461bcd60e51b815260206004820152602b60248201527f496e697469616c697a61626c653a20636f6e7472616374206973206e6f74206960448201526a6e697469616c697a696e6760a81b6064820152608490fd5b6000198114610b515760010190565b6001600160a01b03908116918215613461571691821561341057600082815260336020526040812054918083106133bc57604082827fddf252ad1be2c89b69c2b068fc378daa952ba7f163c4a11628f55a4df523b3ef95876020965260338652038282205586815220818154019055604051908152a3565b60405162461bcd60e51b815260206004820152602660248201527f45524332303a207472616e7366657220616d6f756e7420657863656564732062604482015265616c616e636560d01b6064820152608490fd5b60405162461bcd60e51b815260206004820152602360248201527f45524332303a207472616e7366657220746f20746865207a65726f206164647260448201526265737360e81b6064820152608490fd5b60405162461bcd60e51b815260206004820152602560248201527f45524332303a207472616e736665722066726f6d20746865207a65726f206164604482015264647265737360d81b6064820152608490fd5b803b156134e9576000805160206135fa83398151915280546001600160a01b0319166001600160a01b03909216919091179055565b60405162461bcd60e51b815260206004820152602d60248201527f455243313936373a206e657720696d706c656d656e746174696f6e206973206e60448201526c1bdd08184818dbdb9d1c9858dd609a1b6064820152608490fd5b919290156135a65750815115613558575090565b3b156135615790565b60405162461bcd60e51b815260206004820152601d60248201527f416464726573733a2063616c6c20746f206e6f6e2d636f6e74726163740000006044820152606490fd5b8251909150156135b95750805190602001fd5b60405162461bcd60e51b81529081906135d5906004830161278f565b0390fdfe4a11f94e20a93c79f6ec743a1954ec4fc2c08429ae2122118bf234b2185c81b8360894a13ba1a3210667c828492db98dca3e2076cc3735a920a3ca505d382bbc42a7b7dd785cd69714a189dffb3fd7d7174edc9ece837694ce50f7078f7c31aea2646970667358221220e8e37118ab58f5b4958adaf423c6967ddb8b10b755de4b45e7ea1b8627cc6fe764736f6c63430008180033","abi":[{"anonymous":false,"inputs":[{"indexed":false,"internalType":"address","name":"previousAdmin","type":"address"},{"indexed":false,"internalType":"address","name":"newAdmin","type":"address"}],"name":"AdminChanged","type":"event"},{"anonymous":false,"inputs":[{"indexed":true,"internalType":"address","name":"owner","type":"address"},{"indexed":true,"internalType":"address","name":"spender","type":"address"},{"indexed":false,"internalType":"uint256","name":"value","type":"uint256"}],"name":"Approval","type":"event"},{"anonymous":false,"inputs":[{"indexed":true,"internalType":"address","name":"beacon","type":"address"}],"name":"BeaconUpgraded","type":"event"},{"anonymous":false,"inputs":[{"indexed":true,"internalType":"address","name":"redeemer","type":"address"},{"indexed":false,"internalType":"uint256","name":"gssAmount","type":"uint256"},{"indexed":false,"internalType":"uint256","name":"usdcValue","type":"uint256"}],"name":"CashRedemption","type":"event"},{"anonymous":false,"inputs":[{"indexed":false,"internalType":"uint8","name":"version","type":"uint8"}],"name":"Initialized","type":"event"},{"anonymous":false,"inputs":[{"indexed":true,"internalType":"address","name":"member","type":"address"},{"indexed":false,"internalType":"bool","name":"annual","type":"bool"},{"indexed":false,"internalType":"uint256","name":"expiry","type":"uint256"}],"name":"MembershipPurchased","type":"event"},{"anonymous":false,"inputs":[{"indexed":true,"internalType":"address","name":"previousOwner","type":"address"},{"indexed":true,"internalType":"address","name":"newOwner","type":"address"}],"name":"OwnershipTransferred","type":"event"},{"anonymous":false,"inputs":[{"indexed":false,"internalType":"address","name":"account","type":"address"}],"name":"Paused","type":"event"},{"anonymous":false,"inputs":[{"indexed":true,"internalType":"address","name":"requester","type":"address"},{"indexed":false,"internalType":"uint256","name":"gssAmount","type":"uint256"},{"indexed":false,"internalType":"string","name":"deliveryInfo","type":"string"},{"indexed":false,"internalType":"uint256","name":"timestamp","type":"uint256"}],"name":"PhysicalDeliveryRequested","type":"event"},{"anonymous":false,"inputs":[{"indexed":true,"internalType":"address","name":"pioneer","type":"address"},{"indexed":false,"internalType":"uint256","name":"timestamp","type":"uint256"}],"name":"PioneerTransitionedToMember","type":"event"},{"anonymous":false,"inputs":[{"indexed":true,"internalType":"address","name":"referrer","type":"address"},{"indexed":true,"internalType":"address","name":"buyer","type":"address"}],"name":"ReferralRecorded","type":"event"},{"anonymous":false,"inputs":[{"indexed":true,"internalType":"address","name":"referrer","type":"address"},{"indexed":false,"internalType":"uint256","name":"gssAmount","type":"uint256"}],"name":"ReferralRewardEarned","type":"event"},{"anonymous":false,"inputs":[{"indexed":true,"internalType":"address","name":"buyer","type":"address"},{"indexed":false,"internalType":"uint256","name":"weiSent","type":"uint256"},{"indexed":false,"internalType":"uint256","name":"gramsMinted","type":"uint256"},{"indexed":false,"internalType":"uint256","name":"silverPriceUSD","type":"uint256"}],"name":"SilverPurchased","type":"event"},{"anonymous":false,"inputs":[{"indexed":true,"internalType":"address","name":"from","type":"address"},{"indexed":false,"internalType":"uint256","name":"amount","type":"uint256"}],"name":"TokensBurned","type":"event"},{"anonymous":false,"inputs":[{"indexed":true,"internalType":"address","name":"from","type":"address"},{"indexed":true,"internalType":"address","name":"to","type":"address"},{"indexed":false,"internalType":"uint256","name":"value","type":"uint256"}],"name":"Transfer","type":"event"},{"anonymous":false,"inputs":[{"indexed":false,"internalType":"address","name":"account","type":"address"}],"name":"Unpaused","type":"event"},{"anonymous":false,"inputs":[{"indexed":true,"internalType":"address","name":"implementation","type":"address"}],"name":"Upgraded","type":"event"},{"inputs":[{"internalType":"address","name":"owner","type":"address"},{"internalType":"address","name":"spender","type":"address"}],"name":"allowance","outputs":[{"internalType":"uint256","name":"","type":"uint256"}],"stateMutability":"view","type":"function"},{"inputs":[],"name":"annualMembershipPrice","outputs":[{"internalType":"uint256","name":"","type":"uint256"}],"stateMutability":"view","type":"function"},{"inputs":[{"internalType":"address","name":"spender","type":"address"},{"internalType":"uint256","name":"amount","type":"uint256"}],"name":"approve","outputs":[{"internalType":"bool","name":"","type":"bool"}],"stateMutability":"nonpayable","type":"function"},{"inputs":[{"internalType":"address","name":"account","type":"address"}],"name":"balanceOf","outputs":[{"internalType":"uint256","name":"","type":"uint256"}],"stateMutability":"view","type":"function"},{"inputs":[],"name":"claimReferralRewards","outputs":[],"stateMutability":"nonpayable","type":"function"},{"inputs":[],"name":"decimals","outputs":[{"internalType":"uint8","name":"","type":"uint8"}],"stateMutability":"view","type":"function"},{"inputs":[{"internalType":"address","name":"spender","type":"address"},{"internalType":"uint256","name":"subtractedValue","type":"uint256"}],"name":"decreaseAllowance","outputs":[{"internalType":"bool","name":"","type":"bool"}],"stateMutability":"nonpayable","type":"function"},{"inputs":[{"internalType":"address","name":"","type":"address"}],"name":"feeExempt","outputs":[{"internalType":"bool","name":"","type":"bool"}],"stateMutability":"view","type":"function"},{"inputs":[{"internalType":"address","name":"spender","type":"address"},{"internalType":"uint256","name":"addedValue","type":"uint256"}],"name":"increaseAllowance","outputs":[{"internalType":"bool","name":"","type":"bool"}],"stateMutability":"nonpayable","type":"function"},{"inputs":[{"internalType":"address","name":"_protocol","type":"address"},{"internalType":"uint256","name":"_monthlyMembershipWei","type":"uint256"}],"name":"initialize","outputs":[],"stateMutability":"nonpayable","type":"function"},{"inputs":[{"internalType":"address","name":"user","type":"address"}],"name":"isMember","outputs":[{"internalType":"bool","name":"","type":"bool"}],"stateMutability":"view","type":"function"},{"inputs":[{"internalType":"address","name":"","type":"address"}],"name":"membershipExpiry","outputs":[{"internalType":"uint256","name":"","type":"uint256"}],"stateMutability":"view","type":"function"},{"inputs":[],"name":"monthlyMembershipPrice","outputs":[{"internalType":"uint256","name":"","type":"uint256"}],"stateMutability":"view","type":"function"},{"inputs":[],"name":"name","outputs":[{"internalType":"string","name":"","type":"string"}],"stateMutability":"view","type":"function"},{"inputs":[],"name":"owner","outputs":[{"internalType":"address","name":"","type":"address"}],"stateMutability":"view","type":"function"},{"inputs":[],"name":"pause","outputs":[],"stateMutability":"nonpayable","type":"function"},{"inputs":[],"name":"paused","outputs":[{"internalType":"bool","name":"","type":"bool"}],"stateMutability":"view","type":"function"},{"inputs":[],"name":"protocol","outputs":[{"internalType":"contract IGaiaSpeakProtocolSilver","name":"","type":"address"}],"stateMutability":"view","type":"function"},{"inputs":[],"name":"proxiableUUID","outputs":[{"internalType":"bytes32","name":"","type":"bytes32"}],"stateMutability":"view","type":"function"},{"inputs":[{"internalType":"bool","name":"annual","type":"bool"}],"name":"purchaseMembership","outputs":[],"stateMutability":"payable","type":"function"},{"inputs":[{"internalType":"address","name":"referrer","type":"address"}],"name":"purchaseTokens","outputs":[],"stateMutability":"payable","type":"function"},{"inputs":[{"internalType":"uint256","name":"gssAmount","type":"uint256"}],"name":"redeemForUSDC","outputs":[],"stateMutability":"nonpayable","type":"function"},{"inputs":[{"internalType":"address","name":"","type":"address"}],"name":"referralCount","outputs":[{"internalType":"uint256","name":"","type":"uint256"}],"stateMutability":"view","type":"function"},{"inputs":[{"internalType":"address","name":"","type":"address"}],"name":"referralRewardsPending","outputs":[{"internalType":"uint256","name":"","type":"uint256"}],"stateMutability":"view","type":"function"},{"inputs":[{"internalType":"address","name":"","type":"address"}],"name":"referredBy","outputs":[{"internalType":"address","name":"","type":"address"}],"stateMutability":"view","type":"function"},{"inputs":[],"name":"renounceOwnership","outputs":[],"stateMutability":"nonpayable","type":"function"},{"inputs":[{"internalType":"uint256","name":"gssAmount","type":"uint256"},{"internalType":"string","name":"deliveryInfo","type":"string"}],"name":"requestPhysicalDelivery","outputs":[],"stateMutability":"nonpayable","type":"function"},{"inputs":[{"internalType":"address","name":"addr","type":"address"},{"internalType":"bool","name":"exempt","type":"bool"}],"name":"setFeeExempt","outputs":[],"stateMutability":"nonpayable","type":"function"},{"inputs":[{"internalType":"uint256","name":"monthly","type":"uint256"},{"internalType":"uint256","name":"annual","type":"uint256"}],"name":"setMembershipPrices","outputs":[],"stateMutability":"nonpayable","type":"function"},{"inputs":[],"name":"symbol","outputs":[{"internalType":"string","name":"","type":"string"}],"stateMutability":"view","type":"function"},{"inputs":[],"name":"totalSupply","outputs":[{"internalType":"uint256","name":"","type":"uint256"}],"stateMutability":"view","type":"function"},{"inputs":[{"internalType":"address","name":"to","type":"address"},{"internalType":"uint256","name":"amount","type":"uint256"}],"name":"transfer","outputs":[{"internalType":"bool","name":"","type":"bool"}],"stateMutability":"nonpayable","type":"function"},{"inputs":[{"internalType":"address","name":"from","type":"address"},{"internalType":"address","name":"to","type":"address"},{"internalType":"uint256","name":"amount","type":"uint256"}],"name":"transferFrom","outputs":[{"internalType":"bool","name":"","type":"bool"}],"stateMutability":"nonpayable","type":"function"},{"inputs":[{"internalType":"address","name":"newOwner","type":"address"}],"name":"transferOwnership","outputs":[],"stateMutability":"nonpayable","type":"function"},{"inputs":[],"name":"unpause","outputs":[],"stateMutability":"nonpayable","type":"function"},{"inputs":[{"internalType":"address","name":"newImplementation","type":"address"}],"name":"upgradeTo","outputs":[],"stateMutability":"nonpayable","type":"function"},{"inputs":[{"internalType":"address","name":"newImplementation","type":"address"},{"internalType":"bytes","name":"data","type":"bytes"}],"name":"upgradeToAndCall","outputs":[],"stateMutability":"payable","type":"function"}]}