{"address":"0x5a320420004b63653159a18Ff1353BFEABA008fD","bytecode":"0x608034620003c657601f19906001600160401b03601f6200189c3881900382810186168501919084831186841017620003b0578086926040948552833981010312620003c6576200005083620003eb565b91620000606020809501620003eb565b916200006b620003cb565b94601186527023b0b4b0a9b832b0b5902834b7b732b2b960791b8187015262000093620003cb565b9060078252662824a7a722a2a960c91b81830152865197848911620003b0576000988954986001998a81811c91168015620003a5575b8582101462000391579081878493116200033e575b508490878311600114620002dd578c92620002d1575b5050600019600383901b1c191690891b1789555b8251948511620002bd5787548881811c91168015620002b2575b838210146200029e5790818587969594931162000245575b5081938511600114620001e05750508792620001d4575b5050600019600383901b1c191690841b1783555b6006549260018060a01b0392839160018060a01b0319953387821617600655604051977f8be0079c531659141344cd1fd0a4f28419497f9722a3daafe3b4186f6b6457e0853393169180a3600b55168360075416176007551690600854161760085561149b9081620004018239f35b01519050388062000151565b88959392919316858a52838a20938a905b8282106200022b575050841162000211575b505050811b01835562000165565b015160001960f88460031b161c1916905538808062000203565b8484015186558a97909501949384019390810190620001f1565b909192939450888a52828a208580880160051c82019285891062000294575b9188978c9297969594930160051c01915b828110620002855750506200013a565b8c81558897508b910162000275565b9250819262000264565b634e487b7160e01b8a52602260045260248afd5b90607f169062000122565b634e487b7160e01b89526041600452602489fd5b015190503880620000f4565b908c91858d9516838052878420935b888282106200032757505084116200030d575b505050811b01895562000108565b015160001960f88460031b161c19169055388080620002ff565b8385015186558f97909501949384019301620002ec565b9091508b8052848c208780850160051c82019287861062000387575b918d91869594930160051c01915b82811062000378575050620000de565b8e81558594508d910162000368565b925081926200035a565b634e487b7160e01b8c52602260045260248cfd5b90607f1690620000c9565b634e487b7160e01b600052604160045260246000fd5b600080fd5b60408051919082016001600160401b03811183821017620003b057604052565b51906001600160a01b0382168203620003c65756fe608060409080825260048036101561001657600080fd5b600091823560e01c90816301ffc9a714610d335750806306fdde0314610c6557806307bc656414610c3c578063081812fc14610c1b578063095ea7b314610aac5780631d8f7cad14610a8357806323b872dd14610a5e57806342842e0e14610a2a5780636352211e146109f857806370a0823114610964578063715018a61461090757806375794a3c146108e857806380b7976c146108bf5780638da5cb5b1461089657806395d89b411461077b578063a22cb465146106ac578063b88d4fde146105fb578063c1011d20146105d2578063c87b56dd14610563578063e87f54a514610271578063e985e9c514610223578063f2fde38b146101575763f5e942b61461012157600080fd5b34610153576020366003190112610153573581526009602052818082205491600a602052205482519182526020820152f35b5080fd5b5082903461021f57602036600319011261021f57610173610ddf565b9061017c6111f3565b6001600160a01b039182169283156101cd575050600654826001600160601b0360a01b821617600655167f8be0079c531659141344cd1fd0a4f28419497f9722a3daafe3b4186f6b6457e08380a380f35b906020608492519162461bcd60e51b8352820152602660248201527f4f776e61626c653a206e6577206f776e657220697320746865207a65726f206160448201526564647265737360d01b6064820152fd5b8280fd5b82843461015357806003193601126101535760ff81602093610243610ddf565b61024b610dfa565b6001600160a01b0391821683526005875283832091168252855220549151911615158152f35b50823461021f578060031936011261021f57813560249283359382158015809161055a575b15610518576104a7575b8461041c575b600b5491600019831461040b5760018301600b558451916102c683610e45565b87835233156103ca576000848152600260205260409020546001600160a01b031661038857338852600360205285882090815492600184018094116103775750509161035c9161036193558388526002602052858820336001600160601b0360a01b8254161790558333897fddf252ad1be2c89b69c2b068fc378daa952ba7f163c4a11628f55a4df523b3ef8180a483336112c2565b61129e565b8452600960205281842055600a60205282205580f35b634e487b7160e01b8a526011905288fd5b90601c606492602088519362461bcd60e51b85528401528201527f4552433732313a20746f6b656e20616c7265616479206d696e746564000000006044820152fd5b9060206064928188519362461bcd60e51b85528401528201527f4552433732313a206d696e7420746f20746865207a65726f20616464726573736044820152fd5b634e487b7160e01b87526011905285fd5b60085484516323b872dd60e01b8152338482019081523060208083019190915260408201899052919283918290036060019082908b906001600160a01b03165af1801561049d5761046e575b506102a6565b61048f9060203d602011610496575b6104878183610e77565b810190610fc8565b5086610468565b503d61047d565b85513d89823e3d90fd5b60075484516323b872dd60e01b8152338482019081523060208083019190915260408201879052919283918290036060019082908b906001600160a01b03165af1801561049d576104f9575b506102a0565b6105119060203d602011610496576104878183610e77565b50866104f3565b845162461bcd60e51b8152602081850152601c818401527f4d7573742077726170206174206c65617374206f6e6520746f6b656e000000006044820152606490fd5b50851515610296565b509134610153576020366003190112610153576105a161059c6105ce9435600052600260205260018060a01b0360406000205416151590565b610f56565b8181516105ad81610e45565b528051916105ba83610e45565b825251918291602083526020830190610d9f565b0390f35b5082903461021f57602036600319011261021f5760209282913581526009845220549051908152f35b50823461021f57608036600319011261021f57610616610ddf565b9061061f610dfa565b604435906064359467ffffffffffffffff86116106a857366023870112156106a8578501359361065a61065186610e99565b94519485610e77565b8484528636602487890101116106a55760208661035c9760246106a29a01838901378601015261069261068d8433610fe0565b610ef3565b61069d83838361104e565b6113dc565b80f35b80fd5b8680fd5b50823461021f578060031936011261021f576106c6610ddf565b9060243591821515809303610777576001600160a01b0316923384146107355750338452600560205280842083855260205280842060ff1981541660ff8416179055519081527f17307eab39ab6107e8899845ad3d59bd9653f200f220920489ca2b5937696c3160203392a380f35b6020606492519162461bcd60e51b8352820152601960248201527f4552433732313a20617070726f766520746f2063616c6c6572000000000000006044820152fd5b8480fd5b509190346106a557806003193601126106a55781519181600192600154938460011c916001861695861561088c575b6020968785108114610879578899509688969785829a5291826000146108525750506001146107f6575b5050506105ce92916107e7910385610e77565b51928284938452830190610d9f565b9190869350600183527fb10e2d527612073b26eecdfd717e6a320cf44b4afac2b0732d9fcbe2b7fa0cf65b82841061083a57505050820101816107e76105ce6107d4565b8054848a018601528895508794909301928101610821565b60ff19168782015293151560051b860190930193508492506107e791506105ce90506107d4565b634e487b7160e01b835260228a52602483fd5b92607f16926107aa565b82843461015357816003193601126101535760065490516001600160a01b039091168152602090f35b5082903461021f57602036600319011261021f576020928291358152600a845220549051908152f35b828434610153578160031936011261015357602090600b549051908152f35b82346106a557806003193601126106a5576109206111f3565b600680546001600160a01b0319811690915581906001600160a01b03167f8be0079c531659141344cd1fd0a4f28419497f9722a3daafe3b4186f6b6457e08280a380f35b5034610153576020366003190112610153576001600160a01b03610986610ddf565b169081156109a35760208480858581526003845220549051908152f35b608490602085519162461bcd60e51b8352820152602960248201527f4552433732313a2061646472657373207a65726f206973206e6f7420612076616044820152683634b21037bbb732b960b91b6064820152fd5b509190346106a55760203660031901126106a55750610a1960209235610fa2565b90516001600160a01b039091168152f35b8284346101535761035c6106a291610a4136610e10565b91925192610a4e84610e45565b86845261069261068d8433610fe0565b82346106a5576106a2610a7036610e10565b91610a7e61068d8433610fe0565b61104e565b82843461015357816003193601126101535760085490516001600160a01b039091168152602090f35b5082903461021f578160031936011261021f57610ac7610ddf565b6024359290916001600160a01b0391908280610ae287610fa2565b16941693808514610bce57803314908115610baf575b5015610b4757848652602052842080546001600160a01b03191683179055610b1f83610fa2565b167f8c5be1e5ebec7d5bd14f71427d1e84f3dd0314c0f7b2291e5b200ac8c7c3b9258480a480f35b6020608492519162461bcd60e51b8352820152603e60248201527f4552433732313a20617070726f76652063616c6c6572206973206e6f7420746f60448201527f6b656e206f776e6572206e6f7220617070726f76656420666f7220616c6c00006064820152fd5b90508652600560205281862033875260205260ff828720541687610af8565b506020608492519162461bcd60e51b8352820152602160248201527f4552433732313a20617070726f76616c20746f2063757272656e74206f776e656044820152603960f91b6064820152fd5b509190346106a55760203660031901126106a55750610a1960209235610eb5565b82843461015357816003193601126101535760075490516001600160a01b039091168152602090f35b509190346106a557806003193601126106a5578151918182549260018460011c9160018616958615610d29575b6020968785108114610879578899509688969785829a529182600014610852575050600114610cce575050506105ce92916107e7910385610e77565b91908693508280527f290decd9548b62a8d60345a988386fc84ba6bc95484008f6362f93160ef3e5635b828410610d1157505050820101816107e76105ce6107d4565b8054848a018601528895508794909301928101610cf8565b92607f1692610c92565b9190503461021f57602036600319011261021f573563ffffffff60e01b811680910361021f57602092506380ac58cd60e01b8114908115610d8e575b8115610d7d575b5015158152f35b6301ffc9a760e01b14905083610d76565b635b5e139f60e01b81149150610d6f565b919082519283825260005b848110610dcb575050826000602080949584010152601f8019910116010190565b602081830181015184830182015201610daa565b600435906001600160a01b0382168203610df557565b600080fd5b602435906001600160a01b0382168203610df557565b6060906003190112610df5576001600160a01b03906004358281168103610df557916024359081168103610df5579060443590565b6020810190811067ffffffffffffffff821117610e6157604052565b634e487b7160e01b600052604160045260246000fd5b90601f8019910116810190811067ffffffffffffffff821117610e6157604052565b67ffffffffffffffff8111610e6157601f01601f191660200190565b600081815260026020526040902054610ed8906001600160a01b03161515610f56565b6000908152600460205260409020546001600160a01b031690565b15610efa57565b60405162461bcd60e51b815260206004820152602e60248201527f4552433732313a2063616c6c6572206973206e6f7420746f6b656e206f776e6560448201526d1c881b9bdc88185c1c1c9bdd995960921b6064820152608490fd5b15610f5d57565b60405162461bcd60e51b815260206004820152601860248201527f4552433732313a20696e76616c696420746f6b656e20494400000000000000006044820152606490fd5b6000908152600260205260409020546001600160a01b0316610fc5811515610f56565b90565b90816020910312610df557518015158103610df55790565b906001600160a01b038080610ff484610fa2565b16931691838314938415611027575b508315611011575b50505090565b61101d91929350610eb5565b161438808061100b565b909350600052600560205260406000208260005260205260ff604060002054169238611003565b61105783610fa2565b6001600160a01b0392918316919083168290036111a057821691821561114f576000908482526004602052848260408120926001600160601b0360a01b938481541690556110a483610fa2565b167f8c5be1e5ebec7d5bd14f71427d1e84f3dd0314c0f7b2291e5b200ac8c7c3b9258280a4828252600360205260408220805460001981019190821161113b57558382526003602052604082208054906001820180921161113b57558482526002602052604082208054909116841790557fddf252ad1be2c89b69c2b068fc378daa952ba7f163c4a11628f55a4df523b3ef9080a4565b634e487b7160e01b84526011600452602484fd5b60405162461bcd60e51b8152602060048201526024808201527f4552433732313a207472616e7366657220746f20746865207a65726f206164646044820152637265737360e01b6064820152608490fd5b60405162461bcd60e51b815260206004820152602560248201527f4552433732313a207472616e736665722066726f6d20696e636f72726563742060448201526437bbb732b960d91b6064820152608490fd5b6006546001600160a01b0316330361120757565b606460405162461bcd60e51b815260206004820152602060248201527f4f776e61626c653a2063616c6c6572206973206e6f7420746865206f776e65726044820152fd5b60809060208152603260208201527f4552433732313a207472616e7366657220746f206e6f6e20455243373231526560408201527131b2b4bb32b91034b6b83632b6b2b73a32b960711b60608201520190565b156112a557565b60405162461bcd60e51b8152806112be6004820161124b565b0390fd5b91929091803b156113d35761130f936040519081630a85bd0160e11b9384825233600483015260009687602484015260448301526080606483015281878160209a8b966084830190610d9f565b03926001600160a01b03165af1849181611393575b50611382575050503d60001461137a573d61133e81610e99565b9061134c6040519283610e77565b81528091833d92013e5b805191826113775760405162461bcd60e51b8152806112be6004820161124b565b01fd5b506060611356565b6001600160e01b0319161492509050565b9091508581813d83116113cc575b6113ab8183610e77565b8101031261077757516001600160e01b031981168103610777579038611324565b503d6113a1565b50915050600190565b9293919290803b1561145b576114309460018060a01b039460405192839187630a85bd0160e11b9687855233600486015216602484015260448301526080606483015281806020998a956084830190610d9f565b03916000988991165af18491816113935750611382575050503d60001461137a573d61133e81610e99565b505091505060019056fea2646970667358221220839abeec0f440f254160f5cf879166be65bb5ba8bbddb2d86cce0cfb43e6e0d664736f6c63430008180033","abi":[{"inputs":[{"internalType":"address","name":"_GSG","type":"address"},{"internalType":"address","name":"_GSS","type":"address"}],"stateMutability":"nonpayable","type":"constructor"},{"anonymous":false,"inputs":[{"indexed":true,"internalType":"address","name":"owner","type":"address"},{"indexed":true,"internalType":"address","name":"approved","type":"address"},{"indexed":true,"internalType":"uint256","name":"tokenId","type":"uint256"}],"name":"Approval","type":"event"},{"anonymous":false,"inputs":[{"indexed":true,"internalType":"address","name":"owner","type":"address"},{"indexed":true,"internalType":"address","name":"operator","type":"address"},{"indexed":false,"internalType":"bool","name":"approved","type":"bool"}],"name":"ApprovalForAll","type":"event"},{"anonymous":false,"inputs":[{"indexed":true,"internalType":"address","name":"previousOwner","type":"address"},{"indexed":true,"internalType":"address","name":"newOwner","type":"address"}],"name":"OwnershipTransferred","type":"event"},{"anonymous":false,"inputs":[{"indexed":true,"internalType":"address","name":"from","type":"address"},{"indexed":true,"internalType":"address","name":"to","type":"address"},{"indexed":true,"internalType":"uint256","name":"tokenId","type":"uint256"}],"name":"Transfer","type":"event"},{"inputs":[],"name":"GSG","outputs":[{"internalType":"contract IERC20","name":"","type":"address"}],"stateMutability":"view","type":"function"},{"inputs":[],"name":"GSS","outputs":[{"internalType":"contract IERC20","name":"","type":"address"}],"stateMutability":"view","type":"function"},{"inputs":[{"internalType":"address","name":"to","type":"address"},{"internalType":"uint256","name":"tokenId","type":"uint256"}],"name":"approve","outputs":[],"stateMutability":"nonpayable","type":"function"},{"inputs":[{"internalType":"address","name":"owner","type":"address"}],"name":"balanceOf","outputs":[{"internalType":"uint256","name":"","type":"uint256"}],"stateMutability":"view","type":"function"},{"inputs":[{"internalType":"uint256","name":"tokenId","type":"uint256"}],"name":"getApproved","outputs":[{"internalType":"address","name":"","type":"address"}],"stateMutability":"view","type":"function"},{"inputs":[{"internalType":"uint256","name":"tokenId","type":"uint256"}],"name":"getLockedAmounts","outputs":[{"internalType":"uint256","name":"gsg","type":"uint256"},{"internalType":"uint256","name":"gss","type":"uint256"}],"stateMutability":"view","type":"function"},{"inputs":[{"internalType":"address","name":"owner","type":"address"},{"internalType":"address","name":"operator","type":"address"}],"name":"isApprovedForAll","outputs":[{"internalType":"bool","name":"","type":"bool"}],"stateMutability":"view","type":"function"},{"inputs":[{"internalType":"uint256","name":"","type":"uint256"}],"name":"lockedGSGAmount","outputs":[{"internalType":"uint256","name":"","type":"uint256"}],"stateMutability":"view","type":"function"},{"inputs":[{"internalType":"uint256","name":"","type":"uint256"}],"name":"lockedGSSAmount","outputs":[{"internalType":"uint256","name":"","type":"uint256"}],"stateMutability":"view","type":"function"},{"inputs":[],"name":"name","outputs":[{"internalType":"string","name":"","type":"string"}],"stateMutability":"view","type":"function"},{"inputs":[],"name":"nextTokenId","outputs":[{"internalType":"uint256","name":"","type":"uint256"}],"stateMutability":"view","type":"function"},{"inputs":[],"name":"owner","outputs":[{"internalType":"address","name":"","type":"address"}],"stateMutability":"view","type":"function"},{"inputs":[{"internalType":"uint256","name":"tokenId","type":"uint256"}],"name":"ownerOf","outputs":[{"internalType":"address","name":"","type":"address"}],"stateMutability":"view","type":"function"},{"inputs":[],"name":"renounceOwnership","outputs":[],"stateMutability":"nonpayable","type":"function"},{"inputs":[{"internalType":"address","name":"from","type":"address"},{"internalType":"address","name":"to","type":"address"},{"internalType":"uint256","name":"tokenId","type":"uint256"}],"name":"safeTransferFrom","outputs":[],"stateMutability":"nonpayable","type":"function"},{"inputs":[{"internalType":"address","name":"from","type":"address"},{"internalType":"address","name":"to","type":"address"},{"internalType":"uint256","name":"tokenId","type":"uint256"},{"internalType":"bytes","name":"data","type":"bytes"}],"name":"safeTransferFrom","outputs":[],"stateMutability":"nonpayable","type":"function"},{"inputs":[{"internalType":"address","name":"operator","type":"address"},{"internalType":"bool","name":"approved","type":"bool"}],"name":"setApprovalForAll","outputs":[],"stateMutability":"nonpayable","type":"function"},{"inputs":[{"internalType":"bytes4","name":"interfaceId","type":"bytes4"}],"name":"supportsInterface","outputs":[{"internalType":"bool","name":"","type":"bool"}],"stateMutability":"view","type":"function"},{"inputs":[],"name":"symbol","outputs":[{"internalType":"string","name":"","type":"string"}],"stateMutability":"view","type":"function"},{"inputs":[{"internalType":"uint256","name":"tokenId","type":"uint256"}],"name":"tokenURI","outputs":[{"internalType":"string","name":"","type":"string"}],"stateMutability":"view","type":"function"},{"inputs":[{"internalType":"address","name":"from","type":"address"},{"internalType":"address","name":"to","type":"address"},{"internalType":"uint256","name":"tokenId","type":"uint256"}],"name":"transferFrom","outputs":[],"stateMutability":"nonpayable","type":"function"},{"inputs":[{"internalType":"address","name":"newOwner","type":"address"}],"name":"transferOwnership","outputs":[],"stateMutability":"nonpayable","type":"function"},{"inputs":[{"internalType":"uint256","name":"gsgAmount","type":"uint256"},{"internalType":"uint256","name":"gssAmount","type":"uint256"}],"name":"wrapTokens","outputs":[],"stateMutability":"nonpayable","type":"function"}]}